{"contracts/MultiSigMaster.sol":{"MultiSigMaster":{"abi":[{"inputs":[],"name":"InvalidInitialization","type":"error"},{"inputs":[],"name":"NotInitializing","type":"error"},{"anonymous":false,"inputs":[{"indexed":true,"internalType":"address","name":"sender","type":"address"},{"indexed":false,"internalType":"uint256","name":"transactionId","type":"uint256"}],"name":"Confirmation","type":"event"},{"anonymous":false,"inputs":[{"indexed":true,"internalType":"address","name":"sender","type":"address"},{"indexed":false,"internalType":"uint256","name":"amount","type":"uint256"}],"name":"Deposit","type":"event"},{"anonymous":false,"inputs":[{"indexed":false,"internalType":"uint256","name":"amount","type":"uint256"},{"indexed":false,"internalType":"uint256","name":"transactionId","type":"uint256"}],"name":"ExecutionERC20","type":"event"},{"anonymous":false,"inputs":[{"indexed":false,"internalType":"uint256","name":"amount","type":"uint256"},{"indexed":false,"internalType":"uint256","name":"transactionId","type":"uint256"}],"name":"ExecutionNative","type":"event"},{"anonymous":false,"inputs":[{"indexed":false,"internalType":"uint64","name":"version","type":"uint64"}],"name":"Initialized","type":"event"},{"anonymous":false,"inputs":[{"indexed":true,"internalType":"address","name":"master","type":"address"}],"name":"MasterChanged","type":"event"},{"anonymous":false,"inputs":[{"indexed":true,"internalType":"address","name":"owner","type":"address"}],"name":"OwnerAddition","type":"event"},{"anonymous":false,"inputs":[{"indexed":true,"internalType":"address","name":"owner","type":"address"}],"name":"OwnerRemoval","type":"event"},{"anonymous":false,"inputs":[{"indexed":false,"internalType":"uint256","name":"quorum","type":"uint256"}],"name":"QuorumChanged","type":"event"},{"anonymous":false,"inputs":[{"indexed":true,"internalType":"address","name":"sender","type":"address"},{"indexed":false,"internalType":"uint256","name":"transactionId","type":"uint256"}],"name":"Revocation","type":"event"},{"anonymous":false,"inputs":[{"indexed":true,"internalType":"address","name":"destination","type":"address"},{"indexed":false,"internalType":"uint256","name":"transactionId","type":"uint256"}],"name":"Submission","type":"event"},{"anonymous":false,"inputs":[{"indexed":true,"internalType":"address","name":"receiver","type":"address"},{"indexed":false,"internalType":"uint256","name":"amount","type":"uint256"}],"name":"Withdraw","type":"event"},{"stateMutability":"payable","type":"fallback"},{"inputs":[{"internalType":"address","name":"owner","type":"address"}],"name":"addOwner","outputs":[],"stateMutability":"nonpayable","type":"function"},{"inputs":[{"internalType":"address","name":"newMaster","type":"address"}],"name":"changeMaster","outputs":[],"stateMutability":"nonpayable","type":"function"},{"inputs":[{"internalType":"uint256","name":"newQuorum","type":"uint256"}],"name":"changeQuorum","outputs":[],"stateMutability":"nonpayable","type":"function"},{"inputs":[{"internalType":"uint256","name":"transactionId","type":"uint256"}],"name":"confirmTransaction","outputs":[],"stateMutability":"nonpayable","type":"function"},{"inputs":[{"internalType":"bytes32","name":"","type":"bytes32"},{"internalType":"address","name":"","type":"address"}],"name":"confirmations","outputs":[{"internalType":"uint256","name":"","type":"uint256"}],"stateMutability":"view","type":"function"},{"inputs":[],"name":"deposit","outputs":[],"stateMutability":"payable","type":"function"},{"inputs":[{"internalType":"uint256","name":"transactionId","type":"uint256"}],"name":"executeTransaction","outputs":[],"stateMutability":"nonpayable","type":"function"},{"inputs":[],"name":"getBalance","outputs":[{"internalType":"uint256","name":"","type":"uint256"}],"stateMutability":"view","type":"function"},{"inputs":[{"internalType":"uint256","name":"transactionId","type":"uint256"}],"name":"getConfirmationCount","outputs":[{"internalType":"uint256","name":"count","type":"uint256"}],"stateMutability":"nonpayable","type":"function"},{"inputs":[{"internalType":"uint256","name":"transactionId","type":"uint256"}],"name":"getConfirmations","outputs":[{"internalType":"address[]","name":"_confirmations","type":"address[]"}],"stateMutability":"nonpayable","type":"function"},{"inputs":[],"name":"getMaster","outputs":[{"internalType":"address","name":"res","type":"address"}],"stateMutability":"view","type":"function"},{"inputs":[],"name":"getOwnerCount","outputs":[{"internalType":"uint256","name":"res","type":"uint256"}],"stateMutability":"view","type":"function"},{"inputs":[],"name":"getOwners","outputs":[{"internalType":"address[]","name":"","type":"address[]"}],"stateMutability":"view","type":"function"},{"inputs":[],"name":"getQuorum","outputs":[{"internalType":"uint256","name":"res","type":"uint256"}],"stateMutability":"view","type":"function"},{"inputs":[{"internalType":"uint256","name":"transactionId","type":"uint256"}],"name":"getRevocationCount","outputs":[{"internalType":"uint256","name":"count","type":"uint256"}],"stateMutability":"nonpayable","type":"function"},{"inputs":[{"internalType":"uint256","name":"transactionId","type":"uint256"}],"name":"getRevocations","outputs":[{"internalType":"address[]","name":"_confirmations","type":"address[]"}],"stateMutability":"nonpayable","type":"function"},{"inputs":[],"name":"getTokenBalance","outputs":[{"internalType":"uint256","name":"bal","type":"uint256"}],"stateMutability":"view","type":"function"},{"inputs":[],"name":"getTransactionCount","outputs":[{"internalType":"uint256","name":"count","type":"uint256"}],"stateMutability":"view","type":"function"},{"inputs":[{"internalType":"uint256","name":"transactionId","type":"uint256"},{"internalType":"address","name":"owner","type":"address"}],"name":"getUserConfirmationStatus","outputs":[{"internalType":"bool","name":"","type":"bool"}],"stateMutability":"nonpayable","type":"function"},{"inputs":[],"name":"hashId","outputs":[{"internalType":"bytes32","name":"","type":"bytes32"}],"stateMutability":"view","type":"function"},{"inputs":[{"internalType":"uint256","name":"","type":"uint256"}],"name":"hashesId","outputs":[{"internalType":"bytes32","name":"","type":"bytes32"}],"stateMutability":"view","type":"function"},{"inputs":[{"internalType":"uint256","name":"","type":"uint256"}],"name":"idToHashes","outputs":[{"internalType":"bytes32","name":"","type":"bytes32"}],"stateMutability":"view","type":"function"},{"inputs":[{"internalType":"address","name":"master","type":"address"},{"internalType":"address[]","name":"_owners","type":"address[]"},{"internalType":"uint256","name":"_quorum","type":"uint256"}],"name":"initialize","outputs":[],"stateMutability":"nonpayable","type":"function"},{"inputs":[{"internalType":"address[]","name":"_owners","type":"address[]"},{"internalType":"uint256","name":"_quorum","type":"uint256"}],"name":"initialize","outputs":[],"stateMutability":"nonpayable","type":"function"},{"inputs":[{"internalType":"uint256","name":"transactionId","type":"uint256"}],"name":"isConfirmed","outputs":[{"internalType":"bool","name":"res","type":"bool"}],"stateMutability":"nonpayable","type":"function"},{"inputs":[{"internalType":"address","name":"","type":"address"}],"name":"isOwner","outputs":[{"internalType":"bool","name":"","type":"bool"}],"stateMutability":"view","type":"function"},{"inputs":[{"internalType":"uint256","name":"transactionId","type":"uint256"}],"name":"isRevoked","outputs":[{"internalType":"bool","name":"res","type":"bool"}],"stateMutability":"nonpayable","type":"function"},{"inputs":[{"internalType":"uint256","name":"","type":"uint256"}],"name":"owners","outputs":[{"internalType":"address","name":"","type":"address"}],"stateMutability":"view","type":"function"},{"inputs":[],"name":"quorum","outputs":[{"internalType":"uint256","name":"","type":"uint256"}],"stateMutability":"view","type":"function"},{"inputs":[{"internalType":"address","name":"owner","type":"address"}],"name":"removeOwner","outputs":[],"stateMutability":"nonpayable","type":"function"},{"inputs":[{"internalType":"uint256","name":"transactionId","type":"uint256"}],"name":"revokeTransaction","outputs":[],"stateMutability":"nonpayable","type":"function"},{"inputs":[{"internalType":"address","name":"tokenContractAddress","type":"address"}],"name":"setTokenContractAddress","outputs":[],"stateMutability":"nonpayable","type":"function"},{"inputs":[{"internalType":"address","name":"destination","type":"address"},{"internalType":"uint256","name":"value","type":"uint256"},{"internalType":"enum MultiSigTransaction.TransactionType","name":"transactionType","type":"uint8"}],"name":"submitTransaction","outputs":[{"internalType":"uint256","name":"transactionId","type":"uint256"}],"stateMutability":"nonpayable","type":"function"},{"inputs":[],"name":"transactionCount","outputs":[{"internalType":"uint256","name":"","type":"uint256"}],"stateMutability":"view","type":"function"},{"inputs":[{"internalType":"bytes32","name":"","type":"bytes32"}],"name":"transactions","outputs":[{"internalType":"address","name":"destination","type":"address"},{"internalType":"address","name":"submitterAddress","type":"address"},{"internalType":"uint256","name":"value","type":"uint256"},{"internalType":"enum MultiSigTransaction.TransactionType","name":"transactionType","type":"uint8"},{"internalType":"bool","name":"executed","type":"bool"}],"stateMutability":"view","type":"function"},{"inputs":[{"internalType":"address","name":"addressToVerify","type":"address"}],"name":"verifyOwner","outputs":[{"internalType":"bool","name":"res","type":"bool"}],"stateMutability":"view","type":"function"},{"inputs":[{"internalType":"address","name":"to","type":"address"},{"internalType":"uint256","name":"amount","type":"uint256"}],"name":"withdraw","outputs":[{"internalType":"bool","name":"","type":"bool"}],"stateMutability":"nonpayable","type":"function"},{"stateMutability":"payable","type":"receive"}],"devdoc":{"details":"Extends MultiSigTransaction, providing additional functionality for a 'master' role.      This contract allows for the master to perform certain administrative tasks, such as      withdrawing funds and changing the master address. Inherits initializable pattern for      upgradeable contracts.","errors":{"InvalidInitialization()":[{"details":"The contract is already initialized."}],"NotInitializing()":[{"details":"The contract is not initializing."}]},"events":{"Confirmation(address,uint256)":{"details":"Emitted when a transaction is confirmed by an owner.","params":{"sender":"The address of the owner who confirmed the transaction.","transactionId":"The ID of the confirmed transaction."}},"Deposit(address,uint256)":{"details":"Emitted when native tokens are deposited into the contract.","params":{"amount":"The amount of native tokens deposited.","sender":"The address of the sender who made the deposit."}},"ExecutionERC20(uint256,uint256)":{"details":"Emitted when an ERC20 token transaction is executed.","params":{"amount":"The amount of ERC20 tokens transferred.","transactionId":"The ID of the executed transaction."}},"ExecutionNative(uint256,uint256)":{"details":"Emitted when a native token transaction is executed.","params":{"amount":"The amount of native tokens transferred.","transactionId":"The ID of the executed transaction."}},"Initialized(uint64)":{"details":"Triggered when the contract has been initialized or reinitialized."},"MasterChanged(address)":{"details":"Emitted when the master of the contract is changed.","params":{"master":"The new master's address."}},"OwnerAddition(address)":{"details":"Emitted when a new owner is added to the contract.","params":{"owner":"The address of the newly added owner."}},"OwnerRemoval(address)":{"details":"Emitted when an owner is removed from the contract.","params":{"owner":"The address of the owner being removed."}},"QuorumChanged(uint256)":{"details":"Emitted when the quorum requirement is changed.","params":{"quorum":"The new quorum requirement."}},"Revocation(address,uint256)":{"details":"Emitted when a transaction confirmation is revoked by an owner.","params":{"sender":"The address of the owner who revoked the transaction confirmation.","transactionId":"The ID of the transaction whose confirmation was revoked."}},"Submission(address,uint256)":{"details":"Emitted when a new transaction is submitted.","params":{"destination":"The destination address of the transaction.","transactionId":"The ID of the submitted transaction."}},"Withdraw(address,uint256)":{"details":"Emitted when funds are withdrawn from the contract.","params":{"amount":"The amount of Ether (in wei) withdrawn.","receiver":"The address receiving the withdrawn funds."}}},"kind":"dev","methods":{"addOwner(address)":{"details":"Adds a new owner to the contract. Restricted to existing owners.","params":{"owner":"The address to be added as a new owner."}},"changeMaster(address)":{"details":"Changes the master of the contract. Only the current master can call this function.","params":{"newMaster":"The address of the new master."}},"changeQuorum(uint256)":{"details":"Changes the quorum requirement. Restricted to existing owners.","params":{"newQuorum":"The new quorum requirement."}},"confirmTransaction(uint256)":{"details":"Allows an owner to confirm a transaction. Emits a Confirmation event.","params":{"transactionId":"The ID of the transaction to be confirmed."}},"deposit()":{"details":"Allows anyone to deposit native tokens into the contract. Emits a Deposit event."},"executeTransaction(uint256)":{"details":"Executes a confirmed transaction. Determines the type of transaction and executes accordingly.","params":{"transactionId":"The ID of the transaction to be executed."}},"getBalance()":{"details":"Returns the contract's current Ether balance, but only callable by the master.","returns":{"_0":"The balance of Ether held by the contract."}},"getConfirmationCount(uint256)":{"details":"Returns the number of confirmations for a transaction.","params":{"transactionId":"The ID of the transaction."},"returns":{"count":": The count of confirmations for the transaction."}},"getConfirmations(uint256)":{"details":"Returns an array of addresses that have confirmed a given transaction.","params":{"transactionId":"The ID of the transaction."},"returns":{"_confirmations":": A list of addresses that have confirmed the transaction."}},"getMaster()":{"details":"Retrieves the address of the current master of the contract.  This function can only be called by the master.","returns":{"res":"The address of the current master."}},"getOwnerCount()":{"details":"Returns the total number of owners.","returns":{"res":": The total number of owners."}},"getOwners()":{"details":"Returns the list of current owners.","returns":{"_0":"The current list of owner addresses."}},"getQuorum()":{"details":"Returns the current quorum requirement.","returns":{"res":": The current quorum requirement."}},"getRevocationCount(uint256)":{"details":"Returns the number of revocations for a transaction.","params":{"transactionId":"The ID of the transaction."},"returns":{"count":": The count of revocations for the transaction."}},"getRevocations(uint256)":{"details":"Returns an array of addresses that have revoked a given transaction.","params":{"transactionId":"The ID of the transaction."},"returns":{"_confirmations":": A list of addresses that have revoked their confirmation for the transaction."}},"getTransactionCount()":{"details":"Returns the total number of transactions submitted to the contract.","returns":{"count":": The total count of transactions."}},"getUserConfirmationStatus(uint256,address)":{"details":"Checks if an owner has confirmed a transaction or not (revoked or not voted yet).","params":{"owner":"The address of the owner whose confirmation status is to be checked.","transactionId":"The ID of the transaction to check."},"returns":{"_0":"`true` if the owner has confirmed, `false` otherwise."}},"initialize(address,address[],uint256)":{"details":"Initializes the contract setting the initial master, owners, and quorum. Can only be called once, as it is an initializer for upgradeable contracts.","params":{"_owners":"Array of addresses that will be set as the owners.","_quorum":"The required quorum for transaction approval.","master":"The address that will be set as the initial master."}},"initialize(address[],uint256)":{"details":"Initializes the contract with a set of owners and a quorum requirement.      Extends the initialization functionality from MultiSigAdministration.","params":{"_owners":"List of initial owners.","_quorum":"The initial quorum requirement for transaction confirmations."}},"isConfirmed(uint256)":{"details":"Checks if a transaction has reached the required quorum of confirmations.","params":{"transactionId":"The ID of the transaction to check."},"returns":{"res":"`true` if the transaction is confirmed, `false` otherwise."}},"isRevoked(uint256)":{"details":"Checks if a transaction has reached the required quorum of revokations.","params":{"transactionId":"The ID of the transaction to check."},"returns":{"res":"`true` if the transaction is revoked, `false` otherwise."}},"removeOwner(address)":{"details":"Removes an existing owner from the contract. Restricted to existing owners.","params":{"owner":"The address of the owner to be removed."}},"revokeTransaction(uint256)":{"details":"Allows an owner to revoke their confirmation for a transaction. Emits a Revocation event.","params":{"transactionId":"The ID of the transaction for which the confirmation is to be revoked."}},"setTokenContractAddress(address)":{"details":"Sets the ERC20 token contract address for the contract.","params":{"tokenContractAddress":"The address of the ERC20 token contract."}},"submitTransaction(address,uint256,uint8)":{"details":"Allows an owner to submit a new transaction. Emits a Submission event.","params":{"destination":"The destination address for the transaction.","transactionType":"The type of transaction being submitted.","value":"The value (amount of native tokens or token ID) involved in the transaction."},"returns":{"transactionId":"The ID of the submitted transaction."}},"verifyOwner(address)":{"details":"Checks if a given address is an owner of the contract.","params":{"addressToVerify":"The address to be verified."},"returns":{"res":": `true` if the address is an owner, `false` otherwise."}},"withdraw(address,uint256)":{"details":"Withdraws the specified amount of Ether from the contract to a given address.  Only callable by the master.","params":{"amount":"The amount to be withdrawn.","to":"The address to which the funds will be withdrawn."},"returns":{"_0":"sent A boolean indicating whether the withdrawal was successful."}}},"title":"MultiSigMaster Contract","version":1},"evm":{"bytecode":{"linkReferences":{},"object":"608060405234801561001057600080fd5b50613053806100206000396000f3fe60806040526004361061021e5760003560e01c806382b2e25711610123578063c26c12eb116100ab578063ee22610b1161006f578063ee22610b1461068a578063ef18374a146106aa578063f3fef3a3146106bf578063f4ff78bf146106df578063f6bdc030146106ff5761022d565b8063c26c12eb1461061f578063c59bcee814610634578063c85c41e91461064a578063d0e30db01461022d578063d2cd96bd1461066a5761022d565b8063af05445a116100f2578063af05445a14610589578063b23d4854146105a9578063b5dc40c3146105c9578063b77bf600146105e9578063c01a8c84146105ff5761022d565b806382b2e257146104f95780638b51d13f1461050e5780638c85cd851461052e578063a0e67e2b146105675761022d565b80633c680462116101a657806360b5bb3f1161017557806360b5bb3f1461040d578063642f2eaf1461042d5780637065cb4814610499578063735631ad146104b9578063784547a7146104d95761022d565b80633c680462146103985780633ede50c6146103b85780635a99719e146103d85780635ccc561e146103ed5761022d565b80631703a018116101ed5780631703a018146102fd578063173825d91461031357806329cd11b2146103335780632e7700f0146103535780632f54bf6e146103685761022d565b8063025e7c27146102355780630c4ecab41461027257806312065fe0146102b8578063144dee38146102cd5761022d565b3661022d5761022b61072c565b005b61022b61072c565b34801561024157600080fd5b50610255610250366004612aaf565b61076a565b6040516001600160a01b0390911681526020015b60405180910390f35b34801561027e57600080fd5b506102aa61028d366004612ae4565b600660209081526000928352604080842090915290825290205481565b604051908152602001610269565b3480156102c457600080fd5b506102aa610794565b3480156102d957600080fd5b506102ed6102e8366004612ae4565b6107d4565b6040519015158152602001610269565b34801561030957600080fd5b506102aa60025481565b34801561031f57600080fd5b5061022b61032e366004612b10565b61089d565b34801561033f57600080fd5b506102aa61034e366004612aaf565b610aeb565b34801561035f57600080fd5b506005546102aa565b34801561037457600080fd5b506102ed610383366004612b10565b60006020819052908152604090205460ff1681565b3480156103a457600080fd5b506102aa6103b3366004612b32565b610b0c565b3480156103c457600080fd5b5061022b6103d3366004612c2d565b610c1e565b3480156103e457600080fd5b50610255610d4a565b3480156103f957600080fd5b506102ed610408366004612aaf565b610d8a565b34801561041957600080fd5b5061022b610428366004612c83565b610eac565b34801561043957600080fd5b50610488610448366004612aaf565b60046020526000908152604090208054600182015460028301546003909301546001600160a01b0392831693919092169160ff8082169161010090041685565b604051610269959493929190612cdd565b3480156104a557600080fd5b5061022b6104b4366004612b10565b610ffd565b3480156104c557600080fd5b5061022b6104d4366004612aaf565b6111ba565b3480156104e557600080fd5b506102ed6104f4366004612aaf565b6112d7565b34801561050557600080fd5b506102aa6113f2565b34801561051a57600080fd5b506102aa610529366004612aaf565b61146a565b34801561053a57600080fd5b506102ed610549366004612b10565b6001600160a01b031660009081526020819052604090205460ff1690565b34801561057357600080fd5b5061057c611575565b6040516102699190612d32565b34801561059557600080fd5b5061057c6105a4366004612aaf565b6115d7565b3480156105b557600080fd5b5061022b6105c4366004612b10565b611838565b3480156105d557600080fd5b5061057c6105e4366004612aaf565b61188a565b3480156105f557600080fd5b506102aa60055481565b34801561060b57600080fd5b5061022b61061a366004612aaf565b611ae3565b34801561062b57600080fd5b506002546102aa565b34801561064057600080fd5b506102aa60095481565b34801561065657600080fd5b506102aa610665366004612aaf565b611bf6565b34801561067657600080fd5b5061022b610685366004612aaf565b611cfb565b34801561069657600080fd5b5061022b6106a5366004612aaf565b611da2565b3480156106b657600080fd5b506001546102aa565b3480156106cb57600080fd5b506102ed6106da366004612d7f565b6120a9565b3480156106eb57600080fd5b5061022b6106fa366004612b10565b6121c9565b34801561070b57600080fd5b506102aa61071a366004612aaf565b60076020526000908152604090205481565b34156107685760405134815233907fe1fffcc4923d04b559f4d29a8bfc6cda04eb5b0d3c460751c2402c5c5cc9109c9060200160405180910390a25b565b6001818154811061077a57600080fd5b6000918252602090912001546001600160a01b0316905081565b600a5460009033906001600160a01b031681146107cc5760405162461bcd60e51b81526004016107c390612da9565b60405180910390fd5b4791505b5090565b6000828152600760209081526040808320546009556008805482518185028101850190935280835261083c9383018282801561082f57602002820191906000526020600020905b81548152602001906001019080831161081b575b5050505050600954612240565b6108585760405162461bcd60e51b81526004016107c390612df4565b60095460009081526006602090815260408083206001600160a01b03861684529091529020546001819003610891576001915050610897565b60009150505b92915050565b3360008181526020819052604090205460ff166108cc5760405162461bcd60e51b81526004016107c390612e40565b6001600160a01b038216600090815260208190526040902054829060ff166109065760405162461bcd60e51b81526004016107c390612e40565b60018054116109575760405162461bcd60e51b815260206004820152601760248201527f43616e27742072656d6f7665206c617374206f776e657200000000000000000060448201526064016107c3565b600180546109659190612e8d565b600254111561097f576001805461097f9161068591612e8d565b60005b600180546109909190612e8d565b811015610a5e57836001600160a01b0316600182815481106109b4576109b4612ea0565b6000918252602090912001546001600160a01b031603610a4c57600180546109dd908290612e8d565b815481106109ed576109ed612ea0565b600091825260209091200154600180546001600160a01b039092169183908110610a1957610a19612ea0565b9060005260206000200160006101000a8154816001600160a01b0302191690836001600160a01b03160217905550610a5e565b80610a5681612eb6565b915050610982565b506001600160a01b0383166000908152602081905260409020805460ff191690556001805480610a9057610a90612ecf565b600082815260208120820160001990810180546001600160a01b03191690559091019091556040516001600160a01b038516917f8001553a916ef2f495d26a907cc54d96ed840d7bda71e73194bf5a9df7a76b9091a2505050565b60088181548110610afb57600080fd5b600091825260209091200154905081565b3360008181526020819052604081205490919060ff16610b3e5760405162461bcd60e51b81526004016107c390612e40565b604080513360601b6bffffffffffffffffffffffff1916602080830191909152603482018790524260548084019190915283518084039091018152607490920190925280519101206009819055600880546001810182556000919091527ff3f7a9fe364faab93b216da50a3214154f22a0a2b415b23a84c8169e8b636ee301819055610bd1908690339087908790612293565b9150846001600160a01b03167f7353684080cb3af2a27a8f7a2ea1d406494bd8e78dadcfad3519da376da14bfb83604051610c0e91815260200190565b60405180910390a2509392505050565b7ff0c57e16840df040f15088dc2f81fe391c3923bec73e23a9662efc9c229c6a008054600160401b810460ff1615906001600160401b0316600081158015610c635750825b90506000826001600160401b03166001148015610c7f5750303b155b905081158015610c8d575080155b15610cab5760405163f92ee8a960e01b815260040160405180910390fd5b845467ffffffffffffffff191660011785558315610cd557845460ff60401b1916600160401b1785555b610cdf8787610eac565b600a80546001600160a01b0319166001600160a01b038a161790558315610d4057845460ff60401b19168555604051600181527fc7f505b2f371ae2175ee4913f4499e1f2633a7b5936321eed1cdaeb6115181d29060200160405180910390a15b5050505050505050565b600a5460009033906001600160a01b03168114610d795760405162461bcd60e51b81526004016107c390612da9565b5050600a546001600160a01b031690565b60008181526007602090815260408083205460095560088054825181850281018501909352808352610df09383018282801561082f576020028201919060005260206000209081548152602001906001019080831161081b575050505050600954612240565b610e0c5760405162461bcd60e51b81526004016107c390612df4565b50600080805b600154811015610ea557600660006009548152602001908152602001600020600060018381548110610e4657610e46612ea0565b60009182526020808320909101546001600160a01b03168352820192909252604001902054600203610e8057610e7d600183612ee5565b91505b6002548210610e93575060019392505050565b80610e9d81612eb6565b915050610e12565b5050919050565b7ff0c57e16840df040f15088dc2f81fe391c3923bec73e23a9662efc9c229c6a008054600160401b810460ff1615906001600160401b0316600081158015610ef15750825b90506000826001600160401b03166001148015610f0d5750303b155b905081158015610f1b575080155b15610f395760405163f92ee8a960e01b815260040160405180910390fd5b845467ffffffffffffffff191660011785558315610f6357845460ff60401b1916600160401b1785555b865186818111158015610f7557508015155b8015610f8057508115155b610f9c5760405162461bcd60e51b81526004016107c390612ef8565b610fa6898961240c565b505060006005558315610ff457845460ff60401b19168555604051600181527fc7f505b2f371ae2175ee4913f4499e1f2633a7b5936321eed1cdaeb6115181d2906020015b60405180910390a15b50505050505050565b6001600160a01b038116600090815260208190526040902054819060ff16156110685760405162461bcd60e51b815260206004820181905260248201527f54686973206164647265737320697320616c726561647920616e206f776e657260448201526064016107c3565b3360008181526020819052604090205460ff166110975760405162461bcd60e51b81526004016107c390612e40565b826001600160a01b0381166110e45760405162461bcd60e51b8152602060048201526013602482015272151a19481859191c995cdcc81a5cc81b9d5b1b606a1b60448201526064016107c3565b600180546110f191612ee5565b60025481811115801561110357508015155b801561110e57508115155b61112a5760405162461bcd60e51b81526004016107c390612ef8565b6001600160a01b038616600081815260208190526040808220805460ff19166001908117909155805480820182559083527fb10e2d527612073b26eecdfd717e6a320cf44b4afac2b0732d9fcbe2b7fa0cf60180546001600160a01b03191684179055517ff39e6e1eb0edcf53c221607b54b00cd28f3196fed0a24994dc308b8f611b682d9190a2505050505050565b3360008181526020819052604090205460ff166111e95760405162461bcd60e51b81526004016107c390612e40565b6000828152600760209081526040808320548084526004909252909120546001600160a01b031661122c5760405162461bcd60e51b81526004016107c390612f28565b600083815260076020908152604080832054808452600490925290912060030154610100900460ff16156112725760405162461bcd60e51b81526004016107c390612f79565b6000848152600760209081526040808320546009819055835260068252808320338085529083529281902060029055518681527ff6a317157440607f36269043eb55f1287a5a19ba2216afeab88cd46cbcfb88e991015b60405180910390a250505050565b6000818152600760209081526040808320546009556008805482518185028101850190935280835261133d9383018282801561082f576020028201919060005260206000209081548152602001906001019080831161081b575050505050600954612240565b6113595760405162461bcd60e51b81526004016107c390612df4565b50600080805b600154811015610ea55760066000600954815260200190815260200160002060006001838154811061139357611393612ea0565b60009182526020808320909101546001600160a01b031683528201929092526040019020546001036113cd576113ca600183612ee5565b91505b60025482106113e0575060019392505050565b806113ea81612eb6565b91505061135f565b600354604051636eb1769f60e11b81523360048201523060248201526000916001600160a01b03169063dd62ed3e90604401602060405180830381865afa158015611441573d6000803e3d6000fd5b505050506040513d601f19601f820116820180604052508101906114659190612fe2565b905090565b600081815260076020908152604080832054600955600880548251818502810185019093528083526114d09383018282801561082f576020028201919060005260206000209081548152602001906001019080831161081b575050505050600954612240565b6114ec5760405162461bcd60e51b81526004016107c390612df4565b60005b60015481101561156f5760066000600954815260200190815260200160002060006001838154811061152357611523612ea0565b60009182526020808320909101546001600160a01b0316835282019290925260400190205460010361155d5761155a600183612ee5565b91505b8061156781612eb6565b9150506114ef565b50919050565b606060018054806020026020016040519081016040528092919081815260200182805480156115cd57602002820191906000526020600020905b81546001600160a01b031681526001909101906020018083116115af575b5050505050905090565b6000818152600760209081526040918290205460095560088054835181840281018401909452808452606093611645939092919083018282801561082f576020028201919060005260206000209081548152602001906001019080831161081b575050505050600954612240565b6116615760405162461bcd60e51b81526004016107c390612df4565b6001546000906001600160401b0381111561167e5761167e612b76565b6040519080825280602002602001820160405280156116a7578160200160208202803683370190505b5090506000805b600154811015611789576006600060095481526020019081526020016000206000600183815481106116e2576116e2612ea0565b60009182526020808320909101546001600160a01b03168352820192909252604001902054600203611777576001818154811061172157611721612ea0565b9060005260206000200160009054906101000a90046001600160a01b031683838151811061175157611751612ea0565b6001600160a01b0390921660209283029190910190910152611774600183612ee5565b91505b8061178181612eb6565b9150506116ae565b816001600160401b038111156117a1576117a1612b76565b6040519080825280602002602001820160405280156117ca578160200160208202803683370190505b509350600090505b81811015611830578281815181106117ec576117ec612ea0565b602002602001015184828151811061180657611806612ea0565b6001600160a01b03909216602092830291909101909101528061182881612eb6565b9150506117d2565b505050919050565b3360008181526020819052604090205460ff166118675760405162461bcd60e51b81526004016107c390612e40565b50600380546001600160a01b0319166001600160a01b0392909216919091179055565b60008181526007602090815260409182902054600955600880548351818402810184019094528084526060936118f8939092919083018282801561082f576020028201919060005260206000209081548152602001906001019080831161081b575050505050600954612240565b6119145760405162461bcd60e51b81526004016107c390612df4565b6001546000906001600160401b0381111561193157611931612b76565b60405190808252806020026020018201604052801561195a578160200160208202803683370190505b5090506000805b600154811015611a3c5760066000600954815260200190815260200160002060006001838154811061199557611995612ea0565b60009182526020808320909101546001600160a01b03168352820192909252604001902054600103611a2a57600181815481106119d4576119d4612ea0565b9060005260206000200160009054906101000a90046001600160a01b0316838381518110611a0457611a04612ea0565b6001600160a01b0390921660209283029190910190910152611a27600183612ee5565b91505b80611a3481612eb6565b915050611961565b816001600160401b03811115611a5457611a54612b76565b604051908082528060200260200182016040528015611a7d578160200160208202803683370190505b509350600090505b8181101561183057828181518110611a9f57611a9f612ea0565b6020026020010151848281518110611ab957611ab9612ea0565b6001600160a01b039092166020928302919091019091015280611adb81612eb6565b915050611a85565b3360008181526020819052604090205460ff16611b125760405162461bcd60e51b81526004016107c390612e40565b6000828152600760209081526040808320548084526004909252909120546001600160a01b0316611b555760405162461bcd60e51b81526004016107c390612f28565b600083815260076020908152604080832054808452600490925290912060030154610100900460ff1615611b9b5760405162461bcd60e51b81526004016107c390612f79565b6000848152600760209081526040808320546009819055835260068252808320338085529083529281902060019055518681527f4a504a94899432a9846e1aa406dceb1bcfd538bb839071d49d1e5e23f5be30ef91016112c9565b60008181526007602090815260408083205460095560088054825181850281018501909352808352611c5c9383018282801561082f576020028201919060005260206000209081548152602001906001019080831161081b575050505050600954612240565b611c785760405162461bcd60e51b81526004016107c390612df4565b60005b60015481101561156f57600660006009548152602001908152602001600020600060018381548110611caf57611caf612ea0565b60009182526020808320909101546001600160a01b03168352820192909252604001902054600203611ce957611ce6600183612ee5565b91505b80611cf381612eb6565b915050611c7b565b3360008181526020819052604090205460ff16611d2a5760405162461bcd60e51b81526004016107c390612e40565b60015482818111801590611d3d57508015155b8015611d4857508115155b611d645760405162461bcd60e51b81526004016107c390612ef8565b60028490556040518481527f027863d12a407097e086a48e36475bfc859d0b200b7e6f65b5fd3b218e46632e9060200160405180910390a150505050565b3360008181526020819052604090205460ff16611dd15760405162461bcd60e51b81526004016107c390612e40565b81611ddb816112d7565b80611dea5750611dea81610d8a565b611e485760405162461bcd60e51b815260206004820152602960248201527f51756f72756d20686173206e6f74206265656e2072656163686564206279206f6044820152681ddb995c9cc81e595d60ba1b60648201526084016107c3565b82611e52816112d7565b611ebb5760405162461bcd60e51b815260206004820152603460248201527f546865207472616e73616374696f6e20686173206e6f74206265656e20636f6e604482015273199a5c9b595908189e481bdddb995c9cc81e595d60621b60648201526084016107c3565b600084815260076020908152604080832054808452600490925290912060030154610100900460ff1615611f015760405162461bcd60e51b81526004016107c390612f79565b6000858152600760209081526040918290205460095560088054835181840281018401909452808452611f69939283018282801561082f576020028201919060005260206000209081548152602001906001019080831161081b575050505050600954612240565b611f855760405162461bcd60e51b81526004016107c390612df4565b6009546000908152600460205260409020611f9f866112d7565b8015611fb15750611faf86610d8a565b155b156120a1576000600382015460ff166004811115611fd157611fd1612cc7565b03611fef578054611fea906001600160a01b0316610ffd565b6120a1565b6001600382015460ff16600481111561200a5761200a612cc7565b03612023578054611fea906001600160a01b031661089d565b6002600382015460ff16600481111561203e5761203e612cc7565b0361205057611fea8160020154611cfb565b60038082015460ff16600481111561206a5761206a612cc7565b0361207857611fea866126b4565b6004600382015460ff16600481111561209357612093612cc7565b036120a1576120a18661283b565b505050505050565b600a5460009033906001600160a01b031681146120d85760405162461bcd60e51b81526004016107c390612da9565b600080856001600160a01b03168560405160006040518083038185875af1925050503d8060008114612126576040519150601f19603f3d011682016040523d82523d6000602084013e61212b565b606091505b50915091508161217d5760405162461bcd60e51b815260206004820152601860248201527f5769746864726177207472616e73666572206661696c6564000000000000000060448201526064016107c3565b856001600160a01b03167f884edad9ce6fa2440d8a54cc123490eb96d2768479d49ff9c7366125a9424364866040516121b891815260200190565b60405180910390a250949350505050565b600a5433906001600160a01b031681146121f55760405162461bcd60e51b81526004016107c390612da9565b600a80546001600160a01b0319166001600160a01b0384169081179091556040517fc5daac221609fc28d95cb719ad6b3113c8112ce96e9dc6cda5c7530ef20e36a390600090a25050565b6000805b8351811015612289578284828151811061226057612260612ea0565b602002602001015103612277576001915050610897565b8061228181612eb6565b915050612244565b5060009392505050565b6000856001600160a01b0381166122e25760405162461bcd60e51b8152602060048201526013602482015272151a19481859191c995cdcc81a5cc81b9d5b1b606a1b60448201526064016107c3565b60055491508260076000848152602001908152602001600020819055506040518060a00160405280886001600160a01b03168152602001876001600160a01b0316815260200186815260200185600481111561234057612340612cc7565b8152600060209182018190528581526004808352604091829020845181546001600160a01b039182166001600160a01b031991821617835594860151600183810180549290931691909616179055918401516002830155606084015160038301805493949193909260ff19909116919084908111156123c1576123c1612cc7565b021790555060808201518160030160016101000a81548160ff0219169083151502179055509050506001600560008282546123fc9190612ee5565b9091555091979650505050505050565b7ff0c57e16840df040f15088dc2f81fe391c3923bec73e23a9662efc9c229c6a008054600160401b810460ff1615906001600160401b03166000811580156124515750825b90506000826001600160401b0316600114801561246d5750303b155b90508115801561247b575080155b156124995760405163f92ee8a960e01b815260040160405180910390fd5b845467ffffffffffffffff1916600117855583156124c357845460ff60401b1916600160401b1785555b8651868181111580156124d557508015155b80156124e057508115155b6124fc5760405162461bcd60e51b81526004016107c390612ef8565b60005b8951811015612656576000808b838151811061251d5761251d612ea0565b6020908102919091018101516001600160a01b031682528101919091526040016000205460ff1615801561257d575060006001600160a01b03168a828151811061256957612569612ea0565b60200260200101516001600160a01b031614155b6125fb5760405162461bcd60e51b815260206004820152604360248201527f416464726573732073686f756c646e277420626520616c7265616479206c697360448201527f746564206173206f776e65722c206e6f722073686f756c64206974206265204e60648201526215531360ea1b608482015260a4016107c3565b60016000808c848151811061261257612612612ea0565b6020908102919091018101516001600160a01b03168252810191909152604001600020805460ff19169115159190911790558061264e81612eb6565b9150506124ff565b50885161266a9060019060208c0190612a3e565b50505060028690558315610ff457845460ff60401b19168555604051600181527fc7f505b2f371ae2175ee4913f4499e1f2633a7b5936321eed1cdaeb6115181d290602001610feb565b600081815260076020908152604080832054600981905583526004909152902060028101544710156127285760405162461bcd60e51b815260206004820181905260248201527f496e73756666696369656e742062616c616e636520696e20636f6e747261637460448201526064016107c3565b805460028201546040516000926001600160a01b031691908381818185875af1925050503d8060008114612778576040519150601f19603f3d011682016040523d82523d6000602084013e61277d565b606091505b50509050806127ce5760405162461bcd60e51b815260206004820152601b60248201527f4661696c656420746f2073656e64204e617469766520746f6b656e000000000060448201526064016107c3565b60095460009081526004602052604090819020600301805461ff001916610100179055600283015490517f5550ebcd63fe55cfee39f1d5d38991f3a21dd4699ab7c41e14112310fd0f87789161282e918690918252602082015260400190565b60405180910390a1505050565b6000818152600760209081526040808320546009819055835260049182905280832060035460018201549251636eb1769f60e11b81526001600160a01b039384169481019490945230602485015290939291169063dd62ed3e90604401602060405180830381865afa1580156128b5573d6000803e3d6000fd5b505050506040513d601f19601f820116820180604052508101906128d99190612fe2565b905081600201548110156129555760405162461bcd60e51b815260206004820152603760248201527f436f6e7472616374206973206e6f7420616c6c6f77656420627920757365722060448201527f746f207472616e73666572207375636820616d6f756e7400000000000000000060648201526084016107c3565b6003546001830154835460028501546040516323b872dd60e01b81526001600160a01b039384166004820152918316602483015260448201529116906323b872dd906064016020604051808303816000875af11580156129b9573d6000803e3d6000fd5b505050506040513d601f19601f820116820180604052508101906129dd9190612ffb565b5060095460009081526004602052604090819020600301805461ff001916610100179055600283015490517f4645e2dffcb6b5be91555757773b76bbf2e4612da04db6995aef42facf6c2b529161282e918690918252602082015260400190565b828054828255906000526020600020908101928215612a93579160200282015b82811115612a9357825182546001600160a01b0319166001600160a01b03909116178255602090920191600190910190612a5e565b506107d09291505b808211156107d05760008155600101612a9b565b600060208284031215612ac157600080fd5b5035919050565b80356001600160a01b0381168114612adf57600080fd5b919050565b60008060408385031215612af757600080fd5b82359150612b0760208401612ac8565b90509250929050565b600060208284031215612b2257600080fd5b612b2b82612ac8565b9392505050565b600080600060608486031215612b4757600080fd5b612b5084612ac8565b925060208401359150604084013560058110612b6b57600080fd5b809150509250925092565b634e487b7160e01b600052604160045260246000fd5b600082601f830112612b9d57600080fd5b813560206001600160401b0380831115612bb957612bb9612b76565b8260051b604051601f19603f83011681018181108482111715612bde57612bde612b76565b604052938452858101830193838101925087851115612bfc57600080fd5b83870191505b84821015612c2257612c1382612ac8565b83529183019190830190612c02565b979650505050505050565b600080600060608486031215612c4257600080fd5b612c4b84612ac8565b925060208401356001600160401b03811115612c6657600080fd5b612c7286828701612b8c565b925050604084013590509250925092565b60008060408385031215612c9657600080fd5b82356001600160401b03811115612cac57600080fd5b612cb885828601612b8c565b95602094909401359450505050565b634e487b7160e01b600052602160045260246000fd5b6001600160a01b038681168252851660208201526040810184905260a0810160058410612d1a57634e487b7160e01b600052602160045260246000fd5b83606083015282151560808301529695505050505050565b6020808252825182820181905260009190848201906040850190845b81811015612d735783516001600160a01b031683529284019291840191600101612d4e565b50909695505050505050565b60008060408385031215612d9257600080fd5b612d9b83612ac8565b946020939093013593505050565b6020808252602b908201527f54686973206164647265737320646f65736e27742068617665204d617374657260408201526a2070726976696c6567657360a81b606082015260800190565b6020808252602c908201527f4e6f207472616e73616374696f6e20666f756e64206173736f6369617465642060408201526b1dda5d1a081d1a1a5cc8125960a21b606082015260800190565b6020808252601c908201527f546869732061646472657373206973206e6f7420616e206f776e657200000000604082015260600190565b634e487b7160e01b600052601160045260246000fd5b8181038181111561089757610897612e77565b634e487b7160e01b600052603260045260246000fd5b600060018201612ec857612ec8612e77565b5060010190565b634e487b7160e01b600052603160045260246000fd5b8082018082111561089757610897612e77565b60208082526016908201527510dbdb991a5d1a5bdb9cc8185c99481b9bdd081b595d60521b604082015260600190565b60208082526031908201527f5468657265206973206e6f207472616e73616374696f6e206173736f636961746040820152701959081d1bc81d1a1a5cc81a185cda1259607a1b606082015260800190565b60208082526043908201527f546865207472616e73616374696f6e206173736f63696174656420776974682060408201527f7468697320686173682068617320616c7265616479206265656e2065786563756060820152621d195960ea1b608082015260a00190565b600060208284031215612ff457600080fd5b5051919050565b60006020828403121561300d57600080fd5b81518015158114612b2b57600080fdfea2646970667358221220ea1983e022076be5279bdaba7e1e11b12dd13043262f2e6c8ed1ca3d9514ecf864736f6c63430008140033","opcodes":"PUSH1 0x80 PUSH1 0x40 MSTORE CALLVALUE DUP1 ISZERO PUSH2 0x10 JUMPI PUSH1 0x0 DUP1 REVERT JUMPDEST POP PUSH2 0x3053 DUP1 PUSH2 0x20 PUSH1 0x0 CODECOPY PUSH1 0x0 RETURN INVALID PUSH1 0x80 PUSH1 0x40 MSTORE PUSH1 0x4 CALLDATASIZE LT PUSH2 0x21E JUMPI PUSH1 0x0 CALLDATALOAD PUSH1 0xE0 SHR DUP1 PUSH4 0x82B2E257 GT PUSH2 0x123 JUMPI DUP1 PUSH4 0xC26C12EB GT PUSH2 0xAB JUMPI DUP1 PUSH4 0xEE22610B GT PUSH2 0x6F JUMPI DUP1 PUSH4 0xEE22610B EQ PUSH2 0x68A JUMPI DUP1 PUSH4 0xEF18374A EQ PUSH2 0x6AA JUMPI DUP1 PUSH4 0xF3FEF3A3 EQ PUSH2 0x6BF JUMPI DUP1 PUSH4 0xF4FF78BF EQ PUSH2 0x6DF JUMPI DUP1 PUSH4 0xF6BDC030 EQ PUSH2 0x6FF JUMPI PUSH2 0x22D JUMP JUMPDEST DUP1 PUSH4 0xC26C12EB EQ PUSH2 0x61F JUMPI DUP1 PUSH4 0xC59BCEE8 EQ PUSH2 0x634 JUMPI DUP1 PUSH4 0xC85C41E9 EQ PUSH2 0x64A JUMPI DUP1 PUSH4 0xD0E30DB0 EQ PUSH2 0x22D JUMPI DUP1 PUSH4 0xD2CD96BD EQ PUSH2 0x66A JUMPI PUSH2 0x22D JUMP JUMPDEST DUP1 PUSH4 0xAF05445A GT PUSH2 0xF2 JUMPI DUP1 PUSH4 0xAF05445A EQ PUSH2 0x589 JUMPI DUP1 PUSH4 0xB23D4854 EQ PUSH2 0x5A9 JUMPI DUP1 PUSH4 0xB5DC40C3 EQ PUSH2 0x5C9 JUMPI DUP1 PUSH4 0xB77BF600 EQ PUSH2 0x5E9 JUMPI DUP1 PUSH4 0xC01A8C84 EQ PUSH2 0x5FF JUMPI PUSH2 0x22D JUMP JUMPDEST DUP1 PUSH4 0x82B2E257 EQ PUSH2 0x4F9 JUMPI DUP1 PUSH4 0x8B51D13F EQ PUSH2 0x50E JUMPI DUP1 PUSH4 0x8C85CD85 EQ PUSH2 0x52E JUMPI DUP1 PUSH4 0xA0E67E2B EQ PUSH2 0x567 JUMPI PUSH2 0x22D JUMP JUMPDEST DUP1 PUSH4 0x3C680462 GT PUSH2 0x1A6 JUMPI DUP1 PUSH4 0x60B5BB3F GT PUSH2 0x175 JUMPI DUP1 PUSH4 0x60B5BB3F EQ PUSH2 0x40D JUMPI DUP1 PUSH4 0x642F2EAF EQ PUSH2 0x42D JUMPI DUP1 PUSH4 0x7065CB48 EQ PUSH2 0x499 JUMPI DUP1 PUSH4 0x735631AD EQ PUSH2 0x4B9 JUMPI DUP1 PUSH4 0x784547A7 EQ PUSH2 0x4D9 JUMPI PUSH2 0x22D JUMP JUMPDEST DUP1 PUSH4 0x3C680462 EQ PUSH2 0x398 JUMPI DUP1 PUSH4 0x3EDE50C6 EQ PUSH2 0x3B8 JUMPI DUP1 PUSH4 0x5A99719E EQ PUSH2 0x3D8 JUMPI DUP1 PUSH4 0x5CCC561E EQ PUSH2 0x3ED JUMPI PUSH2 0x22D JUMP JUMPDEST DUP1 PUSH4 0x1703A018 GT PUSH2 0x1ED JUMPI DUP1 PUSH4 0x1703A018 EQ PUSH2 0x2FD JUMPI DUP1 PUSH4 0x173825D9 EQ PUSH2 0x313 JUMPI DUP1 PUSH4 0x29CD11B2 EQ PUSH2 0x333 JUMPI DUP1 PUSH4 0x2E7700F0 EQ PUSH2 0x353 JUMPI DUP1 PUSH4 0x2F54BF6E EQ PUSH2 0x368 JUMPI PUSH2 0x22D JUMP JUMPDEST DUP1 PUSH4 0x25E7C27 EQ PUSH2 0x235 JUMPI DUP1 PUSH4 0xC4ECAB4 EQ PUSH2 0x272 JUMPI DUP1 PUSH4 0x12065FE0 EQ PUSH2 0x2B8 JUMPI DUP1 PUSH4 0x144DEE38 EQ PUSH2 0x2CD JUMPI PUSH2 0x22D JUMP JUMPDEST CALLDATASIZE PUSH2 0x22D JUMPI PUSH2 0x22B PUSH2 0x72C JUMP JUMPDEST STOP JUMPDEST PUSH2 0x22B PUSH2 0x72C JUMP JUMPDEST CALLVALUE DUP1 ISZERO PUSH2 0x241 JUMPI PUSH1 0x0 DUP1 REVERT JUMPDEST POP PUSH2 0x255 PUSH2 0x250 CALLDATASIZE PUSH1 0x4 PUSH2 0x2AAF JUMP JUMPDEST PUSH2 0x76A JUMP JUMPDEST PUSH1 0x40 MLOAD PUSH1 0x1 PUSH1 0x1 PUSH1 0xA0 SHL SUB SWAP1 SWAP2 AND DUP2 MSTORE PUSH1 0x20 ADD JUMPDEST PUSH1 0x40 MLOAD DUP1 SWAP2 SUB SWAP1 RETURN JUMPDEST CALLVALUE DUP1 ISZERO PUSH2 0x27E JUMPI PUSH1 0x0 DUP1 REVERT JUMPDEST POP PUSH2 0x2AA PUSH2 0x28D CALLDATASIZE PUSH1 0x4 PUSH2 0x2AE4 JUMP JUMPDEST PUSH1 0x6 PUSH1 0x20 SWAP1 DUP2 MSTORE PUSH1 0x0 SWAP3 DUP4 MSTORE PUSH1 0x40 DUP1 DUP5 KECCAK256 SWAP1 SWAP2 MSTORE SWAP1 DUP3 MSTORE SWAP1 KECCAK256 SLOAD DUP2 JUMP JUMPDEST PUSH1 0x40 MLOAD SWAP1 DUP2 MSTORE PUSH1 0x20 ADD PUSH2 0x269 JUMP JUMPDEST CALLVALUE DUP1 ISZERO PUSH2 0x2C4 JUMPI PUSH1 0x0 DUP1 REVERT JUMPDEST POP PUSH2 0x2AA PUSH2 0x794 JUMP JUMPDEST CALLVALUE DUP1 ISZERO PUSH2 0x2D9 JUMPI PUSH1 0x0 DUP1 REVERT JUMPDEST POP PUSH2 0x2ED PUSH2 0x2E8 CALLDATASIZE PUSH1 0x4 PUSH2 0x2AE4 JUMP JUMPDEST PUSH2 0x7D4 JUMP JUMPDEST PUSH1 0x40 MLOAD SWAP1 ISZERO ISZERO DUP2 MSTORE PUSH1 0x20 ADD PUSH2 0x269 JUMP JUMPDEST CALLVALUE DUP1 ISZERO PUSH2 0x309 JUMPI PUSH1 0x0 DUP1 REVERT JUMPDEST POP PUSH2 0x2AA PUSH1 0x2 SLOAD DUP2 JUMP JUMPDEST CALLVALUE DUP1 ISZERO PUSH2 0x31F JUMPI PUSH1 0x0 DUP1 REVERT JUMPDEST POP PUSH2 0x22B PUSH2 0x32E CALLDATASIZE PUSH1 0x4 PUSH2 0x2B10 JUMP JUMPDEST PUSH2 0x89D JUMP JUMPDEST CALLVALUE DUP1 ISZERO PUSH2 0x33F JUMPI PUSH1 0x0 DUP1 REVERT JUMPDEST POP PUSH2 0x2AA PUSH2 0x34E CALLDATASIZE PUSH1 0x4 PUSH2 0x2AAF JUMP JUMPDEST PUSH2 0xAEB JUMP JUMPDEST CALLVALUE DUP1 ISZERO PUSH2 0x35F JUMPI PUSH1 0x0 DUP1 REVERT JUMPDEST POP PUSH1 0x5 SLOAD PUSH2 0x2AA JUMP JUMPDEST CALLVALUE DUP1 ISZERO PUSH2 0x374 JUMPI PUSH1 0x0 DUP1 REVERT JUMPDEST POP PUSH2 0x2ED PUSH2 0x383 CALLDATASIZE PUSH1 0x4 PUSH2 0x2B10 JUMP JUMPDEST PUSH1 0x0 PUSH1 0x20 DUP2 SWAP1 MSTORE SWAP1 DUP2 MSTORE PUSH1 0x40 SWAP1 KECCAK256 SLOAD PUSH1 0xFF AND DUP2 JUMP JUMPDEST CALLVALUE DUP1 ISZERO PUSH2 0x3A4 JUMPI PUSH1 0x0 DUP1 REVERT JUMPDEST POP PUSH2 0x2AA PUSH2 0x3B3 CALLDATASIZE PUSH1 0x4 PUSH2 0x2B32 JUMP JUMPDEST PUSH2 0xB0C JUMP JUMPDEST CALLVALUE DUP1 ISZERO PUSH2 0x3C4 JUMPI PUSH1 0x0 DUP1 REVERT JUMPDEST POP PUSH2 0x22B PUSH2 0x3D3 CALLDATASIZE PUSH1 0x4 PUSH2 0x2C2D JUMP JUMPDEST PUSH2 0xC1E JUMP JUMPDEST CALLVALUE DUP1 ISZERO PUSH2 0x3E4 JUMPI PUSH1 0x0 DUP1 REVERT JUMPDEST POP PUSH2 0x255 PUSH2 0xD4A JUMP JUMPDEST CALLVALUE DUP1 ISZERO PUSH2 0x3F9 JUMPI PUSH1 0x0 DUP1 REVERT JUMPDEST POP PUSH2 0x2ED PUSH2 0x408 CALLDATASIZE PUSH1 0x4 PUSH2 0x2AAF JUMP JUMPDEST PUSH2 0xD8A JUMP JUMPDEST CALLVALUE DUP1 ISZERO PUSH2 0x419 JUMPI PUSH1 0x0 DUP1 REVERT JUMPDEST POP PUSH2 0x22B PUSH2 0x428 CALLDATASIZE PUSH1 0x4 PUSH2 0x2C83 JUMP JUMPDEST PUSH2 0xEAC JUMP JUMPDEST CALLVALUE DUP1 ISZERO PUSH2 0x439 JUMPI PUSH1 0x0 DUP1 REVERT JUMPDEST POP PUSH2 0x488 PUSH2 0x448 CALLDATASIZE PUSH1 0x4 PUSH2 0x2AAF JUMP JUMPDEST PUSH1 0x4 PUSH1 0x20 MSTORE PUSH1 0x0 SWAP1 DUP2 MSTORE PUSH1 0x40 SWAP1 KECCAK256 DUP1 SLOAD PUSH1 0x1 DUP3 ADD SLOAD PUSH1 0x2 DUP4 ADD SLOAD PUSH1 0x3 SWAP1 SWAP4 ADD SLOAD PUSH1 0x1 PUSH1 0x1 PUSH1 0xA0 SHL SUB SWAP3 DUP4 AND SWAP4 SWAP2 SWAP1 SWAP3 AND SWAP2 PUSH1 0xFF DUP1 DUP3 AND SWAP2 PUSH2 0x100 SWAP1 DIV AND DUP6 JUMP JUMPDEST PUSH1 0x40 MLOAD PUSH2 0x269 SWAP6 SWAP5 SWAP4 SWAP3 SWAP2 SWAP1 PUSH2 0x2CDD JUMP JUMPDEST CALLVALUE DUP1 ISZERO PUSH2 0x4A5 JUMPI PUSH1 0x0 DUP1 REVERT JUMPDEST POP PUSH2 0x22B PUSH2 0x4B4 CALLDATASIZE PUSH1 0x4 PUSH2 0x2B10 JUMP JUMPDEST PUSH2 0xFFD JUMP JUMPDEST CALLVALUE DUP1 ISZERO PUSH2 0x4C5 JUMPI PUSH1 0x0 DUP1 REVERT JUMPDEST POP PUSH2 0x22B PUSH2 0x4D4 CALLDATASIZE PUSH1 0x4 PUSH2 0x2AAF JUMP JUMPDEST PUSH2 0x11BA JUMP JUMPDEST CALLVALUE DUP1 ISZERO PUSH2 0x4E5 JUMPI PUSH1 0x0 DUP1 REVERT JUMPDEST POP PUSH2 0x2ED PUSH2 0x4F4 CALLDATASIZE PUSH1 0x4 PUSH2 0x2AAF JUMP JUMPDEST PUSH2 0x12D7 JUMP JUMPDEST CALLVALUE DUP1 ISZERO PUSH2 0x505 JUMPI PUSH1 0x0 DUP1 REVERT JUMPDEST POP PUSH2 0x2AA PUSH2 0x13F2 JUMP JUMPDEST CALLVALUE DUP1 ISZERO PUSH2 0x51A JUMPI PUSH1 0x0 DUP1 REVERT JUMPDEST POP PUSH2 0x2AA PUSH2 0x529 CALLDATASIZE PUSH1 0x4 PUSH2 0x2AAF JUMP JUMPDEST PUSH2 0x146A JUMP JUMPDEST CALLVALUE DUP1 ISZERO PUSH2 0x53A JUMPI PUSH1 0x0 DUP1 REVERT JUMPDEST POP PUSH2 0x2ED PUSH2 0x549 CALLDATASIZE PUSH1 0x4 PUSH2 0x2B10 JUMP JUMPDEST PUSH1 0x1 PUSH1 0x1 PUSH1 0xA0 SHL SUB AND PUSH1 0x0 SWAP1 DUP2 MSTORE PUSH1 0x20 DUP2 SWAP1 MSTORE PUSH1 0x40 SWAP1 KECCAK256 SLOAD PUSH1 0xFF AND SWAP1 JUMP JUMPDEST CALLVALUE DUP1 ISZERO PUSH2 0x573 JUMPI PUSH1 0x0 DUP1 REVERT JUMPDEST POP PUSH2 0x57C PUSH2 0x1575 JUMP JUMPDEST PUSH1 0x40 MLOAD PUSH2 0x269 SWAP2 SWAP1 PUSH2 0x2D32 JUMP JUMPDEST CALLVALUE DUP1 ISZERO PUSH2 0x595 JUMPI PUSH1 0x0 DUP1 REVERT JUMPDEST POP PUSH2 0x57C PUSH2 0x5A4 CALLDATASIZE PUSH1 0x4 PUSH2 0x2AAF JUMP JUMPDEST PUSH2 0x15D7 JUMP JUMPDEST CALLVALUE DUP1 ISZERO PUSH2 0x5B5 JUMPI PUSH1 0x0 DUP1 REVERT JUMPDEST POP PUSH2 0x22B PUSH2 0x5C4 CALLDATASIZE PUSH1 0x4 PUSH2 0x2B10 JUMP JUMPDEST PUSH2 0x1838 JUMP JUMPDEST CALLVALUE DUP1 ISZERO PUSH2 0x5D5 JUMPI PUSH1 0x0 DUP1 REVERT JUMPDEST POP PUSH2 0x57C PUSH2 0x5E4 CALLDATASIZE PUSH1 0x4 PUSH2 0x2AAF JUMP JUMPDEST PUSH2 0x188A JUMP JUMPDEST CALLVALUE DUP1 ISZERO PUSH2 0x5F5 JUMPI PUSH1 0x0 DUP1 REVERT JUMPDEST POP PUSH2 0x2AA PUSH1 0x5 SLOAD DUP2 JUMP JUMPDEST CALLVALUE DUP1 ISZERO PUSH2 0x60B JUMPI PUSH1 0x0 DUP1 REVERT JUMPDEST POP PUSH2 0x22B PUSH2 0x61A CALLDATASIZE PUSH1 0x4 PUSH2 0x2AAF JUMP JUMPDEST PUSH2 0x1AE3 JUMP JUMPDEST CALLVALUE DUP1 ISZERO PUSH2 0x62B JUMPI PUSH1 0x0 DUP1 REVERT JUMPDEST POP PUSH1 0x2 SLOAD PUSH2 0x2AA JUMP JUMPDEST CALLVALUE DUP1 ISZERO PUSH2 0x640 JUMPI PUSH1 0x0 DUP1 REVERT JUMPDEST POP PUSH2 0x2AA PUSH1 0x9 SLOAD DUP2 JUMP JUMPDEST CALLVALUE DUP1 ISZERO PUSH2 0x656 JUMPI PUSH1 0x0 DUP1 REVERT JUMPDEST POP PUSH2 0x2AA PUSH2 0x665 CALLDATASIZE PUSH1 0x4 PUSH2 0x2AAF JUMP JUMPDEST PUSH2 0x1BF6 JUMP JUMPDEST CALLVALUE DUP1 ISZERO PUSH2 0x676 JUMPI PUSH1 0x0 DUP1 REVERT JUMPDEST POP PUSH2 0x22B PUSH2 0x685 CALLDATASIZE PUSH1 0x4 PUSH2 0x2AAF JUMP JUMPDEST PUSH2 0x1CFB JUMP JUMPDEST CALLVALUE DUP1 ISZERO PUSH2 0x696 JUMPI PUSH1 0x0 DUP1 REVERT JUMPDEST POP PUSH2 0x22B PUSH2 0x6A5 CALLDATASIZE PUSH1 0x4 PUSH2 0x2AAF JUMP JUMPDEST PUSH2 0x1DA2 JUMP JUMPDEST CALLVALUE DUP1 ISZERO PUSH2 0x6B6 JUMPI PUSH1 0x0 DUP1 REVERT JUMPDEST POP PUSH1 0x1 SLOAD PUSH2 0x2AA JUMP JUMPDEST CALLVALUE DUP1 ISZERO PUSH2 0x6CB JUMPI PUSH1 0x0 DUP1 REVERT JUMPDEST POP PUSH2 0x2ED PUSH2 0x6DA CALLDATASIZE PUSH1 0x4 PUSH2 0x2D7F JUMP JUMPDEST PUSH2 0x20A9 JUMP JUMPDEST CALLVALUE DUP1 ISZERO PUSH2 0x6EB JUMPI PUSH1 0x0 DUP1 REVERT JUMPDEST POP PUSH2 0x22B PUSH2 0x6FA CALLDATASIZE PUSH1 0x4 PUSH2 0x2B10 JUMP JUMPDEST PUSH2 0x21C9 JUMP JUMPDEST CALLVALUE DUP1 ISZERO PUSH2 0x70B JUMPI PUSH1 0x0 DUP1 REVERT JUMPDEST POP PUSH2 0x2AA PUSH2 0x71A CALLDATASIZE PUSH1 0x4 PUSH2 0x2AAF JUMP JUMPDEST PUSH1 0x7 PUSH1 0x20 MSTORE PUSH1 0x0 SWAP1 DUP2 MSTORE PUSH1 0x40 SWAP1 KECCAK256 SLOAD DUP2 JUMP JUMPDEST CALLVALUE ISZERO PUSH2 0x768 JUMPI PUSH1 0x40 MLOAD CALLVALUE DUP2 MSTORE CALLER SWAP1 PUSH32 0xE1FFFCC4923D04B559F4D29A8BFC6CDA04EB5B0D3C460751C2402C5C5CC9109C SWAP1 PUSH1 0x20 ADD PUSH1 0x40 MLOAD DUP1 SWAP2 SUB SWAP1 LOG2 JUMPDEST JUMP JUMPDEST PUSH1 0x1 DUP2 DUP2 SLOAD DUP2 LT PUSH2 0x77A JUMPI PUSH1 0x0 DUP1 REVERT JUMPDEST PUSH1 0x0 SWAP2 DUP3 MSTORE PUSH1 0x20 SWAP1 SWAP2 KECCAK256 ADD SLOAD PUSH1 0x1 PUSH1 0x1 PUSH1 0xA0 SHL SUB AND SWAP1 POP DUP2 JUMP JUMPDEST PUSH1 0xA SLOAD PUSH1 0x0 SWAP1 CALLER SWAP1 PUSH1 0x1 PUSH1 0x1 PUSH1 0xA0 SHL SUB AND DUP2 EQ PUSH2 0x7CC JUMPI PUSH1 0x40 MLOAD PUSH3 0x461BCD PUSH1 0xE5 SHL DUP2 MSTORE PUSH1 0x4 ADD PUSH2 0x7C3 SWAP1 PUSH2 0x2DA9 JUMP JUMPDEST PUSH1 0x40 MLOAD DUP1 SWAP2 SUB SWAP1 REVERT JUMPDEST SELFBALANCE SWAP2 POP JUMPDEST POP SWAP1 JUMP JUMPDEST PUSH1 0x0 DUP3 DUP2 MSTORE PUSH1 0x7 PUSH1 0x20 SWAP1 DUP2 MSTORE PUSH1 0x40 DUP1 DUP4 KECCAK256 SLOAD PUSH1 0x9 SSTORE PUSH1 0x8 DUP1 SLOAD DUP3 MLOAD DUP2 DUP6 MUL DUP2 ADD DUP6 ADD SWAP1 SWAP4 MSTORE DUP1 DUP4 MSTORE PUSH2 0x83C SWAP4 DUP4 ADD DUP3 DUP3 DUP1 ISZERO PUSH2 0x82F JUMPI PUSH1 0x20 MUL DUP3 ADD SWAP2 SWAP1 PUSH1 0x0 MSTORE PUSH1 0x20 PUSH1 0x0 KECCAK256 SWAP1 JUMPDEST DUP2 SLOAD DUP2 MSTORE PUSH1 0x20 ADD SWAP1 PUSH1 0x1 ADD SWAP1 DUP1 DUP4 GT PUSH2 0x81B JUMPI JUMPDEST POP POP POP POP POP PUSH1 0x9 SLOAD PUSH2 0x2240 JUMP JUMPDEST PUSH2 0x858 JUMPI PUSH1 0x40 MLOAD PUSH3 0x461BCD PUSH1 0xE5 SHL DUP2 MSTORE PUSH1 0x4 ADD PUSH2 0x7C3 SWAP1 PUSH2 0x2DF4 JUMP JUMPDEST PUSH1 0x9 SLOAD PUSH1 0x0 SWAP1 DUP2 MSTORE PUSH1 0x6 PUSH1 0x20 SWAP1 DUP2 MSTORE PUSH1 0x40 DUP1 DUP4 KECCAK256 PUSH1 0x1 PUSH1 0x1 PUSH1 0xA0 SHL SUB DUP7 AND DUP5 MSTORE SWAP1 SWAP2 MSTORE SWAP1 KECCAK256 SLOAD PUSH1 0x1 DUP2 SWAP1 SUB PUSH2 0x891 JUMPI PUSH1 0x1 SWAP2 POP POP PUSH2 0x897 JUMP JUMPDEST PUSH1 0x0 SWAP2 POP POP JUMPDEST SWAP3 SWAP2 POP POP JUMP JUMPDEST CALLER PUSH1 0x0 DUP2 DUP2 MSTORE PUSH1 0x20 DUP2 SWAP1 MSTORE PUSH1 0x40 SWAP1 KECCAK256 SLOAD PUSH1 0xFF AND PUSH2 0x8CC JUMPI PUSH1 0x40 MLOAD PUSH3 0x461BCD PUSH1 0xE5 SHL DUP2 MSTORE PUSH1 0x4 ADD PUSH2 0x7C3 SWAP1 PUSH2 0x2E40 JUMP JUMPDEST PUSH1 0x1 PUSH1 0x1 PUSH1 0xA0 SHL SUB DUP3 AND PUSH1 0x0 SWAP1 DUP2 MSTORE PUSH1 0x20 DUP2 SWAP1 MSTORE PUSH1 0x40 SWAP1 KECCAK256 SLOAD DUP3 SWAP1 PUSH1 0xFF AND PUSH2 0x906 JUMPI PUSH1 0x40 MLOAD PUSH3 0x461BCD PUSH1 0xE5 SHL DUP2 MSTORE PUSH1 0x4 ADD PUSH2 0x7C3 SWAP1 PUSH2 0x2E40 JUMP JUMPDEST PUSH1 0x1 DUP1 SLOAD GT PUSH2 0x957 JUMPI PUSH1 0x40 MLOAD PUSH3 0x461BCD PUSH1 0xE5 SHL DUP2 MSTORE PUSH1 0x20 PUSH1 0x4 DUP3 ADD MSTORE PUSH1 0x17 PUSH1 0x24 DUP3 ADD MSTORE PUSH32 0x43616E27742072656D6F7665206C617374206F776E6572000000000000000000 PUSH1 0x44 DUP3 ADD MSTORE PUSH1 0x64 ADD PUSH2 0x7C3 JUMP JUMPDEST PUSH1 0x1 DUP1 SLOAD PUSH2 0x965 SWAP2 SWAP1 PUSH2 0x2E8D JUMP JUMPDEST PUSH1 0x2 SLOAD GT ISZERO PUSH2 0x97F JUMPI PUSH1 0x1 DUP1 SLOAD PUSH2 0x97F SWAP2 PUSH2 0x685 SWAP2 PUSH2 0x2E8D JUMP JUMPDEST PUSH1 0x0 JUMPDEST PUSH1 0x1 DUP1 SLOAD PUSH2 0x990 SWAP2 SWAP1 PUSH2 0x2E8D JUMP JUMPDEST DUP2 LT ISZERO PUSH2 0xA5E JUMPI DUP4 PUSH1 0x1 PUSH1 0x1 PUSH1 0xA0 SHL SUB AND PUSH1 0x1 DUP3 DUP2 SLOAD DUP2 LT PUSH2 0x9B4 JUMPI PUSH2 0x9B4 PUSH2 0x2EA0 JUMP JUMPDEST PUSH1 0x0 SWAP2 DUP3 MSTORE PUSH1 0x20 SWAP1 SWAP2 KECCAK256 ADD SLOAD PUSH1 0x1 PUSH1 0x1 PUSH1 0xA0 SHL SUB AND SUB PUSH2 0xA4C JUMPI PUSH1 0x1 DUP1 SLOAD PUSH2 0x9DD SWAP1 DUP3 SWAP1 PUSH2 0x2E8D JUMP JUMPDEST DUP2 SLOAD DUP2 LT PUSH2 0x9ED JUMPI PUSH2 0x9ED PUSH2 0x2EA0 JUMP JUMPDEST PUSH1 0x0 SWAP2 DUP3 MSTORE PUSH1 0x20 SWAP1 SWAP2 KECCAK256 ADD SLOAD PUSH1 0x1 DUP1 SLOAD PUSH1 0x1 PUSH1 0x1 PUSH1 0xA0 SHL SUB SWAP1 SWAP3 AND SWAP2 DUP4 SWAP1 DUP2 LT PUSH2 0xA19 JUMPI PUSH2 0xA19 PUSH2 0x2EA0 JUMP JUMPDEST SWAP1 PUSH1 0x0 MSTORE PUSH1 0x20 PUSH1 0x0 KECCAK256 ADD PUSH1 0x0 PUSH2 0x100 EXP DUP2 SLOAD DUP2 PUSH1 0x1 PUSH1 0x1 PUSH1 0xA0 SHL SUB MUL NOT AND SWAP1 DUP4 PUSH1 0x1 PUSH1 0x1 PUSH1 0xA0 SHL SUB AND MUL OR SWAP1 SSTORE POP PUSH2 0xA5E JUMP JUMPDEST DUP1 PUSH2 0xA56 DUP2 PUSH2 0x2EB6 JUMP JUMPDEST SWAP2 POP POP PUSH2 0x982 JUMP JUMPDEST POP PUSH1 0x1 PUSH1 0x1 PUSH1 0xA0 SHL SUB DUP4 AND PUSH1 0x0 SWAP1 DUP2 MSTORE PUSH1 0x20 DUP2 SWAP1 MSTORE PUSH1 0x40 SWAP1 KECCAK256 DUP1 SLOAD PUSH1 0xFF NOT AND SWAP1 SSTORE PUSH1 0x1 DUP1 SLOAD DUP1 PUSH2 0xA90 JUMPI PUSH2 0xA90 PUSH2 0x2ECF JUMP JUMPDEST PUSH1 0x0 DUP3 DUP2 MSTORE PUSH1 0x20 DUP2 KECCAK256 DUP3 ADD PUSH1 0x0 NOT SWAP1 DUP2 ADD DUP1 SLOAD PUSH1 0x1 PUSH1 0x1 PUSH1 0xA0 SHL SUB NOT AND SWAP1 SSTORE SWAP1 SWAP2 ADD SWAP1 SWAP2 SSTORE PUSH1 0x40 MLOAD PUSH1 0x1 PUSH1 0x1 PUSH1 0xA0 SHL SUB DUP6 AND SWAP2 PUSH32 0x8001553A916EF2F495D26A907CC54D96ED840D7BDA71E73194BF5A9DF7A76B90 SWAP2 LOG2 POP POP POP JUMP JUMPDEST PUSH1 0x8 DUP2 DUP2 SLOAD DUP2 LT PUSH2 0xAFB JUMPI PUSH1 0x0 DUP1 REVERT JUMPDEST PUSH1 0x0 SWAP2 DUP3 MSTORE PUSH1 0x20 SWAP1 SWAP2 KECCAK256 ADD SLOAD SWAP1 POP DUP2 JUMP JUMPDEST CALLER PUSH1 0x0 DUP2 DUP2 MSTORE PUSH1 0x20 DUP2 SWAP1 MSTORE PUSH1 0x40 DUP2 KECCAK256 SLOAD SWAP1 SWAP2 SWAP1 PUSH1 0xFF AND PUSH2 0xB3E JUMPI PUSH1 0x40 MLOAD PUSH3 0x461BCD PUSH1 0xE5 SHL DUP2 MSTORE PUSH1 0x4 ADD PUSH2 0x7C3 SWAP1 PUSH2 0x2E40 JUMP JUMPDEST PUSH1 0x40 DUP1 MLOAD CALLER PUSH1 0x60 SHL PUSH12 0xFFFFFFFFFFFFFFFFFFFFFFFF NOT AND PUSH1 0x20 DUP1 DUP4 ADD SWAP2 SWAP1 SWAP2 MSTORE PUSH1 0x34 DUP3 ADD DUP8 SWAP1 MSTORE TIMESTAMP PUSH1 0x54 DUP1 DUP5 ADD SWAP2 SWAP1 SWAP2 MSTORE DUP4 MLOAD DUP1 DUP5 SUB SWAP1 SWAP2 ADD DUP2 MSTORE PUSH1 0x74 SWAP1 SWAP3 ADD SWAP1 SWAP3 MSTORE DUP1 MLOAD SWAP2 ADD KECCAK256 PUSH1 0x9 DUP2 SWAP1 SSTORE PUSH1 0x8 DUP1 SLOAD PUSH1 0x1 DUP2 ADD DUP3 SSTORE PUSH1 0x0 SWAP2 SWAP1 SWAP2 MSTORE PUSH32 0xF3F7A9FE364FAAB93B216DA50A3214154F22A0A2B415B23A84C8169E8B636EE3 ADD DUP2 SWAP1 SSTORE PUSH2 0xBD1 SWAP1 DUP7 SWAP1 CALLER SWAP1 DUP8 SWAP1 DUP8 SWAP1 PUSH2 0x2293 JUMP JUMPDEST SWAP2 POP DUP5 PUSH1 0x1 PUSH1 0x1 PUSH1 0xA0 SHL SUB AND PUSH32 0x7353684080CB3AF2A27A8F7A2EA1D406494BD8E78DADCFAD3519DA376DA14BFB DUP4 PUSH1 0x40 MLOAD PUSH2 0xC0E SWAP2 DUP2 MSTORE PUSH1 0x20 ADD SWAP1 JUMP JUMPDEST PUSH1 0x40 MLOAD DUP1 SWAP2 SUB SWAP1 LOG2 POP SWAP4 SWAP3 POP POP POP JUMP JUMPDEST PUSH32 0xF0C57E16840DF040F15088DC2F81FE391C3923BEC73E23A9662EFC9C229C6A00 DUP1 SLOAD PUSH1 0x1 PUSH1 0x40 SHL DUP2 DIV PUSH1 0xFF AND ISZERO SWAP1 PUSH1 0x1 PUSH1 0x1 PUSH1 0x40 SHL SUB AND PUSH1 0x0 DUP2 ISZERO DUP1 ISZERO PUSH2 0xC63 JUMPI POP DUP3 JUMPDEST SWAP1 POP PUSH1 0x0 DUP3 PUSH1 0x1 PUSH1 0x1 PUSH1 0x40 SHL SUB AND PUSH1 0x1 EQ DUP1 ISZERO PUSH2 0xC7F JUMPI POP ADDRESS EXTCODESIZE ISZERO JUMPDEST SWAP1 POP DUP2 ISZERO DUP1 ISZERO PUSH2 0xC8D JUMPI POP DUP1 ISZERO JUMPDEST ISZERO PUSH2 0xCAB JUMPI PUSH1 0x40 MLOAD PUSH4 0xF92EE8A9 PUSH1 0xE0 SHL DUP2 MSTORE PUSH1 0x4 ADD PUSH1 0x40 MLOAD DUP1 SWAP2 SUB SWAP1 REVERT JUMPDEST DUP5 SLOAD PUSH8 0xFFFFFFFFFFFFFFFF NOT AND PUSH1 0x1 OR DUP6 SSTORE DUP4 ISZERO PUSH2 0xCD5 JUMPI DUP5 SLOAD PUSH1 0xFF PUSH1 0x40 SHL NOT AND PUSH1 0x1 PUSH1 0x40 SHL OR DUP6 SSTORE JUMPDEST PUSH2 0xCDF DUP8 DUP8 PUSH2 0xEAC JUMP JUMPDEST PUSH1 0xA DUP1 SLOAD PUSH1 0x1 PUSH1 0x1 PUSH1 0xA0 SHL SUB NOT AND PUSH1 0x1 PUSH1 0x1 PUSH1 0xA0 SHL SUB DUP11 AND OR SWAP1 SSTORE DUP4 ISZERO PUSH2 0xD40 JUMPI DUP5 SLOAD PUSH1 0xFF PUSH1 0x40 SHL NOT AND DUP6 SSTORE PUSH1 0x40 MLOAD PUSH1 0x1 DUP2 MSTORE PUSH32 0xC7F505B2F371AE2175EE4913F4499E1F2633A7B5936321EED1CDAEB6115181D2 SWAP1 PUSH1 0x20 ADD PUSH1 0x40 MLOAD DUP1 SWAP2 SUB SWAP1 LOG1 JUMPDEST POP POP POP POP POP POP POP POP JUMP JUMPDEST PUSH1 0xA SLOAD PUSH1 0x0 SWAP1 CALLER SWAP1 PUSH1 0x1 PUSH1 0x1 PUSH1 0xA0 SHL SUB AND DUP2 EQ PUSH2 0xD79 JUMPI PUSH1 0x40 MLOAD PUSH3 0x461BCD PUSH1 0xE5 SHL DUP2 MSTORE PUSH1 0x4 ADD PUSH2 0x7C3 SWAP1 PUSH2 0x2DA9 JUMP JUMPDEST POP POP PUSH1 0xA SLOAD PUSH1 0x1 PUSH1 0x1 PUSH1 0xA0 SHL SUB AND SWAP1 JUMP JUMPDEST PUSH1 0x0 DUP2 DUP2 MSTORE PUSH1 0x7 PUSH1 0x20 SWAP1 DUP2 MSTORE PUSH1 0x40 DUP1 DUP4 KECCAK256 SLOAD PUSH1 0x9 SSTORE PUSH1 0x8 DUP1 SLOAD DUP3 MLOAD DUP2 DUP6 MUL DUP2 ADD DUP6 ADD SWAP1 SWAP4 MSTORE DUP1 DUP4 MSTORE PUSH2 0xDF0 SWAP4 DUP4 ADD DUP3 DUP3 DUP1 ISZERO PUSH2 0x82F JUMPI PUSH1 0x20 MUL DUP3 ADD SWAP2 SWAP1 PUSH1 0x0 MSTORE PUSH1 0x20 PUSH1 0x0 KECCAK256 SWAP1 DUP2 SLOAD DUP2 MSTORE PUSH1 0x20 ADD SWAP1 PUSH1 0x1 ADD SWAP1 DUP1 DUP4 GT PUSH2 0x81B JUMPI POP POP POP POP POP PUSH1 0x9 SLOAD PUSH2 0x2240 JUMP JUMPDEST PUSH2 0xE0C JUMPI PUSH1 0x40 MLOAD PUSH3 0x461BCD PUSH1 0xE5 SHL DUP2 MSTORE PUSH1 0x4 ADD PUSH2 0x7C3 SWAP1 PUSH2 0x2DF4 JUMP JUMPDEST POP PUSH1 0x0 DUP1 DUP1 JUMPDEST PUSH1 0x1 SLOAD DUP2 LT ISZERO PUSH2 0xEA5 JUMPI PUSH1 0x6 PUSH1 0x0 PUSH1 0x9 SLOAD DUP2 MSTORE PUSH1 0x20 ADD SWAP1 DUP2 MSTORE PUSH1 0x20 ADD PUSH1 0x0 KECCAK256 PUSH1 0x0 PUSH1 0x1 DUP4 DUP2 SLOAD DUP2 LT PUSH2 0xE46 JUMPI PUSH2 0xE46 PUSH2 0x2EA0 JUMP JUMPDEST PUSH1 0x0 SWAP2 DUP3 MSTORE PUSH1 0x20 DUP1 DUP4 KECCAK256 SWAP1 SWAP2 ADD SLOAD PUSH1 0x1 PUSH1 0x1 PUSH1 0xA0 SHL SUB AND DUP4 MSTORE DUP3 ADD SWAP3 SWAP1 SWAP3 MSTORE PUSH1 0x40 ADD SWAP1 KECCAK256 SLOAD PUSH1 0x2 SUB PUSH2 0xE80 JUMPI PUSH2 0xE7D PUSH1 0x1 DUP4 PUSH2 0x2EE5 JUMP JUMPDEST SWAP2 POP JUMPDEST PUSH1 0x2 SLOAD DUP3 LT PUSH2 0xE93 JUMPI POP PUSH1 0x1 SWAP4 SWAP3 POP POP POP JUMP JUMPDEST DUP1 PUSH2 0xE9D DUP2 PUSH2 0x2EB6 JUMP JUMPDEST SWAP2 POP POP PUSH2 0xE12 JUMP JUMPDEST POP POP SWAP2 SWAP1 POP JUMP JUMPDEST PUSH32 0xF0C57E16840DF040F15088DC2F81FE391C3923BEC73E23A9662EFC9C229C6A00 DUP1 SLOAD PUSH1 0x1 PUSH1 0x40 SHL DUP2 DIV PUSH1 0xFF AND ISZERO SWAP1 PUSH1 0x1 PUSH1 0x1 PUSH1 0x40 SHL SUB AND PUSH1 0x0 DUP2 ISZERO DUP1 ISZERO PUSH2 0xEF1 JUMPI POP DUP3 JUMPDEST SWAP1 POP PUSH1 0x0 DUP3 PUSH1 0x1 PUSH1 0x1 PUSH1 0x40 SHL SUB AND PUSH1 0x1 EQ DUP1 ISZERO PUSH2 0xF0D JUMPI POP ADDRESS EXTCODESIZE ISZERO JUMPDEST SWAP1 POP DUP2 ISZERO DUP1 ISZERO PUSH2 0xF1B JUMPI POP DUP1 ISZERO JUMPDEST ISZERO PUSH2 0xF39 JUMPI PUSH1 0x40 MLOAD PUSH4 0xF92EE8A9 PUSH1 0xE0 SHL DUP2 MSTORE PUSH1 0x4 ADD PUSH1 0x40 MLOAD DUP1 SWAP2 SUB SWAP1 REVERT JUMPDEST DUP5 SLOAD PUSH8 0xFFFFFFFFFFFFFFFF NOT AND PUSH1 0x1 OR DUP6 SSTORE DUP4 ISZERO PUSH2 0xF63 JUMPI DUP5 SLOAD PUSH1 0xFF PUSH1 0x40 SHL NOT AND PUSH1 0x1 PUSH1 0x40 SHL OR DUP6 SSTORE JUMPDEST DUP7 MLOAD DUP7 DUP2 DUP2 GT ISZERO DUP1 ISZERO PUSH2 0xF75 JUMPI POP DUP1 ISZERO ISZERO JUMPDEST DUP1 ISZERO PUSH2 0xF80 JUMPI POP DUP2 ISZERO ISZERO JUMPDEST PUSH2 0xF9C JUMPI PUSH1 0x40 MLOAD PUSH3 0x461BCD PUSH1 0xE5 SHL DUP2 MSTORE PUSH1 0x4 ADD PUSH2 0x7C3 SWAP1 PUSH2 0x2EF8 JUMP JUMPDEST PUSH2 0xFA6 DUP10 DUP10 PUSH2 0x240C JUMP JUMPDEST POP POP PUSH1 0x0 PUSH1 0x5 SSTORE DUP4 ISZERO PUSH2 0xFF4 JUMPI DUP5 SLOAD PUSH1 0xFF PUSH1 0x40 SHL NOT AND DUP6 SSTORE PUSH1 0x40 MLOAD PUSH1 0x1 DUP2 MSTORE PUSH32 0xC7F505B2F371AE2175EE4913F4499E1F2633A7B5936321EED1CDAEB6115181D2 SWAP1 PUSH1 0x20 ADD JUMPDEST PUSH1 0x40 MLOAD DUP1 SWAP2 SUB SWAP1 LOG1 JUMPDEST POP POP POP POP POP POP POP JUMP JUMPDEST PUSH1 0x1 PUSH1 0x1 PUSH1 0xA0 SHL SUB DUP2 AND PUSH1 0x0 SWAP1 DUP2 MSTORE PUSH1 0x20 DUP2 SWAP1 MSTORE PUSH1 0x40 SWAP1 KECCAK256 SLOAD DUP2 SWAP1 PUSH1 0xFF AND ISZERO PUSH2 0x1068 JUMPI PUSH1 0x40 MLOAD PUSH3 0x461BCD PUSH1 0xE5 SHL DUP2 MSTORE PUSH1 0x20 PUSH1 0x4 DUP3 ADD DUP2 SWAP1 MSTORE PUSH1 0x24 DUP3 ADD MSTORE PUSH32 0x54686973206164647265737320697320616C726561647920616E206F776E6572 PUSH1 0x44 DUP3 ADD MSTORE PUSH1 0x64 ADD PUSH2 0x7C3 JUMP JUMPDEST CALLER PUSH1 0x0 DUP2 DUP2 MSTORE PUSH1 0x20 DUP2 SWAP1 MSTORE PUSH1 0x40 SWAP1 KECCAK256 SLOAD PUSH1 0xFF AND PUSH2 0x1097 JUMPI PUSH1 0x40 MLOAD PUSH3 0x461BCD PUSH1 0xE5 SHL DUP2 MSTORE PUSH1 0x4 ADD PUSH2 0x7C3 SWAP1 PUSH2 0x2E40 JUMP JUMPDEST DUP3 PUSH1 0x1 PUSH1 0x1 PUSH1 0xA0 SHL SUB DUP2 AND PUSH2 0x10E4 JUMPI PUSH1 0x40 MLOAD PUSH3 0x461BCD PUSH1 0xE5 SHL DUP2 MSTORE PUSH1 0x20 PUSH1 0x4 DUP3 ADD MSTORE PUSH1 0x13 PUSH1 0x24 DUP3 ADD MSTORE PUSH19 0x151A19481859191C995CDCC81A5CC81B9D5B1B PUSH1 0x6A SHL PUSH1 0x44 DUP3 ADD MSTORE PUSH1 0x64 ADD PUSH2 0x7C3 JUMP JUMPDEST PUSH1 0x1 DUP1 SLOAD PUSH2 0x10F1 SWAP2 PUSH2 0x2EE5 JUMP JUMPDEST PUSH1 0x2 SLOAD DUP2 DUP2 GT ISZERO DUP1 ISZERO PUSH2 0x1103 JUMPI POP DUP1 ISZERO ISZERO JUMPDEST DUP1 ISZERO PUSH2 0x110E JUMPI POP DUP2 ISZERO ISZERO JUMPDEST PUSH2 0x112A JUMPI PUSH1 0x40 MLOAD PUSH3 0x461BCD PUSH1 0xE5 SHL DUP2 MSTORE PUSH1 0x4 ADD PUSH2 0x7C3 SWAP1 PUSH2 0x2EF8 JUMP JUMPDEST PUSH1 0x1 PUSH1 0x1 PUSH1 0xA0 SHL SUB DUP7 AND PUSH1 0x0 DUP2 DUP2 MSTORE PUSH1 0x20 DUP2 SWAP1 MSTORE PUSH1 0x40 DUP1 DUP3 KECCAK256 DUP1 SLOAD PUSH1 0xFF NOT AND PUSH1 0x1 SWAP1 DUP2 OR SWAP1 SWAP2 SSTORE DUP1 SLOAD DUP1 DUP3 ADD DUP3 SSTORE SWAP1 DUP4 MSTORE PUSH32 0xB10E2D527612073B26EECDFD717E6A320CF44B4AFAC2B0732D9FCBE2B7FA0CF6 ADD DUP1 SLOAD PUSH1 0x1 PUSH1 0x1 PUSH1 0xA0 SHL SUB NOT AND DUP5 OR SWAP1 SSTORE MLOAD PUSH32 0xF39E6E1EB0EDCF53C221607B54B00CD28F3196FED0A24994DC308B8F611B682D SWAP2 SWAP1 LOG2 POP POP POP POP POP POP JUMP JUMPDEST CALLER PUSH1 0x0 DUP2 DUP2 MSTORE PUSH1 0x20 DUP2 SWAP1 MSTORE PUSH1 0x40 SWAP1 KECCAK256 SLOAD PUSH1 0xFF AND PUSH2 0x11E9 JUMPI PUSH1 0x40 MLOAD PUSH3 0x461BCD PUSH1 0xE5 SHL DUP2 MSTORE PUSH1 0x4 ADD PUSH2 0x7C3 SWAP1 PUSH2 0x2E40 JUMP JUMPDEST PUSH1 0x0 DUP3 DUP2 MSTORE PUSH1 0x7 PUSH1 0x20 SWAP1 DUP2 MSTORE PUSH1 0x40 DUP1 DUP4 KECCAK256 SLOAD DUP1 DUP5 MSTORE PUSH1 0x4 SWAP1 SWAP3 MSTORE SWAP1 SWAP2 KECCAK256 SLOAD PUSH1 0x1 PUSH1 0x1 PUSH1 0xA0 SHL SUB AND PUSH2 0x122C JUMPI PUSH1 0x40 MLOAD PUSH3 0x461BCD PUSH1 0xE5 SHL DUP2 MSTORE PUSH1 0x4 ADD PUSH2 0x7C3 SWAP1 PUSH2 0x2F28 JUMP JUMPDEST PUSH1 0x0 DUP4 DUP2 MSTORE PUSH1 0x7 PUSH1 0x20 SWAP1 DUP2 MSTORE PUSH1 0x40 DUP1 DUP4 KECCAK256 SLOAD DUP1 DUP5 MSTORE PUSH1 0x4 SWAP1 SWAP3 MSTORE SWAP1 SWAP2 KECCAK256 PUSH1 0x3 ADD SLOAD PUSH2 0x100 SWAP1 DIV PUSH1 0xFF AND ISZERO PUSH2 0x1272 JUMPI PUSH1 0x40 MLOAD PUSH3 0x461BCD PUSH1 0xE5 SHL DUP2 MSTORE PUSH1 0x4 ADD PUSH2 0x7C3 SWAP1 PUSH2 0x2F79 JUMP JUMPDEST PUSH1 0x0 DUP5 DUP2 MSTORE PUSH1 0x7 PUSH1 0x20 SWAP1 DUP2 MSTORE PUSH1 0x40 DUP1 DUP4 KECCAK256 SLOAD PUSH1 0x9 DUP2 SWAP1 SSTORE DUP4 MSTORE PUSH1 0x6 DUP3 MSTORE DUP1 DUP4 KECCAK256 CALLER DUP1 DUP6 MSTORE SWAP1 DUP4 MSTORE SWAP3 DUP2 SWAP1 KECCAK256 PUSH1 0x2 SWAP1 SSTORE MLOAD DUP7 DUP2 MSTORE PUSH32 0xF6A317157440607F36269043EB55F1287A5A19BA2216AFEAB88CD46CBCFB88E9 SWAP2 ADD JUMPDEST PUSH1 0x40 MLOAD DUP1 SWAP2 SUB SWAP1 LOG2 POP POP POP POP JUMP JUMPDEST PUSH1 0x0 DUP2 DUP2 MSTORE PUSH1 0x7 PUSH1 0x20 SWAP1 DUP2 MSTORE PUSH1 0x40 DUP1 DUP4 KECCAK256 SLOAD PUSH1 0x9 SSTORE PUSH1 0x8 DUP1 SLOAD DUP3 MLOAD DUP2 DUP6 MUL DUP2 ADD DUP6 ADD SWAP1 SWAP4 MSTORE DUP1 DUP4 MSTORE PUSH2 0x133D SWAP4 DUP4 ADD DUP3 DUP3 DUP1 ISZERO PUSH2 0x82F JUMPI PUSH1 0x20 MUL DUP3 ADD SWAP2 SWAP1 PUSH1 0x0 MSTORE PUSH1 0x20 PUSH1 0x0 KECCAK256 SWAP1 DUP2 SLOAD DUP2 MSTORE PUSH1 0x20 ADD SWAP1 PUSH1 0x1 ADD SWAP1 DUP1 DUP4 GT PUSH2 0x81B JUMPI POP POP POP POP POP PUSH1 0x9 SLOAD PUSH2 0x2240 JUMP JUMPDEST PUSH2 0x1359 JUMPI PUSH1 0x40 MLOAD PUSH3 0x461BCD PUSH1 0xE5 SHL DUP2 MSTORE PUSH1 0x4 ADD PUSH2 0x7C3 SWAP1 PUSH2 0x2DF4 JUMP JUMPDEST POP PUSH1 0x0 DUP1 DUP1 JUMPDEST PUSH1 0x1 SLOAD DUP2 LT ISZERO PUSH2 0xEA5 JUMPI PUSH1 0x6 PUSH1 0x0 PUSH1 0x9 SLOAD DUP2 MSTORE PUSH1 0x20 ADD SWAP1 DUP2 MSTORE PUSH1 0x20 ADD PUSH1 0x0 KECCAK256 PUSH1 0x0 PUSH1 0x1 DUP4 DUP2 SLOAD DUP2 LT PUSH2 0x1393 JUMPI PUSH2 0x1393 PUSH2 0x2EA0 JUMP JUMPDEST PUSH1 0x0 SWAP2 DUP3 MSTORE PUSH1 0x20 DUP1 DUP4 KECCAK256 SWAP1 SWAP2 ADD SLOAD PUSH1 0x1 PUSH1 0x1 PUSH1 0xA0 SHL SUB AND DUP4 MSTORE DUP3 ADD SWAP3 SWAP1 SWAP3 MSTORE PUSH1 0x40 ADD SWAP1 KECCAK256 SLOAD PUSH1 0x1 SUB PUSH2 0x13CD JUMPI PUSH2 0x13CA PUSH1 0x1 DUP4 PUSH2 0x2EE5 JUMP JUMPDEST SWAP2 POP JUMPDEST PUSH1 0x2 SLOAD DUP3 LT PUSH2 0x13E0 JUMPI POP PUSH1 0x1 SWAP4 SWAP3 POP POP POP JUMP JUMPDEST DUP1 PUSH2 0x13EA DUP2 PUSH2 0x2EB6 JUMP JUMPDEST SWAP2 POP POP PUSH2 0x135F JUMP JUMPDEST PUSH1 0x3 SLOAD PUSH1 0x40 MLOAD PUSH4 0x6EB1769F PUSH1 0xE1 SHL DUP2 MSTORE CALLER PUSH1 0x4 DUP3 ADD MSTORE ADDRESS PUSH1 0x24 DUP3 ADD MSTORE PUSH1 0x0 SWAP2 PUSH1 0x1 PUSH1 0x1 PUSH1 0xA0 SHL SUB AND SWAP1 PUSH4 0xDD62ED3E SWAP1 PUSH1 0x44 ADD PUSH1 0x20 PUSH1 0x40 MLOAD DUP1 DUP4 SUB DUP2 DUP7 GAS STATICCALL ISZERO DUP1 ISZERO PUSH2 0x1441 JUMPI RETURNDATASIZE PUSH1 0x0 DUP1 RETURNDATACOPY RETURNDATASIZE PUSH1 0x0 REVERT JUMPDEST POP POP POP POP PUSH1 0x40 MLOAD RETURNDATASIZE PUSH1 0x1F NOT PUSH1 0x1F DUP3 ADD AND DUP3 ADD DUP1 PUSH1 0x40 MSTORE POP DUP2 ADD SWAP1 PUSH2 0x1465 SWAP2 SWAP1 PUSH2 0x2FE2 JUMP JUMPDEST SWAP1 POP SWAP1 JUMP JUMPDEST PUSH1 0x0 DUP2 DUP2 MSTORE PUSH1 0x7 PUSH1 0x20 SWAP1 DUP2 MSTORE PUSH1 0x40 DUP1 DUP4 KECCAK256 SLOAD PUSH1 0x9 SSTORE PUSH1 0x8 DUP1 SLOAD DUP3 MLOAD DUP2 DUP6 MUL DUP2 ADD DUP6 ADD SWAP1 SWAP4 MSTORE DUP1 DUP4 MSTORE PUSH2 0x14D0 SWAP4 DUP4 ADD DUP3 DUP3 DUP1 ISZERO PUSH2 0x82F JUMPI PUSH1 0x20 MUL DUP3 ADD SWAP2 SWAP1 PUSH1 0x0 MSTORE PUSH1 0x20 PUSH1 0x0 KECCAK256 SWAP1 DUP2 SLOAD DUP2 MSTORE PUSH1 0x20 ADD SWAP1 PUSH1 0x1 ADD SWAP1 DUP1 DUP4 GT PUSH2 0x81B JUMPI POP POP POP POP POP PUSH1 0x9 SLOAD PUSH2 0x2240 JUMP JUMPDEST PUSH2 0x14EC JUMPI PUSH1 0x40 MLOAD PUSH3 0x461BCD PUSH1 0xE5 SHL DUP2 MSTORE PUSH1 0x4 ADD PUSH2 0x7C3 SWAP1 PUSH2 0x2DF4 JUMP JUMPDEST PUSH1 0x0 JUMPDEST PUSH1 0x1 SLOAD DUP2 LT ISZERO PUSH2 0x156F JUMPI PUSH1 0x6 PUSH1 0x0 PUSH1 0x9 SLOAD DUP2 MSTORE PUSH1 0x20 ADD SWAP1 DUP2 MSTORE PUSH1 0x20 ADD PUSH1 0x0 KECCAK256 PUSH1 0x0 PUSH1 0x1 DUP4 DUP2 SLOAD DUP2 LT PUSH2 0x1523 JUMPI PUSH2 0x1523 PUSH2 0x2EA0 JUMP JUMPDEST PUSH1 0x0 SWAP2 DUP3 MSTORE PUSH1 0x20 DUP1 DUP4 KECCAK256 SWAP1 SWAP2 ADD SLOAD PUSH1 0x1 PUSH1 0x1 PUSH1 0xA0 SHL SUB AND DUP4 MSTORE DUP3 ADD SWAP3 SWAP1 SWAP3 MSTORE PUSH1 0x40 ADD SWAP1 KECCAK256 SLOAD PUSH1 0x1 SUB PUSH2 0x155D JUMPI PUSH2 0x155A PUSH1 0x1 DUP4 PUSH2 0x2EE5 JUMP JUMPDEST SWAP2 POP JUMPDEST DUP1 PUSH2 0x1567 DUP2 PUSH2 0x2EB6 JUMP JUMPDEST SWAP2 POP POP PUSH2 0x14EF JUMP JUMPDEST POP SWAP2 SWAP1 POP JUMP JUMPDEST PUSH1 0x60 PUSH1 0x1 DUP1 SLOAD DUP1 PUSH1 0x20 MUL PUSH1 0x20 ADD PUSH1 0x40 MLOAD SWAP1 DUP2 ADD PUSH1 0x40 MSTORE DUP1 SWAP3 SWAP2 SWAP1 DUP2 DUP2 MSTORE PUSH1 0x20 ADD DUP3 DUP1 SLOAD DUP1 ISZERO PUSH2 0x15CD JUMPI PUSH1 0x20 MUL DUP3 ADD SWAP2 SWAP1 PUSH1 0x0 MSTORE PUSH1 0x20 PUSH1 0x0 KECCAK256 SWAP1 JUMPDEST DUP2 SLOAD PUSH1 0x1 PUSH1 0x1 PUSH1 0xA0 SHL SUB AND DUP2 MSTORE PUSH1 0x1 SWAP1 SWAP2 ADD SWAP1 PUSH1 0x20 ADD DUP1 DUP4 GT PUSH2 0x15AF JUMPI JUMPDEST POP POP POP POP POP SWAP1 POP SWAP1 JUMP JUMPDEST PUSH1 0x0 DUP2 DUP2 MSTORE PUSH1 0x7 PUSH1 0x20 SWAP1 DUP2 MSTORE PUSH1 0x40 SWAP2 DUP3 SWAP1 KECCAK256 SLOAD PUSH1 0x9 SSTORE PUSH1 0x8 DUP1 SLOAD DUP4 MLOAD DUP2 DUP5 MUL DUP2 ADD DUP5 ADD SWAP1 SWAP5 MSTORE DUP1 DUP5 MSTORE PUSH1 0x60 SWAP4 PUSH2 0x1645 SWAP4 SWAP1 SWAP3 SWAP2 SWAP1 DUP4 ADD DUP3 DUP3 DUP1 ISZERO PUSH2 0x82F JUMPI PUSH1 0x20 MUL DUP3 ADD SWAP2 SWAP1 PUSH1 0x0 MSTORE PUSH1 0x20 PUSH1 0x0 KECCAK256 SWAP1 DUP2 SLOAD DUP2 MSTORE PUSH1 0x20 ADD SWAP1 PUSH1 0x1 ADD SWAP1 DUP1 DUP4 GT PUSH2 0x81B JUMPI POP POP POP POP POP PUSH1 0x9 SLOAD PUSH2 0x2240 JUMP JUMPDEST PUSH2 0x1661 JUMPI PUSH1 0x40 MLOAD PUSH3 0x461BCD PUSH1 0xE5 SHL DUP2 MSTORE PUSH1 0x4 ADD PUSH2 0x7C3 SWAP1 PUSH2 0x2DF4 JUMP JUMPDEST PUSH1 0x1 SLOAD PUSH1 0x0 SWAP1 PUSH1 0x1 PUSH1 0x1 PUSH1 0x40 SHL SUB DUP2 GT ISZERO PUSH2 0x167E JUMPI PUSH2 0x167E PUSH2 0x2B76 JUMP JUMPDEST PUSH1 0x40 MLOAD SWAP1 DUP1 DUP3 MSTORE DUP1 PUSH1 0x20 MUL PUSH1 0x20 ADD DUP3 ADD PUSH1 0x40 MSTORE DUP1 ISZERO PUSH2 0x16A7 JUMPI DUP2 PUSH1 0x20 ADD PUSH1 0x20 DUP3 MUL DUP1 CALLDATASIZE DUP4 CALLDATACOPY ADD SWAP1 POP JUMPDEST POP SWAP1 POP PUSH1 0x0 DUP1 JUMPDEST PUSH1 0x1 SLOAD DUP2 LT ISZERO PUSH2 0x1789 JUMPI PUSH1 0x6 PUSH1 0x0 PUSH1 0x9 SLOAD DUP2 MSTORE PUSH1 0x20 ADD SWAP1 DUP2 MSTORE PUSH1 0x20 ADD PUSH1 0x0 KECCAK256 PUSH1 0x0 PUSH1 0x1 DUP4 DUP2 SLOAD DUP2 LT PUSH2 0x16E2 JUMPI PUSH2 0x16E2 PUSH2 0x2EA0 JUMP JUMPDEST PUSH1 0x0 SWAP2 DUP3 MSTORE PUSH1 0x20 DUP1 DUP4 KECCAK256 SWAP1 SWAP2 ADD SLOAD PUSH1 0x1 PUSH1 0x1 PUSH1 0xA0 SHL SUB AND DUP4 MSTORE DUP3 ADD SWAP3 SWAP1 SWAP3 MSTORE PUSH1 0x40 ADD SWAP1 KECCAK256 SLOAD PUSH1 0x2 SUB PUSH2 0x1777 JUMPI PUSH1 0x1 DUP2 DUP2 SLOAD DUP2 LT PUSH2 0x1721 JUMPI PUSH2 0x1721 PUSH2 0x2EA0 JUMP JUMPDEST SWAP1 PUSH1 0x0 MSTORE PUSH1 0x20 PUSH1 0x0 KECCAK256 ADD PUSH1 0x0 SWAP1 SLOAD SWAP1 PUSH2 0x100 EXP SWAP1 DIV PUSH1 0x1 PUSH1 0x1 PUSH1 0xA0 SHL SUB AND DUP4 DUP4 DUP2 MLOAD DUP2 LT PUSH2 0x1751 JUMPI PUSH2 0x1751 PUSH2 0x2EA0 JUMP JUMPDEST PUSH1 0x1 PUSH1 0x1 PUSH1 0xA0 SHL SUB SWAP1 SWAP3 AND PUSH1 0x20 SWAP3 DUP4 MUL SWAP2 SWAP1 SWAP2 ADD SWAP1 SWAP2 ADD MSTORE PUSH2 0x1774 PUSH1 0x1 DUP4 PUSH2 0x2EE5 JUMP JUMPDEST SWAP2 POP JUMPDEST DUP1 PUSH2 0x1781 DUP2 PUSH2 0x2EB6 JUMP JUMPDEST SWAP2 POP POP PUSH2 0x16AE JUMP JUMPDEST DUP2 PUSH1 0x1 PUSH1 0x1 PUSH1 0x40 SHL SUB DUP2 GT ISZERO PUSH2 0x17A1 JUMPI PUSH2 0x17A1 PUSH2 0x2B76 JUMP JUMPDEST PUSH1 0x40 MLOAD SWAP1 DUP1 DUP3 MSTORE DUP1 PUSH1 0x20 MUL PUSH1 0x20 ADD DUP3 ADD PUSH1 0x40 MSTORE DUP1 ISZERO PUSH2 0x17CA JUMPI DUP2 PUSH1 0x20 ADD PUSH1 0x20 DUP3 MUL DUP1 CALLDATASIZE DUP4 CALLDATACOPY ADD SWAP1 POP JUMPDEST POP SWAP4 POP PUSH1 0x0 SWAP1 POP JUMPDEST DUP2 DUP2 LT ISZERO PUSH2 0x1830 JUMPI DUP3 DUP2 DUP2 MLOAD DUP2 LT PUSH2 0x17EC JUMPI PUSH2 0x17EC PUSH2 0x2EA0 JUMP JUMPDEST PUSH1 0x20 MUL PUSH1 0x20 ADD ADD MLOAD DUP5 DUP3 DUP2 MLOAD DUP2 LT PUSH2 0x1806 JUMPI PUSH2 0x1806 PUSH2 0x2EA0 JUMP JUMPDEST PUSH1 0x1 PUSH1 0x1 PUSH1 0xA0 SHL SUB SWAP1 SWAP3 AND PUSH1 0x20 SWAP3 DUP4 MUL SWAP2 SWAP1 SWAP2 ADD SWAP1 SWAP2 ADD MSTORE DUP1 PUSH2 0x1828 DUP2 PUSH2 0x2EB6 JUMP JUMPDEST SWAP2 POP POP PUSH2 0x17D2 JUMP JUMPDEST POP POP POP SWAP2 SWAP1 POP JUMP JUMPDEST CALLER PUSH1 0x0 DUP2 DUP2 MSTORE PUSH1 0x20 DUP2 SWAP1 MSTORE PUSH1 0x40 SWAP1 KECCAK256 SLOAD PUSH1 0xFF AND PUSH2 0x1867 JUMPI PUSH1 0x40 MLOAD PUSH3 0x461BCD PUSH1 0xE5 SHL DUP2 MSTORE PUSH1 0x4 ADD PUSH2 0x7C3 SWAP1 PUSH2 0x2E40 JUMP JUMPDEST POP PUSH1 0x3 DUP1 SLOAD PUSH1 0x1 PUSH1 0x1 PUSH1 0xA0 SHL SUB NOT AND PUSH1 0x1 PUSH1 0x1 PUSH1 0xA0 SHL SUB SWAP3 SWAP1 SWAP3 AND SWAP2 SWAP1 SWAP2 OR SWAP1 SSTORE JUMP JUMPDEST PUSH1 0x0 DUP2 DUP2 MSTORE PUSH1 0x7 PUSH1 0x20 SWAP1 DUP2 MSTORE PUSH1 0x40 SWAP2 DUP3 SWAP1 KECCAK256 SLOAD PUSH1 0x9 SSTORE PUSH1 0x8 DUP1 SLOAD DUP4 MLOAD DUP2 DUP5 MUL DUP2 ADD DUP5 ADD SWAP1 SWAP5 MSTORE DUP1 DUP5 MSTORE PUSH1 0x60 SWAP4 PUSH2 0x18F8 SWAP4 SWAP1 SWAP3 SWAP2 SWAP1 DUP4 ADD DUP3 DUP3 DUP1 ISZERO PUSH2 0x82F JUMPI PUSH1 0x20 MUL DUP3 ADD SWAP2 SWAP1 PUSH1 0x0 MSTORE PUSH1 0x20 PUSH1 0x0 KECCAK256 SWAP1 DUP2 SLOAD DUP2 MSTORE PUSH1 0x20 ADD SWAP1 PUSH1 0x1 ADD SWAP1 DUP1 DUP4 GT PUSH2 0x81B JUMPI POP POP POP POP POP PUSH1 0x9 SLOAD PUSH2 0x2240 JUMP JUMPDEST PUSH2 0x1914 JUMPI PUSH1 0x40 MLOAD PUSH3 0x461BCD PUSH1 0xE5 SHL DUP2 MSTORE PUSH1 0x4 ADD PUSH2 0x7C3 SWAP1 PUSH2 0x2DF4 JUMP JUMPDEST PUSH1 0x1 SLOAD PUSH1 0x0 SWAP1 PUSH1 0x1 PUSH1 0x1 PUSH1 0x40 SHL SUB DUP2 GT ISZERO PUSH2 0x1931 JUMPI PUSH2 0x1931 PUSH2 0x2B76 JUMP JUMPDEST PUSH1 0x40 MLOAD SWAP1 DUP1 DUP3 MSTORE DUP1 PUSH1 0x20 MUL PUSH1 0x20 ADD DUP3 ADD PUSH1 0x40 MSTORE DUP1 ISZERO PUSH2 0x195A JUMPI DUP2 PUSH1 0x20 ADD PUSH1 0x20 DUP3 MUL DUP1 CALLDATASIZE DUP4 CALLDATACOPY ADD SWAP1 POP JUMPDEST POP SWAP1 POP PUSH1 0x0 DUP1 JUMPDEST PUSH1 0x1 SLOAD DUP2 LT ISZERO PUSH2 0x1A3C JUMPI PUSH1 0x6 PUSH1 0x0 PUSH1 0x9 SLOAD DUP2 MSTORE PUSH1 0x20 ADD SWAP1 DUP2 MSTORE PUSH1 0x20 ADD PUSH1 0x0 KECCAK256 PUSH1 0x0 PUSH1 0x1 DUP4 DUP2 SLOAD DUP2 LT PUSH2 0x1995 JUMPI PUSH2 0x1995 PUSH2 0x2EA0 JUMP JUMPDEST PUSH1 0x0 SWAP2 DUP3 MSTORE PUSH1 0x20 DUP1 DUP4 KECCAK256 SWAP1 SWAP2 ADD SLOAD PUSH1 0x1 PUSH1 0x1 PUSH1 0xA0 SHL SUB AND DUP4 MSTORE DUP3 ADD SWAP3 SWAP1 SWAP3 MSTORE PUSH1 0x40 ADD SWAP1 KECCAK256 SLOAD PUSH1 0x1 SUB PUSH2 0x1A2A JUMPI PUSH1 0x1 DUP2 DUP2 SLOAD DUP2 LT PUSH2 0x19D4 JUMPI PUSH2 0x19D4 PUSH2 0x2EA0 JUMP JUMPDEST SWAP1 PUSH1 0x0 MSTORE PUSH1 0x20 PUSH1 0x0 KECCAK256 ADD PUSH1 0x0 SWAP1 SLOAD SWAP1 PUSH2 0x100 EXP SWAP1 DIV PUSH1 0x1 PUSH1 0x1 PUSH1 0xA0 SHL SUB AND DUP4 DUP4 DUP2 MLOAD DUP2 LT PUSH2 0x1A04 JUMPI PUSH2 0x1A04 PUSH2 0x2EA0 JUMP JUMPDEST PUSH1 0x1 PUSH1 0x1 PUSH1 0xA0 SHL SUB SWAP1 SWAP3 AND PUSH1 0x20 SWAP3 DUP4 MUL SWAP2 SWAP1 SWAP2 ADD SWAP1 SWAP2 ADD MSTORE PUSH2 0x1A27 PUSH1 0x1 DUP4 PUSH2 0x2EE5 JUMP JUMPDEST SWAP2 POP JUMPDEST DUP1 PUSH2 0x1A34 DUP2 PUSH2 0x2EB6 JUMP JUMPDEST SWAP2 POP POP PUSH2 0x1961 JUMP JUMPDEST DUP2 PUSH1 0x1 PUSH1 0x1 PUSH1 0x40 SHL SUB DUP2 GT ISZERO PUSH2 0x1A54 JUMPI PUSH2 0x1A54 PUSH2 0x2B76 JUMP JUMPDEST PUSH1 0x40 MLOAD SWAP1 DUP1 DUP3 MSTORE DUP1 PUSH1 0x20 MUL PUSH1 0x20 ADD DUP3 ADD PUSH1 0x40 MSTORE DUP1 ISZERO PUSH2 0x1A7D JUMPI DUP2 PUSH1 0x20 ADD PUSH1 0x20 DUP3 MUL DUP1 CALLDATASIZE DUP4 CALLDATACOPY ADD SWAP1 POP JUMPDEST POP SWAP4 POP PUSH1 0x0 SWAP1 POP JUMPDEST DUP2 DUP2 LT ISZERO PUSH2 0x1830 JUMPI DUP3 DUP2 DUP2 MLOAD DUP2 LT PUSH2 0x1A9F JUMPI PUSH2 0x1A9F PUSH2 0x2EA0 JUMP JUMPDEST PUSH1 0x20 MUL PUSH1 0x20 ADD ADD MLOAD DUP5 DUP3 DUP2 MLOAD DUP2 LT PUSH2 0x1AB9 JUMPI PUSH2 0x1AB9 PUSH2 0x2EA0 JUMP JUMPDEST PUSH1 0x1 PUSH1 0x1 PUSH1 0xA0 SHL SUB SWAP1 SWAP3 AND PUSH1 0x20 SWAP3 DUP4 MUL SWAP2 SWAP1 SWAP2 ADD SWAP1 SWAP2 ADD MSTORE DUP1 PUSH2 0x1ADB DUP2 PUSH2 0x2EB6 JUMP JUMPDEST SWAP2 POP POP PUSH2 0x1A85 JUMP JUMPDEST CALLER PUSH1 0x0 DUP2 DUP2 MSTORE PUSH1 0x20 DUP2 SWAP1 MSTORE PUSH1 0x40 SWAP1 KECCAK256 SLOAD PUSH1 0xFF AND PUSH2 0x1B12 JUMPI PUSH1 0x40 MLOAD PUSH3 0x461BCD PUSH1 0xE5 SHL DUP2 MSTORE PUSH1 0x4 ADD PUSH2 0x7C3 SWAP1 PUSH2 0x2E40 JUMP JUMPDEST PUSH1 0x0 DUP3 DUP2 MSTORE PUSH1 0x7 PUSH1 0x20 SWAP1 DUP2 MSTORE PUSH1 0x40 DUP1 DUP4 KECCAK256 SLOAD DUP1 DUP5 MSTORE PUSH1 0x4 SWAP1 SWAP3 MSTORE SWAP1 SWAP2 KECCAK256 SLOAD PUSH1 0x1 PUSH1 0x1 PUSH1 0xA0 SHL SUB AND PUSH2 0x1B55 JUMPI PUSH1 0x40 MLOAD PUSH3 0x461BCD PUSH1 0xE5 SHL DUP2 MSTORE PUSH1 0x4 ADD PUSH2 0x7C3 SWAP1 PUSH2 0x2F28 JUMP JUMPDEST PUSH1 0x0 DUP4 DUP2 MSTORE PUSH1 0x7 PUSH1 0x20 SWAP1 DUP2 MSTORE PUSH1 0x40 DUP1 DUP4 KECCAK256 SLOAD DUP1 DUP5 MSTORE PUSH1 0x4 SWAP1 SWAP3 MSTORE SWAP1 SWAP2 KECCAK256 PUSH1 0x3 ADD SLOAD PUSH2 0x100 SWAP1 DIV PUSH1 0xFF AND ISZERO PUSH2 0x1B9B JUMPI PUSH1 0x40 MLOAD PUSH3 0x461BCD PUSH1 0xE5 SHL DUP2 MSTORE PUSH1 0x4 ADD PUSH2 0x7C3 SWAP1 PUSH2 0x2F79 JUMP JUMPDEST PUSH1 0x0 DUP5 DUP2 MSTORE PUSH1 0x7 PUSH1 0x20 SWAP1 DUP2 MSTORE PUSH1 0x40 DUP1 DUP4 KECCAK256 SLOAD PUSH1 0x9 DUP2 SWAP1 SSTORE DUP4 MSTORE PUSH1 0x6 DUP3 MSTORE DUP1 DUP4 KECCAK256 CALLER DUP1 DUP6 MSTORE SWAP1 DUP4 MSTORE SWAP3 DUP2 SWAP1 KECCAK256 PUSH1 0x1 SWAP1 SSTORE MLOAD DUP7 DUP2 MSTORE PUSH32 0x4A504A94899432A9846E1AA406DCEB1BCFD538BB839071D49D1E5E23F5BE30EF SWAP2 ADD PUSH2 0x12C9 JUMP JUMPDEST PUSH1 0x0 DUP2 DUP2 MSTORE PUSH1 0x7 PUSH1 0x20 SWAP1 DUP2 MSTORE PUSH1 0x40 DUP1 DUP4 KECCAK256 SLOAD PUSH1 0x9 SSTORE PUSH1 0x8 DUP1 SLOAD DUP3 MLOAD DUP2 DUP6 MUL DUP2 ADD DUP6 ADD SWAP1 SWAP4 MSTORE DUP1 DUP4 MSTORE PUSH2 0x1C5C SWAP4 DUP4 ADD DUP3 DUP3 DUP1 ISZERO PUSH2 0x82F JUMPI PUSH1 0x20 MUL DUP3 ADD SWAP2 SWAP1 PUSH1 0x0 MSTORE PUSH1 0x20 PUSH1 0x0 KECCAK256 SWAP1 DUP2 SLOAD DUP2 MSTORE PUSH1 0x20 ADD SWAP1 PUSH1 0x1 ADD SWAP1 DUP1 DUP4 GT PUSH2 0x81B JUMPI POP POP POP POP POP PUSH1 0x9 SLOAD PUSH2 0x2240 JUMP JUMPDEST PUSH2 0x1C78 JUMPI PUSH1 0x40 MLOAD PUSH3 0x461BCD PUSH1 0xE5 SHL DUP2 MSTORE PUSH1 0x4 ADD PUSH2 0x7C3 SWAP1 PUSH2 0x2DF4 JUMP JUMPDEST PUSH1 0x0 JUMPDEST PUSH1 0x1 SLOAD DUP2 LT ISZERO PUSH2 0x156F JUMPI PUSH1 0x6 PUSH1 0x0 PUSH1 0x9 SLOAD DUP2 MSTORE PUSH1 0x20 ADD SWAP1 DUP2 MSTORE PUSH1 0x20 ADD PUSH1 0x0 KECCAK256 PUSH1 0x0 PUSH1 0x1 DUP4 DUP2 SLOAD DUP2 LT PUSH2 0x1CAF JUMPI PUSH2 0x1CAF PUSH2 0x2EA0 JUMP JUMPDEST PUSH1 0x0 SWAP2 DUP3 MSTORE PUSH1 0x20 DUP1 DUP4 KECCAK256 SWAP1 SWAP2 ADD SLOAD PUSH1 0x1 PUSH1 0x1 PUSH1 0xA0 SHL SUB AND DUP4 MSTORE DUP3 ADD SWAP3 SWAP1 SWAP3 MSTORE PUSH1 0x40 ADD SWAP1 KECCAK256 SLOAD PUSH1 0x2 SUB PUSH2 0x1CE9 JUMPI PUSH2 0x1CE6 PUSH1 0x1 DUP4 PUSH2 0x2EE5 JUMP JUMPDEST SWAP2 POP JUMPDEST DUP1 PUSH2 0x1CF3 DUP2 PUSH2 0x2EB6 JUMP JUMPDEST SWAP2 POP POP PUSH2 0x1C7B JUMP JUMPDEST CALLER PUSH1 0x0 DUP2 DUP2 MSTORE PUSH1 0x20 DUP2 SWAP1 MSTORE PUSH1 0x40 SWAP1 KECCAK256 SLOAD PUSH1 0xFF AND PUSH2 0x1D2A JUMPI PUSH1 0x40 MLOAD PUSH3 0x461BCD PUSH1 0xE5 SHL DUP2 MSTORE PUSH1 0x4 ADD PUSH2 0x7C3 SWAP1 PUSH2 0x2E40 JUMP JUMPDEST PUSH1 0x1 SLOAD DUP3 DUP2 DUP2 GT DUP1 ISZERO SWAP1 PUSH2 0x1D3D JUMPI POP DUP1 ISZERO ISZERO JUMPDEST DUP1 ISZERO PUSH2 0x1D48 JUMPI POP DUP2 ISZERO ISZERO JUMPDEST PUSH2 0x1D64 JUMPI PUSH1 0x40 MLOAD PUSH3 0x461BCD PUSH1 0xE5 SHL DUP2 MSTORE PUSH1 0x4 ADD PUSH2 0x7C3 SWAP1 PUSH2 0x2EF8 JUMP JUMPDEST PUSH1 0x2 DUP5 SWAP1 SSTORE PUSH1 0x40 MLOAD DUP5 DUP2 MSTORE PUSH32 0x27863D12A407097E086A48E36475BFC859D0B200B7E6F65B5FD3B218E46632E SWAP1 PUSH1 0x20 ADD PUSH1 0x40 MLOAD DUP1 SWAP2 SUB SWAP1 LOG1 POP POP POP POP JUMP JUMPDEST CALLER PUSH1 0x0 DUP2 DUP2 MSTORE PUSH1 0x20 DUP2 SWAP1 MSTORE PUSH1 0x40 SWAP1 KECCAK256 SLOAD PUSH1 0xFF AND PUSH2 0x1DD1 JUMPI PUSH1 0x40 MLOAD PUSH3 0x461BCD PUSH1 0xE5 SHL DUP2 MSTORE PUSH1 0x4 ADD PUSH2 0x7C3 SWAP1 PUSH2 0x2E40 JUMP JUMPDEST DUP2 PUSH2 0x1DDB DUP2 PUSH2 0x12D7 JUMP JUMPDEST DUP1 PUSH2 0x1DEA JUMPI POP PUSH2 0x1DEA DUP2 PUSH2 0xD8A JUMP JUMPDEST PUSH2 0x1E48 JUMPI PUSH1 0x40 MLOAD PUSH3 0x461BCD PUSH1 0xE5 SHL DUP2 MSTORE PUSH1 0x20 PUSH1 0x4 DUP3 ADD MSTORE PUSH1 0x29 PUSH1 0x24 DUP3 ADD MSTORE PUSH32 0x51756F72756D20686173206E6F74206265656E2072656163686564206279206F PUSH1 0x44 DUP3 ADD MSTORE PUSH9 0x1DDB995C9CC81E595D PUSH1 0xBA SHL PUSH1 0x64 DUP3 ADD MSTORE PUSH1 0x84 ADD PUSH2 0x7C3 JUMP JUMPDEST DUP3 PUSH2 0x1E52 DUP2 PUSH2 0x12D7 JUMP JUMPDEST PUSH2 0x1EBB JUMPI PUSH1 0x40 MLOAD PUSH3 0x461BCD PUSH1 0xE5 SHL DUP2 MSTORE PUSH1 0x20 PUSH1 0x4 DUP3 ADD MSTORE PUSH1 0x34 PUSH1 0x24 DUP3 ADD MSTORE PUSH32 0x546865207472616E73616374696F6E20686173206E6F74206265656E20636F6E PUSH1 0x44 DUP3 ADD MSTORE PUSH20 0x199A5C9B595908189E481BDDDB995C9CC81E595D PUSH1 0x62 SHL PUSH1 0x64 DUP3 ADD MSTORE PUSH1 0x84 ADD PUSH2 0x7C3 JUMP JUMPDEST PUSH1 0x0 DUP5 DUP2 MSTORE PUSH1 0x7 PUSH1 0x20 SWAP1 DUP2 MSTORE PUSH1 0x40 DUP1 DUP4 KECCAK256 SLOAD DUP1 DUP5 MSTORE PUSH1 0x4 SWAP1 SWAP3 MSTORE SWAP1 SWAP2 KECCAK256 PUSH1 0x3 ADD SLOAD PUSH2 0x100 SWAP1 DIV PUSH1 0xFF AND ISZERO PUSH2 0x1F01 JUMPI PUSH1 0x40 MLOAD PUSH3 0x461BCD PUSH1 0xE5 SHL DUP2 MSTORE PUSH1 0x4 ADD PUSH2 0x7C3 SWAP1 PUSH2 0x2F79 JUMP JUMPDEST PUSH1 0x0 DUP6 DUP2 MSTORE PUSH1 0x7 PUSH1 0x20 SWAP1 DUP2 MSTORE PUSH1 0x40 SWAP2 DUP3 SWAP1 KECCAK256 SLOAD PUSH1 0x9 SSTORE PUSH1 0x8 DUP1 SLOAD DUP4 MLOAD DUP2 DUP5 MUL DUP2 ADD DUP5 ADD SWAP1 SWAP5 MSTORE DUP1 DUP5 MSTORE PUSH2 0x1F69 SWAP4 SWAP3 DUP4 ADD DUP3 DUP3 DUP1 ISZERO PUSH2 0x82F JUMPI PUSH1 0x20 MUL DUP3 ADD SWAP2 SWAP1 PUSH1 0x0 MSTORE PUSH1 0x20 PUSH1 0x0 KECCAK256 SWAP1 DUP2 SLOAD DUP2 MSTORE PUSH1 0x20 ADD SWAP1 PUSH1 0x1 ADD SWAP1 DUP1 DUP4 GT PUSH2 0x81B JUMPI POP POP POP POP POP PUSH1 0x9 SLOAD PUSH2 0x2240 JUMP JUMPDEST PUSH2 0x1F85 JUMPI PUSH1 0x40 MLOAD PUSH3 0x461BCD PUSH1 0xE5 SHL DUP2 MSTORE PUSH1 0x4 ADD PUSH2 0x7C3 SWAP1 PUSH2 0x2DF4 JUMP JUMPDEST PUSH1 0x9 SLOAD PUSH1 0x0 SWAP1 DUP2 MSTORE PUSH1 0x4 PUSH1 0x20 MSTORE PUSH1 0x40 SWAP1 KECCAK256 PUSH2 0x1F9F DUP7 PUSH2 0x12D7 JUMP JUMPDEST DUP1 ISZERO PUSH2 0x1FB1 JUMPI POP PUSH2 0x1FAF DUP7 PUSH2 0xD8A JUMP JUMPDEST ISZERO JUMPDEST ISZERO PUSH2 0x20A1 JUMPI PUSH1 0x0 PUSH1 0x3 DUP3 ADD SLOAD PUSH1 0xFF AND PUSH1 0x4 DUP2 GT ISZERO PUSH2 0x1FD1 JUMPI PUSH2 0x1FD1 PUSH2 0x2CC7 JUMP JUMPDEST SUB PUSH2 0x1FEF JUMPI DUP1 SLOAD PUSH2 0x1FEA SWAP1 PUSH1 0x1 PUSH1 0x1 PUSH1 0xA0 SHL SUB AND PUSH2 0xFFD JUMP JUMPDEST PUSH2 0x20A1 JUMP JUMPDEST PUSH1 0x1 PUSH1 0x3 DUP3 ADD SLOAD PUSH1 0xFF AND PUSH1 0x4 DUP2 GT ISZERO PUSH2 0x200A JUMPI PUSH2 0x200A PUSH2 0x2CC7 JUMP JUMPDEST SUB PUSH2 0x2023 JUMPI DUP1 SLOAD PUSH2 0x1FEA SWAP1 PUSH1 0x1 PUSH1 0x1 PUSH1 0xA0 SHL SUB AND PUSH2 0x89D JUMP JUMPDEST PUSH1 0x2 PUSH1 0x3 DUP3 ADD SLOAD PUSH1 0xFF AND PUSH1 0x4 DUP2 GT ISZERO PUSH2 0x203E JUMPI PUSH2 0x203E PUSH2 0x2CC7 JUMP JUMPDEST SUB PUSH2 0x2050 JUMPI PUSH2 0x1FEA DUP2 PUSH1 0x2 ADD SLOAD PUSH2 0x1CFB JUMP JUMPDEST PUSH1 0x3 DUP1 DUP3 ADD SLOAD PUSH1 0xFF AND PUSH1 0x4 DUP2 GT ISZERO PUSH2 0x206A JUMPI PUSH2 0x206A PUSH2 0x2CC7 JUMP JUMPDEST SUB PUSH2 0x2078 JUMPI PUSH2 0x1FEA DUP7 PUSH2 0x26B4 JUMP JUMPDEST PUSH1 0x4 PUSH1 0x3 DUP3 ADD SLOAD PUSH1 0xFF AND PUSH1 0x4 DUP2 GT ISZERO PUSH2 0x2093 JUMPI PUSH2 0x2093 PUSH2 0x2CC7 JUMP JUMPDEST SUB PUSH2 0x20A1 JUMPI PUSH2 0x20A1 DUP7 PUSH2 0x283B JUMP JUMPDEST POP POP POP POP POP POP JUMP JUMPDEST PUSH1 0xA SLOAD PUSH1 0x0 SWAP1 CALLER SWAP1 PUSH1 0x1 PUSH1 0x1 PUSH1 0xA0 SHL SUB AND DUP2 EQ PUSH2 0x20D8 JUMPI PUSH1 0x40 MLOAD PUSH3 0x461BCD PUSH1 0xE5 SHL DUP2 MSTORE PUSH1 0x4 ADD PUSH2 0x7C3 SWAP1 PUSH2 0x2DA9 JUMP JUMPDEST PUSH1 0x0 DUP1 DUP6 PUSH1 0x1 PUSH1 0x1 PUSH1 0xA0 SHL SUB AND DUP6 PUSH1 0x40 MLOAD PUSH1 0x0 PUSH1 0x40 MLOAD DUP1 DUP4 SUB DUP2 DUP6 DUP8 GAS CALL SWAP3 POP POP POP RETURNDATASIZE DUP1 PUSH1 0x0 DUP2 EQ PUSH2 0x2126 JUMPI PUSH1 0x40 MLOAD SWAP2 POP PUSH1 0x1F NOT PUSH1 0x3F RETURNDATASIZE ADD AND DUP3 ADD PUSH1 0x40 MSTORE RETURNDATASIZE DUP3 MSTORE RETURNDATASIZE PUSH1 0x0 PUSH1 0x20 DUP5 ADD RETURNDATACOPY PUSH2 0x212B JUMP JUMPDEST PUSH1 0x60 SWAP2 POP JUMPDEST POP SWAP2 POP SWAP2 POP DUP2 PUSH2 0x217D JUMPI PUSH1 0x40 MLOAD PUSH3 0x461BCD PUSH1 0xE5 SHL DUP2 MSTORE PUSH1 0x20 PUSH1 0x4 DUP3 ADD MSTORE PUSH1 0x18 PUSH1 0x24 DUP3 ADD MSTORE PUSH32 0x5769746864726177207472616E73666572206661696C65640000000000000000 PUSH1 0x44 DUP3 ADD MSTORE PUSH1 0x64 ADD PUSH2 0x7C3 JUMP JUMPDEST DUP6 PUSH1 0x1 PUSH1 0x1 PUSH1 0xA0 SHL SUB AND PUSH32 0x884EDAD9CE6FA2440D8A54CC123490EB96D2768479D49FF9C7366125A9424364 DUP7 PUSH1 0x40 MLOAD PUSH2 0x21B8 SWAP2 DUP2 MSTORE PUSH1 0x20 ADD SWAP1 JUMP JUMPDEST PUSH1 0x40 MLOAD DUP1 SWAP2 SUB SWAP1 LOG2 POP SWAP5 SWAP4 POP POP POP POP JUMP JUMPDEST PUSH1 0xA SLOAD CALLER SWAP1 PUSH1 0x1 PUSH1 0x1 PUSH1 0xA0 SHL SUB AND DUP2 EQ PUSH2 0x21F5 JUMPI PUSH1 0x40 MLOAD PUSH3 0x461BCD PUSH1 0xE5 SHL DUP2 MSTORE PUSH1 0x4 ADD PUSH2 0x7C3 SWAP1 PUSH2 0x2DA9 JUMP JUMPDEST PUSH1 0xA DUP1 SLOAD PUSH1 0x1 PUSH1 0x1 PUSH1 0xA0 SHL SUB NOT AND PUSH1 0x1 PUSH1 0x1 PUSH1 0xA0 SHL SUB DUP5 AND SWAP1 DUP2 OR SWAP1 SWAP2 SSTORE PUSH1 0x40 MLOAD PUSH32 0xC5DAAC221609FC28D95CB719AD6B3113C8112CE96E9DC6CDA5C7530EF20E36A3 SWAP1 PUSH1 0x0 SWAP1 LOG2 POP POP JUMP JUMPDEST PUSH1 0x0 DUP1 JUMPDEST DUP4 MLOAD DUP2 LT ISZERO PUSH2 0x2289 JUMPI DUP3 DUP5 DUP3 DUP2 MLOAD DUP2 LT PUSH2 0x2260 JUMPI PUSH2 0x2260 PUSH2 0x2EA0 JUMP JUMPDEST PUSH1 0x20 MUL PUSH1 0x20 ADD ADD MLOAD SUB PUSH2 0x2277 JUMPI PUSH1 0x1 SWAP2 POP POP PUSH2 0x897 JUMP JUMPDEST DUP1 PUSH2 0x2281 DUP2 PUSH2 0x2EB6 JUMP JUMPDEST SWAP2 POP POP PUSH2 0x2244 JUMP JUMPDEST POP PUSH1 0x0 SWAP4 SWAP3 POP POP POP JUMP JUMPDEST PUSH1 0x0 DUP6 PUSH1 0x1 PUSH1 0x1 PUSH1 0xA0 SHL SUB DUP2 AND PUSH2 0x22E2 JUMPI PUSH1 0x40 MLOAD PUSH3 0x461BCD PUSH1 0xE5 SHL DUP2 MSTORE PUSH1 0x20 PUSH1 0x4 DUP3 ADD MSTORE PUSH1 0x13 PUSH1 0x24 DUP3 ADD MSTORE PUSH19 0x151A19481859191C995CDCC81A5CC81B9D5B1B PUSH1 0x6A SHL PUSH1 0x44 DUP3 ADD MSTORE PUSH1 0x64 ADD PUSH2 0x7C3 JUMP JUMPDEST PUSH1 0x5 SLOAD SWAP2 POP DUP3 PUSH1 0x7 PUSH1 0x0 DUP5 DUP2 MSTORE PUSH1 0x20 ADD SWAP1 DUP2 MSTORE PUSH1 0x20 ADD PUSH1 0x0 KECCAK256 DUP2 SWAP1 SSTORE POP PUSH1 0x40 MLOAD DUP1 PUSH1 0xA0 ADD PUSH1 0x40 MSTORE DUP1 DUP9 PUSH1 0x1 PUSH1 0x1 PUSH1 0xA0 SHL SUB AND DUP2 MSTORE PUSH1 0x20 ADD DUP8 PUSH1 0x1 PUSH1 0x1 PUSH1 0xA0 SHL SUB AND DUP2 MSTORE PUSH1 0x20 ADD DUP7 DUP2 MSTORE PUSH1 0x20 ADD DUP6 PUSH1 0x4 DUP2 GT ISZERO PUSH2 0x2340 JUMPI PUSH2 0x2340 PUSH2 0x2CC7 JUMP JUMPDEST DUP2 MSTORE PUSH1 0x0 PUSH1 0x20 SWAP2 DUP3 ADD DUP2 SWAP1 MSTORE DUP6 DUP2 MSTORE PUSH1 0x4 DUP1 DUP4 MSTORE PUSH1 0x40 SWAP2 DUP3 SWAP1 KECCAK256 DUP5 MLOAD DUP2 SLOAD PUSH1 0x1 PUSH1 0x1 PUSH1 0xA0 SHL SUB SWAP2 DUP3 AND PUSH1 0x1 PUSH1 0x1 PUSH1 0xA0 SHL SUB NOT SWAP2 DUP3 AND OR DUP4 SSTORE SWAP5 DUP7 ADD MLOAD PUSH1 0x1 DUP4 DUP2 ADD DUP1 SLOAD SWAP3 SWAP1 SWAP4 AND SWAP2 SWAP1 SWAP7 AND OR SWAP1 SSTORE SWAP2 DUP5 ADD MLOAD PUSH1 0x2 DUP4 ADD SSTORE PUSH1 0x60 DUP5 ADD MLOAD PUSH1 0x3 DUP4 ADD DUP1 SLOAD SWAP4 SWAP5 SWAP2 SWAP4 SWAP1 SWAP3 PUSH1 0xFF NOT SWAP1 SWAP2 AND SWAP2 SWAP1 DUP5 SWAP1 DUP2 GT ISZERO PUSH2 0x23C1 JUMPI PUSH2 0x23C1 PUSH2 0x2CC7 JUMP JUMPDEST MUL OR SWAP1 SSTORE POP PUSH1 0x80 DUP3 ADD MLOAD DUP2 PUSH1 0x3 ADD PUSH1 0x1 PUSH2 0x100 EXP DUP2 SLOAD DUP2 PUSH1 0xFF MUL NOT AND SWAP1 DUP4 ISZERO ISZERO MUL OR SWAP1 SSTORE POP SWAP1 POP POP PUSH1 0x1 PUSH1 0x5 PUSH1 0x0 DUP3 DUP3 SLOAD PUSH2 0x23FC SWAP2 SWAP1 PUSH2 0x2EE5 JUMP JUMPDEST SWAP1 SWAP2 SSTORE POP SWAP2 SWAP8 SWAP7 POP POP POP POP POP POP POP JUMP JUMPDEST PUSH32 0xF0C57E16840DF040F15088DC2F81FE391C3923BEC73E23A9662EFC9C229C6A00 DUP1 SLOAD PUSH1 0x1 PUSH1 0x40 SHL DUP2 DIV PUSH1 0xFF AND ISZERO SWAP1 PUSH1 0x1 PUSH1 0x1 PUSH1 0x40 SHL SUB AND PUSH1 0x0 DUP2 ISZERO DUP1 ISZERO PUSH2 0x2451 JUMPI POP DUP3 JUMPDEST SWAP1 POP PUSH1 0x0 DUP3 PUSH1 0x1 PUSH1 0x1 PUSH1 0x40 SHL SUB AND PUSH1 0x1 EQ DUP1 ISZERO PUSH2 0x246D JUMPI POP ADDRESS EXTCODESIZE ISZERO JUMPDEST SWAP1 POP DUP2 ISZERO DUP1 ISZERO PUSH2 0x247B JUMPI POP DUP1 ISZERO JUMPDEST ISZERO PUSH2 0x2499 JUMPI PUSH1 0x40 MLOAD PUSH4 0xF92EE8A9 PUSH1 0xE0 SHL DUP2 MSTORE PUSH1 0x4 ADD PUSH1 0x40 MLOAD DUP1 SWAP2 SUB SWAP1 REVERT JUMPDEST DUP5 SLOAD PUSH8 0xFFFFFFFFFFFFFFFF NOT AND PUSH1 0x1 OR DUP6 SSTORE DUP4 ISZERO PUSH2 0x24C3 JUMPI DUP5 SLOAD PUSH1 0xFF PUSH1 0x40 SHL NOT AND PUSH1 0x1 PUSH1 0x40 SHL OR DUP6 SSTORE JUMPDEST DUP7 MLOAD DUP7 DUP2 DUP2 GT ISZERO DUP1 ISZERO PUSH2 0x24D5 JUMPI POP DUP1 ISZERO ISZERO JUMPDEST DUP1 ISZERO PUSH2 0x24E0 JUMPI POP DUP2 ISZERO ISZERO JUMPDEST PUSH2 0x24FC JUMPI PUSH1 0x40 MLOAD PUSH3 0x461BCD PUSH1 0xE5 SHL DUP2 MSTORE PUSH1 0x4 ADD PUSH2 0x7C3 SWAP1 PUSH2 0x2EF8 JUMP JUMPDEST PUSH1 0x0 JUMPDEST DUP10 MLOAD DUP2 LT ISZERO PUSH2 0x2656 JUMPI PUSH1 0x0 DUP1 DUP12 DUP4 DUP2 MLOAD DUP2 LT PUSH2 0x251D JUMPI PUSH2 0x251D PUSH2 0x2EA0 JUMP JUMPDEST PUSH1 0x20 SWAP1 DUP2 MUL SWAP2 SWAP1 SWAP2 ADD DUP2 ADD MLOAD PUSH1 0x1 PUSH1 0x1 PUSH1 0xA0 SHL SUB AND DUP3 MSTORE DUP2 ADD SWAP2 SWAP1 SWAP2 MSTORE PUSH1 0x40 ADD PUSH1 0x0 KECCAK256 SLOAD PUSH1 0xFF AND ISZERO DUP1 ISZERO PUSH2 0x257D JUMPI POP PUSH1 0x0 PUSH1 0x1 PUSH1 0x1 PUSH1 0xA0 SHL SUB AND DUP11 DUP3 DUP2 MLOAD DUP2 LT PUSH2 0x2569 JUMPI PUSH2 0x2569 PUSH2 0x2EA0 JUMP JUMPDEST PUSH1 0x20 MUL PUSH1 0x20 ADD ADD MLOAD PUSH1 0x1 PUSH1 0x1 PUSH1 0xA0 SHL SUB AND EQ ISZERO JUMPDEST PUSH2 0x25FB JUMPI PUSH1 0x40 MLOAD PUSH3 0x461BCD PUSH1 0xE5 SHL DUP2 MSTORE PUSH1 0x20 PUSH1 0x4 DUP3 ADD MSTORE PUSH1 0x43 PUSH1 0x24 DUP3 ADD MSTORE PUSH32 0x416464726573732073686F756C646E277420626520616C7265616479206C6973 PUSH1 0x44 DUP3 ADD MSTORE PUSH32 0x746564206173206F776E65722C206E6F722073686F756C64206974206265204E PUSH1 0x64 DUP3 ADD MSTORE PUSH3 0x155313 PUSH1 0xEA SHL PUSH1 0x84 DUP3 ADD MSTORE PUSH1 0xA4 ADD PUSH2 0x7C3 JUMP JUMPDEST PUSH1 0x1 PUSH1 0x0 DUP1 DUP13 DUP5 DUP2 MLOAD DUP2 LT PUSH2 0x2612 JUMPI PUSH2 0x2612 PUSH2 0x2EA0 JUMP JUMPDEST PUSH1 0x20 SWAP1 DUP2 MUL SWAP2 SWAP1 SWAP2 ADD DUP2 ADD MLOAD PUSH1 0x1 PUSH1 0x1 PUSH1 0xA0 SHL SUB AND DUP3 MSTORE DUP2 ADD SWAP2 SWAP1 SWAP2 MSTORE PUSH1 0x40 ADD PUSH1 0x0 KECCAK256 DUP1 SLOAD PUSH1 0xFF NOT AND SWAP2 ISZERO ISZERO SWAP2 SWAP1 SWAP2 OR SWAP1 SSTORE DUP1 PUSH2 0x264E DUP2 PUSH2 0x2EB6 JUMP JUMPDEST SWAP2 POP POP PUSH2 0x24FF JUMP JUMPDEST POP DUP9 MLOAD PUSH2 0x266A SWAP1 PUSH1 0x1 SWAP1 PUSH1 0x20 DUP13 ADD SWAP1 PUSH2 0x2A3E JUMP JUMPDEST POP POP POP PUSH1 0x2 DUP7 SWAP1 SSTORE DUP4 ISZERO PUSH2 0xFF4 JUMPI DUP5 SLOAD PUSH1 0xFF PUSH1 0x40 SHL NOT AND DUP6 SSTORE PUSH1 0x40 MLOAD PUSH1 0x1 DUP2 MSTORE PUSH32 0xC7F505B2F371AE2175EE4913F4499E1F2633A7B5936321EED1CDAEB6115181D2 SWAP1 PUSH1 0x20 ADD PUSH2 0xFEB JUMP JUMPDEST PUSH1 0x0 DUP2 DUP2 MSTORE PUSH1 0x7 PUSH1 0x20 SWAP1 DUP2 MSTORE PUSH1 0x40 DUP1 DUP4 KECCAK256 SLOAD PUSH1 0x9 DUP2 SWAP1 SSTORE DUP4 MSTORE PUSH1 0x4 SWAP1 SWAP2 MSTORE SWAP1 KECCAK256 PUSH1 0x2 DUP2 ADD SLOAD SELFBALANCE LT ISZERO PUSH2 0x2728 JUMPI PUSH1 0x40 MLOAD PUSH3 0x461BCD PUSH1 0xE5 SHL DUP2 MSTORE PUSH1 0x20 PUSH1 0x4 DUP3 ADD DUP2 SWAP1 MSTORE PUSH1 0x24 DUP3 ADD MSTORE PUSH32 0x496E73756666696369656E742062616C616E636520696E20636F6E7472616374 PUSH1 0x44 DUP3 ADD MSTORE PUSH1 0x64 ADD PUSH2 0x7C3 JUMP JUMPDEST DUP1 SLOAD PUSH1 0x2 DUP3 ADD SLOAD PUSH1 0x40 MLOAD PUSH1 0x0 SWAP3 PUSH1 0x1 PUSH1 0x1 PUSH1 0xA0 SHL SUB AND SWAP2 SWAP1 DUP4 DUP2 DUP2 DUP2 DUP6 DUP8 GAS CALL SWAP3 POP POP POP RETURNDATASIZE DUP1 PUSH1 0x0 DUP2 EQ PUSH2 0x2778 JUMPI PUSH1 0x40 MLOAD SWAP2 POP PUSH1 0x1F NOT PUSH1 0x3F RETURNDATASIZE ADD AND DUP3 ADD PUSH1 0x40 MSTORE RETURNDATASIZE DUP3 MSTORE RETURNDATASIZE PUSH1 0x0 PUSH1 0x20 DUP5 ADD RETURNDATACOPY PUSH2 0x277D JUMP JUMPDEST PUSH1 0x60 SWAP2 POP JUMPDEST POP POP SWAP1 POP DUP1 PUSH2 0x27CE JUMPI PUSH1 0x40 MLOAD PUSH3 0x461BCD PUSH1 0xE5 SHL DUP2 MSTORE PUSH1 0x20 PUSH1 0x4 DUP3 ADD MSTORE PUSH1 0x1B PUSH1 0x24 DUP3 ADD MSTORE PUSH32 0x4661696C656420746F2073656E64204E617469766520746F6B656E0000000000 PUSH1 0x44 DUP3 ADD MSTORE PUSH1 0x64 ADD PUSH2 0x7C3 JUMP JUMPDEST PUSH1 0x9 SLOAD PUSH1 0x0 SWAP1 DUP2 MSTORE PUSH1 0x4 PUSH1 0x20 MSTORE PUSH1 0x40 SWAP1 DUP2 SWAP1 KECCAK256 PUSH1 0x3 ADD DUP1 SLOAD PUSH2 0xFF00 NOT AND PUSH2 0x100 OR SWAP1 SSTORE PUSH1 0x2 DUP4 ADD SLOAD SWAP1 MLOAD PUSH32 0x5550EBCD63FE55CFEE39F1D5D38991F3A21DD4699AB7C41E14112310FD0F8778 SWAP2 PUSH2 0x282E SWAP2 DUP7 SWAP1 SWAP2 DUP3 MSTORE PUSH1 0x20 DUP3 ADD MSTORE PUSH1 0x40 ADD SWAP1 JUMP JUMPDEST PUSH1 0x40 MLOAD DUP1 SWAP2 SUB SWAP1 LOG1 POP POP POP JUMP JUMPDEST PUSH1 0x0 DUP2 DUP2 MSTORE PUSH1 0x7 PUSH1 0x20 SWAP1 DUP2 MSTORE PUSH1 0x40 DUP1 DUP4 KECCAK256 SLOAD PUSH1 0x9 DUP2 SWAP1 SSTORE DUP4 MSTORE PUSH1 0x4 SWAP2 DUP3 SWAP1 MSTORE DUP1 DUP4 KECCAK256 PUSH1 0x3 SLOAD PUSH1 0x1 DUP3 ADD SLOAD SWAP3 MLOAD PUSH4 0x6EB1769F PUSH1 0xE1 SHL DUP2 MSTORE PUSH1 0x1 PUSH1 0x1 PUSH1 0xA0 SHL SUB SWAP4 DUP5 AND SWAP5 DUP2 ADD SWAP5 SWAP1 SWAP5 MSTORE ADDRESS PUSH1 0x24 DUP6 ADD MSTORE SWAP1 SWAP4 SWAP3 SWAP2 AND SWAP1 PUSH4 0xDD62ED3E SWAP1 PUSH1 0x44 ADD PUSH1 0x20 PUSH1 0x40 MLOAD DUP1 DUP4 SUB DUP2 DUP7 GAS STATICCALL ISZERO DUP1 ISZERO PUSH2 0x28B5 JUMPI RETURNDATASIZE PUSH1 0x0 DUP1 RETURNDATACOPY RETURNDATASIZE PUSH1 0x0 REVERT JUMPDEST POP POP POP POP PUSH1 0x40 MLOAD RETURNDATASIZE PUSH1 0x1F NOT PUSH1 0x1F DUP3 ADD AND DUP3 ADD DUP1 PUSH1 0x40 MSTORE POP DUP2 ADD SWAP1 PUSH2 0x28D9 SWAP2 SWAP1 PUSH2 0x2FE2 JUMP JUMPDEST SWAP1 POP DUP2 PUSH1 0x2 ADD SLOAD DUP2 LT ISZERO PUSH2 0x2955 JUMPI PUSH1 0x40 MLOAD PUSH3 0x461BCD PUSH1 0xE5 SHL DUP2 MSTORE PUSH1 0x20 PUSH1 0x4 DUP3 ADD MSTORE PUSH1 0x37 PUSH1 0x24 DUP3 ADD MSTORE PUSH32 0x436F6E7472616374206973206E6F7420616C6C6F776564206279207573657220 PUSH1 0x44 DUP3 ADD MSTORE PUSH32 0x746F207472616E73666572207375636820616D6F756E74000000000000000000 PUSH1 0x64 DUP3 ADD MSTORE PUSH1 0x84 ADD PUSH2 0x7C3 JUMP JUMPDEST PUSH1 0x3 SLOAD PUSH1 0x1 DUP4 ADD SLOAD DUP4 SLOAD PUSH1 0x2 DUP6 ADD SLOAD PUSH1 0x40 MLOAD PUSH4 0x23B872DD PUSH1 0xE0 SHL DUP2 MSTORE PUSH1 0x1 PUSH1 0x1 PUSH1 0xA0 SHL SUB SWAP4 DUP5 AND PUSH1 0x4 DUP3 ADD MSTORE SWAP2 DUP4 AND PUSH1 0x24 DUP4 ADD MSTORE PUSH1 0x44 DUP3 ADD MSTORE SWAP2 AND SWAP1 PUSH4 0x23B872DD SWAP1 PUSH1 0x64 ADD PUSH1 0x20 PUSH1 0x40 MLOAD DUP1 DUP4 SUB DUP2 PUSH1 0x0 DUP8 GAS CALL ISZERO DUP1 ISZERO PUSH2 0x29B9 JUMPI RETURNDATASIZE PUSH1 0x0 DUP1 RETURNDATACOPY RETURNDATASIZE PUSH1 0x0 REVERT JUMPDEST POP POP POP POP PUSH1 0x40 MLOAD RETURNDATASIZE PUSH1 0x1F NOT PUSH1 0x1F DUP3 ADD AND DUP3 ADD DUP1 PUSH1 0x40 MSTORE POP DUP2 ADD SWAP1 PUSH2 0x29DD SWAP2 SWAP1 PUSH2 0x2FFB JUMP JUMPDEST POP PUSH1 0x9 SLOAD PUSH1 0x0 SWAP1 DUP2 MSTORE PUSH1 0x4 PUSH1 0x20 MSTORE PUSH1 0x40 SWAP1 DUP2 SWAP1 KECCAK256 PUSH1 0x3 ADD DUP1 SLOAD PUSH2 0xFF00 NOT AND PUSH2 0x100 OR SWAP1 SSTORE PUSH1 0x2 DUP4 ADD SLOAD SWAP1 MLOAD PUSH32 0x4645E2DFFCB6B5BE91555757773B76BBF2E4612DA04DB6995AEF42FACF6C2B52 SWAP2 PUSH2 0x282E SWAP2 DUP7 SWAP1 SWAP2 DUP3 MSTORE PUSH1 0x20 DUP3 ADD MSTORE PUSH1 0x40 ADD SWAP1 JUMP JUMPDEST DUP3 DUP1 SLOAD DUP3 DUP3 SSTORE SWAP1 PUSH1 0x0 MSTORE PUSH1 0x20 PUSH1 0x0 KECCAK256 SWAP1 DUP2 ADD SWAP3 DUP3 ISZERO PUSH2 0x2A93 JUMPI SWAP2 PUSH1 0x20 MUL DUP3 ADD JUMPDEST DUP3 DUP2 GT ISZERO PUSH2 0x2A93 JUMPI DUP3 MLOAD DUP3 SLOAD PUSH1 0x1 PUSH1 0x1 PUSH1 0xA0 SHL SUB NOT AND PUSH1 0x1 PUSH1 0x1 PUSH1 0xA0 SHL SUB SWAP1 SWAP2 AND OR DUP3 SSTORE PUSH1 0x20 SWAP1 SWAP3 ADD SWAP2 PUSH1 0x1 SWAP1 SWAP2 ADD SWAP1 PUSH2 0x2A5E JUMP JUMPDEST POP PUSH2 0x7D0 SWAP3 SWAP2 POP JUMPDEST DUP1 DUP3 GT ISZERO PUSH2 0x7D0 JUMPI PUSH1 0x0 DUP2 SSTORE PUSH1 0x1 ADD PUSH2 0x2A9B JUMP JUMPDEST PUSH1 0x0 PUSH1 0x20 DUP3 DUP5 SUB SLT ISZERO PUSH2 0x2AC1 JUMPI PUSH1 0x0 DUP1 REVERT JUMPDEST POP CALLDATALOAD SWAP2 SWAP1 POP JUMP JUMPDEST DUP1 CALLDATALOAD PUSH1 0x1 PUSH1 0x1 PUSH1 0xA0 SHL SUB DUP2 AND DUP2 EQ PUSH2 0x2ADF JUMPI PUSH1 0x0 DUP1 REVERT JUMPDEST SWAP2 SWAP1 POP JUMP JUMPDEST PUSH1 0x0 DUP1 PUSH1 0x40 DUP4 DUP6 SUB SLT ISZERO PUSH2 0x2AF7 JUMPI PUSH1 0x0 DUP1 REVERT JUMPDEST DUP3 CALLDATALOAD SWAP2 POP PUSH2 0x2B07 PUSH1 0x20 DUP5 ADD PUSH2 0x2AC8 JUMP JUMPDEST SWAP1 POP SWAP3 POP SWAP3 SWAP1 POP JUMP JUMPDEST PUSH1 0x0 PUSH1 0x20 DUP3 DUP5 SUB SLT ISZERO PUSH2 0x2B22 JUMPI PUSH1 0x0 DUP1 REVERT JUMPDEST PUSH2 0x2B2B DUP3 PUSH2 0x2AC8 JUMP JUMPDEST SWAP4 SWAP3 POP POP POP JUMP JUMPDEST PUSH1 0x0 DUP1 PUSH1 0x0 PUSH1 0x60 DUP5 DUP7 SUB SLT ISZERO PUSH2 0x2B47 JUMPI PUSH1 0x0 DUP1 REVERT JUMPDEST PUSH2 0x2B50 DUP5 PUSH2 0x2AC8 JUMP JUMPDEST SWAP3 POP PUSH1 0x20 DUP5 ADD CALLDATALOAD SWAP2 POP PUSH1 0x40 DUP5 ADD CALLDATALOAD PUSH1 0x5 DUP2 LT PUSH2 0x2B6B JUMPI PUSH1 0x0 DUP1 REVERT JUMPDEST DUP1 SWAP2 POP POP SWAP3 POP SWAP3 POP SWAP3 JUMP JUMPDEST PUSH4 0x4E487B71 PUSH1 0xE0 SHL PUSH1 0x0 MSTORE PUSH1 0x41 PUSH1 0x4 MSTORE PUSH1 0x24 PUSH1 0x0 REVERT JUMPDEST PUSH1 0x0 DUP3 PUSH1 0x1F DUP4 ADD SLT PUSH2 0x2B9D JUMPI PUSH1 0x0 DUP1 REVERT JUMPDEST DUP2 CALLDATALOAD PUSH1 0x20 PUSH1 0x1 PUSH1 0x1 PUSH1 0x40 SHL SUB DUP1 DUP4 GT ISZERO PUSH2 0x2BB9 JUMPI PUSH2 0x2BB9 PUSH2 0x2B76 JUMP JUMPDEST DUP3 PUSH1 0x5 SHL PUSH1 0x40 MLOAD PUSH1 0x1F NOT PUSH1 0x3F DUP4 ADD AND DUP2 ADD DUP2 DUP2 LT DUP5 DUP3 GT OR ISZERO PUSH2 0x2BDE JUMPI PUSH2 0x2BDE PUSH2 0x2B76 JUMP JUMPDEST PUSH1 0x40 MSTORE SWAP4 DUP5 MSTORE DUP6 DUP2 ADD DUP4 ADD SWAP4 DUP4 DUP2 ADD SWAP3 POP DUP8 DUP6 GT ISZERO PUSH2 0x2BFC JUMPI PUSH1 0x0 DUP1 REVERT JUMPDEST DUP4 DUP8 ADD SWAP2 POP JUMPDEST DUP5 DUP3 LT ISZERO PUSH2 0x2C22 JUMPI PUSH2 0x2C13 DUP3 PUSH2 0x2AC8 JUMP JUMPDEST DUP4 MSTORE SWAP2 DUP4 ADD SWAP2 SWAP1 DUP4 ADD SWAP1 PUSH2 0x2C02 JUMP JUMPDEST SWAP8 SWAP7 POP POP POP POP POP POP POP JUMP JUMPDEST PUSH1 0x0 DUP1 PUSH1 0x0 PUSH1 0x60 DUP5 DUP7 SUB SLT ISZERO PUSH2 0x2C42 JUMPI PUSH1 0x0 DUP1 REVERT JUMPDEST PUSH2 0x2C4B DUP5 PUSH2 0x2AC8 JUMP JUMPDEST SWAP3 POP PUSH1 0x20 DUP5 ADD CALLDATALOAD PUSH1 0x1 PUSH1 0x1 PUSH1 0x40 SHL SUB DUP2 GT ISZERO PUSH2 0x2C66 JUMPI PUSH1 0x0 DUP1 REVERT JUMPDEST PUSH2 0x2C72 DUP7 DUP3 DUP8 ADD PUSH2 0x2B8C JUMP JUMPDEST SWAP3 POP POP PUSH1 0x40 DUP5 ADD CALLDATALOAD SWAP1 POP SWAP3 POP SWAP3 POP SWAP3 JUMP JUMPDEST PUSH1 0x0 DUP1 PUSH1 0x40 DUP4 DUP6 SUB SLT ISZERO PUSH2 0x2C96 JUMPI PUSH1 0x0 DUP1 REVERT JUMPDEST DUP3 CALLDATALOAD PUSH1 0x1 PUSH1 0x1 PUSH1 0x40 SHL SUB DUP2 GT ISZERO PUSH2 0x2CAC JUMPI PUSH1 0x0 DUP1 REVERT JUMPDEST PUSH2 0x2CB8 DUP6 DUP3 DUP7 ADD PUSH2 0x2B8C JUMP JUMPDEST SWAP6 PUSH1 0x20 SWAP5 SWAP1 SWAP5 ADD CALLDATALOAD SWAP5 POP POP POP POP JUMP JUMPDEST PUSH4 0x4E487B71 PUSH1 0xE0 SHL PUSH1 0x0 MSTORE PUSH1 0x21 PUSH1 0x4 MSTORE PUSH1 0x24 PUSH1 0x0 REVERT JUMPDEST PUSH1 0x1 PUSH1 0x1 PUSH1 0xA0 SHL SUB DUP7 DUP2 AND DUP3 MSTORE DUP6 AND PUSH1 0x20 DUP3 ADD MSTORE PUSH1 0x40 DUP2 ADD DUP5 SWAP1 MSTORE PUSH1 0xA0 DUP2 ADD PUSH1 0x5 DUP5 LT PUSH2 0x2D1A JUMPI PUSH4 0x4E487B71 PUSH1 0xE0 SHL PUSH1 0x0 MSTORE PUSH1 0x21 PUSH1 0x4 MSTORE PUSH1 0x24 PUSH1 0x0 REVERT JUMPDEST DUP4 PUSH1 0x60 DUP4 ADD MSTORE DUP3 ISZERO ISZERO PUSH1 0x80 DUP4 ADD MSTORE SWAP7 SWAP6 POP POP POP POP POP POP JUMP JUMPDEST PUSH1 0x20 DUP1 DUP3 MSTORE DUP3 MLOAD DUP3 DUP3 ADD DUP2 SWAP1 MSTORE PUSH1 0x0 SWAP2 SWAP1 DUP5 DUP3 ADD SWAP1 PUSH1 0x40 DUP6 ADD SWAP1 DUP5 JUMPDEST DUP2 DUP2 LT ISZERO PUSH2 0x2D73 JUMPI DUP4 MLOAD PUSH1 0x1 PUSH1 0x1 PUSH1 0xA0 SHL SUB AND DUP4 MSTORE SWAP3 DUP5 ADD SWAP3 SWAP2 DUP5 ADD SWAP2 PUSH1 0x1 ADD PUSH2 0x2D4E JUMP JUMPDEST POP SWAP1 SWAP7 SWAP6 POP POP POP POP POP POP JUMP JUMPDEST PUSH1 0x0 DUP1 PUSH1 0x40 DUP4 DUP6 SUB SLT ISZERO PUSH2 0x2D92 JUMPI PUSH1 0x0 DUP1 REVERT JUMPDEST PUSH2 0x2D9B DUP4 PUSH2 0x2AC8 JUMP JUMPDEST SWAP5 PUSH1 0x20 SWAP4 SWAP1 SWAP4 ADD CALLDATALOAD SWAP4 POP POP POP JUMP JUMPDEST PUSH1 0x20 DUP1 DUP3 MSTORE PUSH1 0x2B SWAP1 DUP3 ADD MSTORE PUSH32 0x54686973206164647265737320646F65736E27742068617665204D6173746572 PUSH1 0x40 DUP3 ADD MSTORE PUSH11 0x2070726976696C65676573 PUSH1 0xA8 SHL PUSH1 0x60 DUP3 ADD MSTORE PUSH1 0x80 ADD SWAP1 JUMP JUMPDEST PUSH1 0x20 DUP1 DUP3 MSTORE PUSH1 0x2C SWAP1 DUP3 ADD MSTORE PUSH32 0x4E6F207472616E73616374696F6E20666F756E64206173736F63696174656420 PUSH1 0x40 DUP3 ADD MSTORE PUSH12 0x1DDA5D1A081D1A1A5CC81259 PUSH1 0xA2 SHL PUSH1 0x60 DUP3 ADD MSTORE PUSH1 0x80 ADD SWAP1 JUMP JUMPDEST PUSH1 0x20 DUP1 DUP3 MSTORE PUSH1 0x1C SWAP1 DUP3 ADD MSTORE PUSH32 0x546869732061646472657373206973206E6F7420616E206F776E657200000000 PUSH1 0x40 DUP3 ADD MSTORE PUSH1 0x60 ADD SWAP1 JUMP JUMPDEST PUSH4 0x4E487B71 PUSH1 0xE0 SHL PUSH1 0x0 MSTORE PUSH1 0x11 PUSH1 0x4 MSTORE PUSH1 0x24 PUSH1 0x0 REVERT JUMPDEST DUP2 DUP2 SUB DUP2 DUP2 GT ISZERO PUSH2 0x897 JUMPI PUSH2 0x897 PUSH2 0x2E77 JUMP JUMPDEST PUSH4 0x4E487B71 PUSH1 0xE0 SHL PUSH1 0x0 MSTORE PUSH1 0x32 PUSH1 0x4 MSTORE PUSH1 0x24 PUSH1 0x0 REVERT JUMPDEST PUSH1 0x0 PUSH1 0x1 DUP3 ADD PUSH2 0x2EC8 JUMPI PUSH2 0x2EC8 PUSH2 0x2E77 JUMP JUMPDEST POP PUSH1 0x1 ADD SWAP1 JUMP JUMPDEST PUSH4 0x4E487B71 PUSH1 0xE0 SHL PUSH1 0x0 MSTORE PUSH1 0x31 PUSH1 0x4 MSTORE PUSH1 0x24 PUSH1 0x0 REVERT JUMPDEST DUP1 DUP3 ADD DUP1 DUP3 GT ISZERO PUSH2 0x897 JUMPI PUSH2 0x897 PUSH2 0x2E77 JUMP JUMPDEST PUSH1 0x20 DUP1 DUP3 MSTORE PUSH1 0x16 SWAP1 DUP3 ADD MSTORE PUSH22 0x10DBDB991A5D1A5BDB9CC8185C99481B9BDD081B595D PUSH1 0x52 SHL PUSH1 0x40 DUP3 ADD MSTORE PUSH1 0x60 ADD SWAP1 JUMP JUMPDEST PUSH1 0x20 DUP1 DUP3 MSTORE PUSH1 0x31 SWAP1 DUP3 ADD MSTORE PUSH32 0x5468657265206973206E6F207472616E73616374696F6E206173736F63696174 PUSH1 0x40 DUP3 ADD MSTORE PUSH17 0x1959081D1BC81D1A1A5CC81A185CDA1259 PUSH1 0x7A SHL PUSH1 0x60 DUP3 ADD MSTORE PUSH1 0x80 ADD SWAP1 JUMP JUMPDEST PUSH1 0x20 DUP1 DUP3 MSTORE PUSH1 0x43 SWAP1 DUP3 ADD MSTORE PUSH32 0x546865207472616E73616374696F6E206173736F636961746564207769746820 PUSH1 0x40 DUP3 ADD MSTORE PUSH32 0x7468697320686173682068617320616C7265616479206265656E206578656375 PUSH1 0x60 DUP3 ADD MSTORE PUSH3 0x1D1959 PUSH1 0xEA SHL PUSH1 0x80 DUP3 ADD MSTORE PUSH1 0xA0 ADD SWAP1 JUMP JUMPDEST PUSH1 0x0 PUSH1 0x20 DUP3 DUP5 SUB SLT ISZERO PUSH2 0x2FF4 JUMPI PUSH1 0x0 DUP1 REVERT JUMPDEST POP MLOAD SWAP2 SWAP1 POP JUMP JUMPDEST PUSH1 0x0 PUSH1 0x20 DUP3 DUP5 SUB SLT ISZERO PUSH2 0x300D JUMPI PUSH1 0x0 DUP1 REVERT JUMPDEST DUP2 MLOAD DUP1 ISZERO ISZERO DUP2 EQ PUSH2 0x2B2B JUMPI PUSH1 0x0 DUP1 REVERT INVALID LOG2 PUSH5 0x6970667358 0x22 SLT KECCAK256 0xEA NOT DUP4 0xE0 0x22 SMOD PUSH12 0xE5279BDABA7E1E11B12DD130 NUMBER 0x26 0x2F 0x2E PUSH13 0x8ED1CA3D9514ECF864736F6C63 NUMBER STOP ADDMOD EQ STOP CALLER "},"gasEstimates":{"creation":{"codeDepositCost":"2474200","executionCost":"2665","totalCost":"2476865"},"external":{"":"1699","addOwner(address)":"83152","changeMaster(address)":"27968","changeQuorum(uint256)":"27916","confirmTransaction(uint256)":"59287","confirmations(bytes32,address)":"2686","deposit()":"1686","executeTransaction(uint256)":"infinite","getBalance()":"2539","getConfirmationCount(uint256)":"infinite","getConfirmations(uint256)":"infinite","getMaster()":"4581","getOwnerCount()":"2358","getOwners()":"infinite","getQuorum()":"2337","getRevocationCount(uint256)":"infinite","getRevocations(uint256)":"infinite","getTokenBalance()":"infinite","getTransactionCount()":"2404","getUserConfirmationStatus(uint256,address)":"infinite","hashId()":"2362","hashesId(uint256)":"4665","idToHashes(uint256)":"2570","initialize(address,address[],uint256)":"infinite","initialize(address[],uint256)":"infinite","isConfirmed(uint256)":"infinite","isOwner(address)":"2668","isRevoked(uint256)":"infinite","owners(uint256)":"4650","quorum()":"2341","removeOwner(address)":"infinite","revokeTransaction(uint256)":"59254","setTokenContractAddress(address)":"26834","submitTransaction(address,uint256,uint8)":"241088","transactionCount()":"2406","transactions(bytes32)":"9088","verifyOwner(address)":"2642","withdraw(address,uint256)":"infinite"}},"methodIdentifiers":{"addOwner(address)":"7065cb48","changeMaster(address)":"f4ff78bf","changeQuorum(uint256)":"d2cd96bd","confirmTransaction(uint256)":"c01a8c84","confirmations(bytes32,address)":"0c4ecab4","deposit()":"d0e30db0","executeTransaction(uint256)":"ee22610b","getBalance()":"12065fe0","getConfirmationCount(uint256)":"8b51d13f","getConfirmations(uint256)":"b5dc40c3","getMaster()":"5a99719e","getOwnerCount()":"ef18374a","getOwners()":"a0e67e2b","getQuorum()":"c26c12eb","getRevocationCount(uint256)":"c85c41e9","getRevocations(uint256)":"af05445a","getTokenBalance()":"82b2e257","getTransactionCount()":"2e7700f0","getUserConfirmationStatus(uint256,address)":"144dee38","hashId()":"c59bcee8","hashesId(uint256)":"29cd11b2","idToHashes(uint256)":"f6bdc030","initialize(address,address[],uint256)":"3ede50c6","initialize(address[],uint256)":"60b5bb3f","isConfirmed(uint256)":"784547a7","isOwner(address)":"2f54bf6e","isRevoked(uint256)":"5ccc561e","owners(uint256)":"025e7c27","quorum()":"1703a018","removeOwner(address)":"173825d9","revokeTransaction(uint256)":"735631ad","setTokenContractAddress(address)":"b23d4854","submitTransaction(address,uint256,uint8)":"3c680462","transactionCount()":"b77bf600","transactions(bytes32)":"642f2eaf","verifyOwner(address)":"8c85cd85","withdraw(address,uint256)":"f3fef3a3"}},"storageLayout":{"storage":[{"astId":417,"contract":"contracts/MultiSigMaster.sol:MultiSigMaster","label":"isOwner","offset":0,"slot":"0","type":"t_mapping(t_address,t_bool)"},{"astId":420,"contract":"contracts/MultiSigMaster.sol:MultiSigMaster","label":"owners","offset":0,"slot":"1","type":"t_array(t_address)dyn_storage"},{"astId":422,"contract":"contracts/MultiSigMaster.sol:MultiSigMaster","label":"quorum","offset":0,"slot":"2","type":"t_uint256"},{"astId":1071,"contract":"contracts/MultiSigMaster.sol:MultiSigMaster","label":"MyTokenContract","offset":0,"slot":"3","type":"t_contract(IERC20)331"},{"astId":1076,"contract":"contracts/MultiSigMaster.sol:MultiSigMaster","label":"transactions","offset":0,"slot":"4","type":"t_mapping(t_bytes32,t_struct(Transaction)1111_storage)"},{"astId":1078,"contract":"contracts/MultiSigMaster.sol:MultiSigMaster","label":"transactionCount","offset":0,"slot":"5","type":"t_uint256"},{"astId":1084,"contract":"contracts/MultiSigMaster.sol:MultiSigMaster","label":"confirmations","offset":0,"slot":"6","type":"t_mapping(t_bytes32,t_mapping(t_address,t_uint256))"},{"astId":1088,"contract":"contracts/MultiSigMaster.sol:MultiSigMaster","label":"idToHashes","offset":0,"slot":"7","type":"t_mapping(t_uint256,t_bytes32)"},{"astId":1091,"contract":"contracts/MultiSigMaster.sol:MultiSigMaster","label":"hashesId","offset":0,"slot":"8","type":"t_array(t_bytes32)dyn_storage"},{"astId":1093,"contract":"contracts/MultiSigMaster.sol:MultiSigMaster","label":"hashId","offset":0,"slot":"9","type":"t_bytes32"},{"astId":878,"contract":"contracts/MultiSigMaster.sol:MultiSigMaster","label":"Master","offset":0,"slot":"10","type":"t_address"}],"types":{"t_address":{"encoding":"inplace","label":"address","numberOfBytes":"20"},"t_array(t_address)dyn_storage":{"base":"t_address","encoding":"dynamic_array","label":"address[]","numberOfBytes":"32"},"t_array(t_bytes32)dyn_storage":{"base":"t_bytes32","encoding":"dynamic_array","label":"bytes32[]","numberOfBytes":"32"},"t_bool":{"encoding":"inplace","label":"bool","numberOfBytes":"1"},"t_bytes32":{"encoding":"inplace","label":"bytes32","numberOfBytes":"32"},"t_contract(IERC20)331":{"encoding":"inplace","label":"contract IERC20","numberOfBytes":"20"},"t_enum(TransactionType)1099":{"encoding":"inplace","label":"enum MultiSigTransaction.TransactionType","numberOfBytes":"1"},"t_mapping(t_address,t_bool)":{"encoding":"mapping","key":"t_address","label":"mapping(address => bool)","numberOfBytes":"32","value":"t_bool"},"t_mapping(t_address,t_uint256)":{"encoding":"mapping","key":"t_address","label":"mapping(address => uint256)","numberOfBytes":"32","value":"t_uint256"},"t_mapping(t_bytes32,t_mapping(t_address,t_uint256))":{"encoding":"mapping","key":"t_bytes32","label":"mapping(bytes32 => mapping(address => uint256))","numberOfBytes":"32","value":"t_mapping(t_address,t_uint256)"},"t_mapping(t_bytes32,t_struct(Transaction)1111_storage)":{"encoding":"mapping","key":"t_bytes32","label":"mapping(bytes32 => struct MultiSigTransaction.Transaction)","numberOfBytes":"32","value":"t_struct(Transaction)1111_storage"},"t_mapping(t_uint256,t_bytes32)":{"encoding":"mapping","key":"t_uint256","label":"mapping(uint256 => bytes32)","numberOfBytes":"32","value":"t_bytes32"},"t_struct(Transaction)1111_storage":{"encoding":"inplace","label":"struct MultiSigTransaction.Transaction","members":[{"astId":1101,"contract":"contracts/MultiSigMaster.sol:MultiSigMaster","label":"destination","offset":0,"slot":"0","type":"t_address"},{"astId":1103,"contract":"contracts/MultiSigMaster.sol:MultiSigMaster","label":"submitterAddress","offset":0,"slot":"1","type":"t_address"},{"astId":1105,"contract":"contracts/MultiSigMaster.sol:MultiSigMaster","label":"value","offset":0,"slot":"2","type":"t_uint256"},{"astId":1108,"contract":"contracts/MultiSigMaster.sol:MultiSigMaster","label":"transactionType","offset":0,"slot":"3","type":"t_enum(TransactionType)1099"},{"astId":1110,"contract":"contracts/MultiSigMaster.sol:MultiSigMaster","label":"executed","offset":1,"slot":"3","type":"t_bool"}],"numberOfBytes":"128"},"t_uint256":{"encoding":"inplace","label":"uint256","numberOfBytes":"32"}}},"userdoc":{"kind":"user","methods":{},"notice":"This contract should be used in scenarios where multi-signature functionality is         required along with a distinct master role capable of performing specific administrative         tasks. The contract ensures that only the designated master can call these sensitive functions.","version":1}}}}