{"contracts/MultiSigTransactions.sol":{"MultiSigTransaction":{"abi":[{"inputs":[],"name":"InvalidInitialization","type":"error"},{"inputs":[],"name":"NotInitializing","type":"error"},{"anonymous":false,"inputs":[{"indexed":true,"internalType":"address","name":"sender","type":"address"},{"indexed":false,"internalType":"uint256","name":"transactionId","type":"uint256"}],"name":"Confirmation","type":"event"},{"anonymous":false,"inputs":[{"indexed":true,"internalType":"address","name":"sender","type":"address"},{"indexed":false,"internalType":"uint256","name":"amount","type":"uint256"}],"name":"Deposit","type":"event"},{"anonymous":false,"inputs":[{"indexed":false,"internalType":"uint256","name":"amount","type":"uint256"},{"indexed":false,"internalType":"uint256","name":"transactionId","type":"uint256"}],"name":"ExecutionERC20","type":"event"},{"anonymous":false,"inputs":[{"indexed":false,"internalType":"uint256","name":"amount","type":"uint256"},{"indexed":false,"internalType":"uint256","name":"transactionId","type":"uint256"}],"name":"ExecutionNative","type":"event"},{"anonymous":false,"inputs":[{"indexed":false,"internalType":"uint64","name":"version","type":"uint64"}],"name":"Initialized","type":"event"},{"anonymous":false,"inputs":[{"indexed":true,"internalType":"address","name":"owner","type":"address"}],"name":"OwnerAddition","type":"event"},{"anonymous":false,"inputs":[{"indexed":true,"internalType":"address","name":"owner","type":"address"}],"name":"OwnerRemoval","type":"event"},{"anonymous":false,"inputs":[{"indexed":false,"internalType":"uint256","name":"quorum","type":"uint256"}],"name":"QuorumChanged","type":"event"},{"anonymous":false,"inputs":[{"indexed":true,"internalType":"address","name":"sender","type":"address"},{"indexed":false,"internalType":"uint256","name":"transactionId","type":"uint256"}],"name":"Revocation","type":"event"},{"anonymous":false,"inputs":[{"indexed":true,"internalType":"address","name":"destination","type":"address"},{"indexed":false,"internalType":"uint256","name":"transactionId","type":"uint256"}],"name":"Submission","type":"event"},{"stateMutability":"payable","type":"fallback"},{"inputs":[{"internalType":"address","name":"owner","type":"address"}],"name":"addOwner","outputs":[],"stateMutability":"nonpayable","type":"function"},{"inputs":[{"internalType":"uint256","name":"newQuorum","type":"uint256"}],"name":"changeQuorum","outputs":[],"stateMutability":"nonpayable","type":"function"},{"inputs":[{"internalType":"uint256","name":"transactionId","type":"uint256"}],"name":"confirmTransaction","outputs":[],"stateMutability":"nonpayable","type":"function"},{"inputs":[{"internalType":"bytes32","name":"","type":"bytes32"},{"internalType":"address","name":"","type":"address"}],"name":"confirmations","outputs":[{"internalType":"uint256","name":"","type":"uint256"}],"stateMutability":"view","type":"function"},{"inputs":[],"name":"deposit","outputs":[],"stateMutability":"payable","type":"function"},{"inputs":[{"internalType":"uint256","name":"transactionId","type":"uint256"}],"name":"executeTransaction","outputs":[],"stateMutability":"nonpayable","type":"function"},{"inputs":[{"internalType":"uint256","name":"transactionId","type":"uint256"}],"name":"getConfirmationCount","outputs":[{"internalType":"uint256","name":"count","type":"uint256"}],"stateMutability":"nonpayable","type":"function"},{"inputs":[{"internalType":"uint256","name":"transactionId","type":"uint256"}],"name":"getConfirmations","outputs":[{"internalType":"address[]","name":"_confirmations","type":"address[]"}],"stateMutability":"nonpayable","type":"function"},{"inputs":[],"name":"getOwnerCount","outputs":[{"internalType":"uint256","name":"res","type":"uint256"}],"stateMutability":"view","type":"function"},{"inputs":[],"name":"getOwners","outputs":[{"internalType":"address[]","name":"","type":"address[]"}],"stateMutability":"view","type":"function"},{"inputs":[],"name":"getQuorum","outputs":[{"internalType":"uint256","name":"res","type":"uint256"}],"stateMutability":"view","type":"function"},{"inputs":[{"internalType":"uint256","name":"transactionId","type":"uint256"}],"name":"getRevocationCount","outputs":[{"internalType":"uint256","name":"count","type":"uint256"}],"stateMutability":"nonpayable","type":"function"},{"inputs":[{"internalType":"uint256","name":"transactionId","type":"uint256"}],"name":"getRevocations","outputs":[{"internalType":"address[]","name":"_confirmations","type":"address[]"}],"stateMutability":"nonpayable","type":"function"},{"inputs":[],"name":"getTokenBalance","outputs":[{"internalType":"uint256","name":"bal","type":"uint256"}],"stateMutability":"view","type":"function"},{"inputs":[],"name":"getTransactionCount","outputs":[{"internalType":"uint256","name":"count","type":"uint256"}],"stateMutability":"view","type":"function"},{"inputs":[{"internalType":"uint256","name":"transactionId","type":"uint256"},{"internalType":"address","name":"owner","type":"address"}],"name":"getUserConfirmationStatus","outputs":[{"internalType":"bool","name":"","type":"bool"}],"stateMutability":"nonpayable","type":"function"},{"inputs":[],"name":"hashId","outputs":[{"internalType":"bytes32","name":"","type":"bytes32"}],"stateMutability":"view","type":"function"},{"inputs":[{"internalType":"uint256","name":"","type":"uint256"}],"name":"hashesId","outputs":[{"internalType":"bytes32","name":"","type":"bytes32"}],"stateMutability":"view","type":"function"},{"inputs":[{"internalType":"uint256","name":"","type":"uint256"}],"name":"idToHashes","outputs":[{"internalType":"bytes32","name":"","type":"bytes32"}],"stateMutability":"view","type":"function"},{"inputs":[{"internalType":"address[]","name":"_owners","type":"address[]"},{"internalType":"uint256","name":"_quorum","type":"uint256"}],"name":"initialize","outputs":[],"stateMutability":"nonpayable","type":"function"},{"inputs":[{"internalType":"uint256","name":"transactionId","type":"uint256"}],"name":"isConfirmed","outputs":[{"internalType":"bool","name":"res","type":"bool"}],"stateMutability":"nonpayable","type":"function"},{"inputs":[{"internalType":"address","name":"","type":"address"}],"name":"isOwner","outputs":[{"internalType":"bool","name":"","type":"bool"}],"stateMutability":"view","type":"function"},{"inputs":[{"internalType":"uint256","name":"transactionId","type":"uint256"}],"name":"isRevoked","outputs":[{"internalType":"bool","name":"res","type":"bool"}],"stateMutability":"nonpayable","type":"function"},{"inputs":[{"internalType":"uint256","name":"","type":"uint256"}],"name":"owners","outputs":[{"internalType":"address","name":"","type":"address"}],"stateMutability":"view","type":"function"},{"inputs":[],"name":"quorum","outputs":[{"internalType":"uint256","name":"","type":"uint256"}],"stateMutability":"view","type":"function"},{"inputs":[{"internalType":"address","name":"owner","type":"address"}],"name":"removeOwner","outputs":[],"stateMutability":"nonpayable","type":"function"},{"inputs":[{"internalType":"uint256","name":"transactionId","type":"uint256"}],"name":"revokeTransaction","outputs":[],"stateMutability":"nonpayable","type":"function"},{"inputs":[{"internalType":"address","name":"tokenContractAddress","type":"address"}],"name":"setTokenContractAddress","outputs":[],"stateMutability":"nonpayable","type":"function"},{"inputs":[{"internalType":"address","name":"destination","type":"address"},{"internalType":"uint256","name":"value","type":"uint256"},{"internalType":"enum MultiSigTransaction.TransactionType","name":"transactionType","type":"uint8"}],"name":"submitTransaction","outputs":[{"internalType":"uint256","name":"transactionId","type":"uint256"}],"stateMutability":"nonpayable","type":"function"},{"inputs":[],"name":"transactionCount","outputs":[{"internalType":"uint256","name":"","type":"uint256"}],"stateMutability":"view","type":"function"},{"inputs":[{"internalType":"bytes32","name":"","type":"bytes32"}],"name":"transactions","outputs":[{"internalType":"address","name":"destination","type":"address"},{"internalType":"address","name":"submitterAddress","type":"address"},{"internalType":"uint256","name":"value","type":"uint256"},{"internalType":"enum MultiSigTransaction.TransactionType","name":"transactionType","type":"uint8"},{"internalType":"bool","name":"executed","type":"bool"}],"stateMutability":"view","type":"function"},{"inputs":[{"internalType":"address","name":"addressToVerify","type":"address"}],"name":"verifyOwner","outputs":[{"internalType":"bool","name":"res","type":"bool"}],"stateMutability":"view","type":"function"},{"stateMutability":"payable","type":"receive"}],"devdoc":{"details":"Contract for handling multi-signature transactions including native and ERC20 token transfers.","errors":{"InvalidInitialization()":[{"details":"The contract is already initialized."}],"NotInitializing()":[{"details":"The contract is not initializing."}]},"events":{"Confirmation(address,uint256)":{"details":"Emitted when a transaction is confirmed by an owner.","params":{"sender":"The address of the owner who confirmed the transaction.","transactionId":"The ID of the confirmed transaction."}},"Deposit(address,uint256)":{"details":"Emitted when native tokens are deposited into the contract.","params":{"amount":"The amount of native tokens deposited.","sender":"The address of the sender who made the deposit."}},"ExecutionERC20(uint256,uint256)":{"details":"Emitted when an ERC20 token transaction is executed.","params":{"amount":"The amount of ERC20 tokens transferred.","transactionId":"The ID of the executed transaction."}},"ExecutionNative(uint256,uint256)":{"details":"Emitted when a native token transaction is executed.","params":{"amount":"The amount of native tokens transferred.","transactionId":"The ID of the executed transaction."}},"Initialized(uint64)":{"details":"Triggered when the contract has been initialized or reinitialized."},"OwnerAddition(address)":{"details":"Emitted when a new owner is added to the contract.","params":{"owner":"The address of the newly added owner."}},"OwnerRemoval(address)":{"details":"Emitted when an owner is removed from the contract.","params":{"owner":"The address of the owner being removed."}},"QuorumChanged(uint256)":{"details":"Emitted when the quorum requirement is changed.","params":{"quorum":"The new quorum requirement."}},"Revocation(address,uint256)":{"details":"Emitted when a transaction confirmation is revoked by an owner.","params":{"sender":"The address of the owner who revoked the transaction confirmation.","transactionId":"The ID of the transaction whose confirmation was revoked."}},"Submission(address,uint256)":{"details":"Emitted when a new transaction is submitted.","params":{"destination":"The destination address of the transaction.","transactionId":"The ID of the submitted transaction."}}},"kind":"dev","methods":{"addOwner(address)":{"details":"Adds a new owner to the contract. Restricted to existing owners.","params":{"owner":"The address to be added as a new owner."}},"changeQuorum(uint256)":{"details":"Changes the quorum requirement. Restricted to existing owners.","params":{"newQuorum":"The new quorum requirement."}},"confirmTransaction(uint256)":{"details":"Allows an owner to confirm a transaction. Emits a Confirmation event.","params":{"transactionId":"The ID of the transaction to be confirmed."}},"deposit()":{"details":"Allows anyone to deposit native tokens into the contract. Emits a Deposit event."},"executeTransaction(uint256)":{"details":"Executes a confirmed transaction. Determines the type of transaction and executes accordingly.","params":{"transactionId":"The ID of the transaction to be executed."}},"getConfirmationCount(uint256)":{"details":"Returns the number of confirmations for a transaction.","params":{"transactionId":"The ID of the transaction."},"returns":{"count":": The count of confirmations for the transaction."}},"getConfirmations(uint256)":{"details":"Returns an array of addresses that have confirmed a given transaction.","params":{"transactionId":"The ID of the transaction."},"returns":{"_confirmations":": A list of addresses that have confirmed the transaction."}},"getOwnerCount()":{"details":"Returns the total number of owners.","returns":{"res":": The total number of owners."}},"getOwners()":{"details":"Returns the list of current owners.","returns":{"_0":"The current list of owner addresses."}},"getQuorum()":{"details":"Returns the current quorum requirement.","returns":{"res":": The current quorum requirement."}},"getRevocationCount(uint256)":{"details":"Returns the number of revocations for a transaction.","params":{"transactionId":"The ID of the transaction."},"returns":{"count":": The count of revocations for the transaction."}},"getRevocations(uint256)":{"details":"Returns an array of addresses that have revoked a given transaction.","params":{"transactionId":"The ID of the transaction."},"returns":{"_confirmations":": A list of addresses that have revoked their confirmation for the transaction."}},"getTransactionCount()":{"details":"Returns the total number of transactions submitted to the contract.","returns":{"count":": The total count of transactions."}},"getUserConfirmationStatus(uint256,address)":{"details":"Checks if an owner has confirmed a transaction or not (revoked or not voted yet).","params":{"owner":"The address of the owner whose confirmation status is to be checked.","transactionId":"The ID of the transaction to check."},"returns":{"_0":"`true` if the owner has confirmed, `false` otherwise."}},"initialize(address[],uint256)":{"details":"Initializes the contract with a set of owners and a quorum requirement.      Extends the initialization functionality from MultiSigAdministration.","params":{"_owners":"List of initial owners.","_quorum":"The initial quorum requirement for transaction confirmations."}},"isConfirmed(uint256)":{"details":"Checks if a transaction has reached the required quorum of confirmations.","params":{"transactionId":"The ID of the transaction to check."},"returns":{"res":"`true` if the transaction is confirmed, `false` otherwise."}},"isRevoked(uint256)":{"details":"Checks if a transaction has reached the required quorum of revokations.","params":{"transactionId":"The ID of the transaction to check."},"returns":{"res":"`true` if the transaction is revoked, `false` otherwise."}},"removeOwner(address)":{"details":"Removes an existing owner from the contract. Restricted to existing owners.","params":{"owner":"The address of the owner to be removed."}},"revokeTransaction(uint256)":{"details":"Allows an owner to revoke their confirmation for a transaction. Emits a Revocation event.","params":{"transactionId":"The ID of the transaction for which the confirmation is to be revoked."}},"setTokenContractAddress(address)":{"details":"Sets the ERC20 token contract address for the contract.","params":{"tokenContractAddress":"The address of the ERC20 token contract."}},"submitTransaction(address,uint256,uint8)":{"details":"Allows an owner to submit a new transaction. Emits a Submission event.","params":{"destination":"The destination address for the transaction.","transactionType":"The type of transaction being submitted.","value":"The value (amount of native tokens or token ID) involved in the transaction."},"returns":{"transactionId":"The ID of the submitted transaction."}},"verifyOwner(address)":{"details":"Checks if a given address is an owner of the contract.","params":{"addressToVerify":"The address to be verified."},"returns":{"res":": `true` if the address is an owner, `false` otherwise."}}},"title":"Multi-Signature Transaction Contract","version":1},"evm":{"bytecode":{"linkReferences":{},"object":"608060405234801561001057600080fd5b50612b84806100206000396000f3fe6080604052600436106101e75760003560e01c80638b51d13f11610102578063c26c12eb11610095578063d2cd96bd11610064578063d2cd96bd146105e9578063ee22610b14610609578063ef18374a14610629578063f6bdc0301461063e576101f6565b8063c26c12eb1461059e578063c59bcee8146105b3578063c85c41e9146105c9578063d0e30db0146101f6576101f6565b8063b23d4854116100d1578063b23d485414610528578063b5dc40c314610548578063b77bf60014610568578063c01a8c841461057e576101f6565b80638b51d13f1461048d5780638c85cd85146104ad578063a0e67e2b146104e6578063af05445a14610508576101f6565b80633c6804621161017a5780637065cb48116101495780637065cb4814610418578063735631ad14610438578063784547a71461045857806382b2e25714610478576101f6565b80633c6804621461034c5780635ccc561e1461036c57806360b5bb3f1461038c578063642f2eaf146103ac576101f6565b8063173825d9116101b6578063173825d9146102c757806329cd11b2146102e75780632e7700f0146103075780632f54bf6e1461031c576101f6565b8063025e7c27146101fe5780630c4ecab41461023b578063144dee38146102815780631703a018146102b1576101f6565b366101f6576101f461066b565b005b6101f461066b565b34801561020a57600080fd5b5061021e6102193660046126c5565b6106a9565b6040516001600160a01b0390911681526020015b60405180910390f35b34801561024757600080fd5b506102736102563660046126fa565b600660209081526000928352604080842090915290825290205481565b604051908152602001610232565b34801561028d57600080fd5b506102a161029c3660046126fa565b6106d3565b6040519015158152602001610232565b3480156102bd57600080fd5b5061027360025481565b3480156102d357600080fd5b506101f46102e2366004612726565b6107a5565b3480156102f357600080fd5b506102736103023660046126c5565b6109f3565b34801561031357600080fd5b50600554610273565b34801561032857600080fd5b506102a1610337366004612726565b60006020819052908152604090205460ff1681565b34801561035857600080fd5b50610273610367366004612748565b610a14565b34801561037857600080fd5b506102a16103873660046126c5565b610b26565b34801561039857600080fd5b506101f46103a73660046127a2565b610c48565b3480156103b857600080fd5b506104076103c73660046126c5565b60046020526000908152604090208054600182015460028301546003909301546001600160a01b0392831693919092169160ff8082169161010090041685565b604051610232959493929190612883565b34801561042457600080fd5b506101f4610433366004612726565b610d9b565b34801561044457600080fd5b506101f46104533660046126c5565b610f58565b34801561046457600080fd5b506102a16104733660046126c5565b611075565b34801561048457600080fd5b50610273611190565b34801561049957600080fd5b506102736104a83660046126c5565b611208565b3480156104b957600080fd5b506102a16104c8366004612726565b6001600160a01b031660009081526020819052604090205460ff1690565b3480156104f257600080fd5b506104fb611313565b60405161023291906128d8565b34801561051457600080fd5b506104fb6105233660046126c5565b611375565b34801561053457600080fd5b506101f4610543366004612726565b6115d8565b34801561055457600080fd5b506104fb6105633660046126c5565b61162a565b34801561057457600080fd5b5061027360055481565b34801561058a57600080fd5b506101f46105993660046126c5565b611885565b3480156105aa57600080fd5b50600254610273565b3480156105bf57600080fd5b5061027360095481565b3480156105d557600080fd5b506102736105e43660046126c5565b611998565b3480156105f557600080fd5b506101f46106043660046126c5565b611a9d565b34801561061557600080fd5b506101f46106243660046126c5565b611b44565b34801561063557600080fd5b50600154610273565b34801561064a57600080fd5b506102736106593660046126c5565b60076020526000908152604090205481565b34156106a75760405134815233907fe1fffcc4923d04b559f4d29a8bfc6cda04eb5b0d3c460751c2402c5c5cc9109c9060200160405180910390a25b565b600181815481106106b957600080fd5b6000918252602090912001546001600160a01b0316905081565b6000828152600760209081526040808320546009556008805482518185028101850190935280835261073b9383018282801561072e57602002820191906000526020600020905b81548152602001906001019080831161071a575b5050505050600954611e4b565b6107605760405162461bcd60e51b815260040161075790612925565b60405180910390fd5b60095460009081526006602090815260408083206001600160a01b0386168452909152902054600181900361079957600191505061079f565b60009150505b92915050565b3360008181526020819052604090205460ff166107d45760405162461bcd60e51b815260040161075790612971565b6001600160a01b038216600090815260208190526040902054829060ff1661080e5760405162461bcd60e51b815260040161075790612971565b600180541161085f5760405162461bcd60e51b815260206004820152601760248201527f43616e27742072656d6f7665206c617374206f776e65720000000000000000006044820152606401610757565b6001805461086d91906129be565b6002541115610887576001805461088791610604916129be565b60005b6001805461089891906129be565b81101561096657836001600160a01b0316600182815481106108bc576108bc6129d1565b6000918252602090912001546001600160a01b03160361095457600180546108e59082906129be565b815481106108f5576108f56129d1565b600091825260209091200154600180546001600160a01b039092169183908110610921576109216129d1565b9060005260206000200160006101000a8154816001600160a01b0302191690836001600160a01b03160217905550610966565b8061095e816129e7565b91505061088a565b506001600160a01b0383166000908152602081905260409020805460ff19169055600180548061099857610998612a00565b600082815260208120820160001990810180546001600160a01b03191690559091019091556040516001600160a01b038516917f8001553a916ef2f495d26a907cc54d96ed840d7bda71e73194bf5a9df7a76b9091a2505050565b60088181548110610a0357600080fd5b600091825260209091200154905081565b3360008181526020819052604081205490919060ff16610a465760405162461bcd60e51b815260040161075790612971565b604080513360601b6bffffffffffffffffffffffff1916602080830191909152603482018790524260548084019190915283518084039091018152607490920190925280519101206009819055600880546001810182556000919091527ff3f7a9fe364faab93b216da50a3214154f22a0a2b415b23a84c8169e8b636ee301819055610ad9908690339087908790611e9e565b9150846001600160a01b03167f7353684080cb3af2a27a8f7a2ea1d406494bd8e78dadcfad3519da376da14bfb83604051610b1691815260200190565b60405180910390a2509392505050565b60008181526007602090815260408083205460095560088054825181850281018501909352808352610b8c9383018282801561072e576020028201919060005260206000209081548152602001906001019080831161071a575050505050600954611e4b565b610ba85760405162461bcd60e51b815260040161075790612925565b50600080805b600154811015610c4157600660006009548152602001908152602001600020600060018381548110610be257610be26129d1565b60009182526020808320909101546001600160a01b03168352820192909252604001902054600203610c1c57610c19600183612a16565b91505b6002548210610c2f575060019392505050565b80610c39816129e7565b915050610bae565b5050919050565b7ff0c57e16840df040f15088dc2f81fe391c3923bec73e23a9662efc9c229c6a008054600160401b810460ff16159067ffffffffffffffff16600081158015610c8e5750825b905060008267ffffffffffffffff166001148015610cab5750303b155b905081158015610cb9575080155b15610cd75760405163f92ee8a960e01b815260040160405180910390fd5b845467ffffffffffffffff191660011785558315610d0157845460ff60401b1916600160401b1785555b865186818111158015610d1357508015155b8015610d1e57508115155b610d3a5760405162461bcd60e51b815260040161075790612a29565b610d448989612017565b505060006005558315610d9257845460ff60401b19168555604051600181527fc7f505b2f371ae2175ee4913f4499e1f2633a7b5936321eed1cdaeb6115181d2906020015b60405180910390a15b50505050505050565b6001600160a01b038116600090815260208190526040902054819060ff1615610e065760405162461bcd60e51b815260206004820181905260248201527f54686973206164647265737320697320616c726561647920616e206f776e65726044820152606401610757565b3360008181526020819052604090205460ff16610e355760405162461bcd60e51b815260040161075790612971565b826001600160a01b038116610e825760405162461bcd60e51b8152602060048201526013602482015272151a19481859191c995cdcc81a5cc81b9d5b1b606a1b6044820152606401610757565b60018054610e8f91612a16565b600254818111158015610ea157508015155b8015610eac57508115155b610ec85760405162461bcd60e51b815260040161075790612a29565b6001600160a01b038616600081815260208190526040808220805460ff19166001908117909155805480820182559083527fb10e2d527612073b26eecdfd717e6a320cf44b4afac2b0732d9fcbe2b7fa0cf60180546001600160a01b03191684179055517ff39e6e1eb0edcf53c221607b54b00cd28f3196fed0a24994dc308b8f611b682d9190a2505050505050565b3360008181526020819052604090205460ff16610f875760405162461bcd60e51b815260040161075790612971565b6000828152600760209081526040808320548084526004909252909120546001600160a01b0316610fca5760405162461bcd60e51b815260040161075790612a59565b600083815260076020908152604080832054808452600490925290912060030154610100900460ff16156110105760405162461bcd60e51b815260040161075790612aaa565b6000848152600760209081526040808320546009819055835260068252808320338085529083529281902060029055518681527ff6a317157440607f36269043eb55f1287a5a19ba2216afeab88cd46cbcfb88e991015b60405180910390a250505050565b600081815260076020908152604080832054600955600880548251818502810185019093528083526110db9383018282801561072e576020028201919060005260206000209081548152602001906001019080831161071a575050505050600954611e4b565b6110f75760405162461bcd60e51b815260040161075790612925565b50600080805b600154811015610c4157600660006009548152602001908152602001600020600060018381548110611131576111316129d1565b60009182526020808320909101546001600160a01b0316835282019290925260400190205460010361116b57611168600183612a16565b91505b600254821061117e575060019392505050565b80611188816129e7565b9150506110fd565b600354604051636eb1769f60e11b81523360048201523060248201526000916001600160a01b03169063dd62ed3e90604401602060405180830381865afa1580156111df573d6000803e3d6000fd5b505050506040513d601f19601f820116820180604052508101906112039190612b13565b905090565b6000818152600760209081526040808320546009556008805482518185028101850190935280835261126e9383018282801561072e576020028201919060005260206000209081548152602001906001019080831161071a575050505050600954611e4b565b61128a5760405162461bcd60e51b815260040161075790612925565b60005b60015481101561130d576006600060095481526020019081526020016000206000600183815481106112c1576112c16129d1565b60009182526020808320909101546001600160a01b031683528201929092526040019020546001036112fb576112f8600183612a16565b91505b80611305816129e7565b91505061128d565b50919050565b6060600180548060200260200160405190810160405280929190818152602001828054801561136b57602002820191906000526020600020905b81546001600160a01b0316815260019091019060200180831161134d575b5050505050905090565b60008181526007602090815260409182902054600955600880548351818402810184019094528084526060936113e3939092919083018282801561072e576020028201919060005260206000209081548152602001906001019080831161071a575050505050600954611e4b565b6113ff5760405162461bcd60e51b815260040161075790612925565b60015460009067ffffffffffffffff81111561141d5761141d61278c565b604051908082528060200260200182016040528015611446578160200160208202803683370190505b5090506000805b60015481101561152857600660006009548152602001908152602001600020600060018381548110611481576114816129d1565b60009182526020808320909101546001600160a01b0316835282019290925260400190205460020361151657600181815481106114c0576114c06129d1565b9060005260206000200160009054906101000a90046001600160a01b03168383815181106114f0576114f06129d1565b6001600160a01b0390921660209283029190910190910152611513600183612a16565b91505b80611520816129e7565b91505061144d565b8167ffffffffffffffff8111156115415761154161278c565b60405190808252806020026020018201604052801561156a578160200160208202803683370190505b509350600090505b818110156115d05782818151811061158c5761158c6129d1565b60200260200101518482815181106115a6576115a66129d1565b6001600160a01b0390921660209283029190910190910152806115c8816129e7565b915050611572565b505050919050565b3360008181526020819052604090205460ff166116075760405162461bcd60e51b815260040161075790612971565b50600380546001600160a01b0319166001600160a01b0392909216919091179055565b6000818152600760209081526040918290205460095560088054835181840281018401909452808452606093611698939092919083018282801561072e576020028201919060005260206000209081548152602001906001019080831161071a575050505050600954611e4b565b6116b45760405162461bcd60e51b815260040161075790612925565b60015460009067ffffffffffffffff8111156116d2576116d261278c565b6040519080825280602002602001820160405280156116fb578160200160208202803683370190505b5090506000805b6001548110156117dd57600660006009548152602001908152602001600020600060018381548110611736576117366129d1565b60009182526020808320909101546001600160a01b031683528201929092526040019020546001036117cb5760018181548110611775576117756129d1565b9060005260206000200160009054906101000a90046001600160a01b03168383815181106117a5576117a56129d1565b6001600160a01b03909216602092830291909101909101526117c8600183612a16565b91505b806117d5816129e7565b915050611702565b8167ffffffffffffffff8111156117f6576117f661278c565b60405190808252806020026020018201604052801561181f578160200160208202803683370190505b509350600090505b818110156115d057828181518110611841576118416129d1565b602002602001015184828151811061185b5761185b6129d1565b6001600160a01b03909216602092830291909101909101528061187d816129e7565b915050611827565b3360008181526020819052604090205460ff166118b45760405162461bcd60e51b815260040161075790612971565b6000828152600760209081526040808320548084526004909252909120546001600160a01b03166118f75760405162461bcd60e51b815260040161075790612a59565b600083815260076020908152604080832054808452600490925290912060030154610100900460ff161561193d5760405162461bcd60e51b815260040161075790612aaa565b6000848152600760209081526040808320546009819055835260068252808320338085529083529281902060019055518681527f4a504a94899432a9846e1aa406dceb1bcfd538bb839071d49d1e5e23f5be30ef9101611067565b600081815260076020908152604080832054600955600880548251818502810185019093528083526119fe9383018282801561072e576020028201919060005260206000209081548152602001906001019080831161071a575050505050600954611e4b565b611a1a5760405162461bcd60e51b815260040161075790612925565b60005b60015481101561130d57600660006009548152602001908152602001600020600060018381548110611a5157611a516129d1565b60009182526020808320909101546001600160a01b03168352820192909252604001902054600203611a8b57611a88600183612a16565b91505b80611a95816129e7565b915050611a1d565b3360008181526020819052604090205460ff16611acc5760405162461bcd60e51b815260040161075790612971565b60015482818111801590611adf57508015155b8015611aea57508115155b611b065760405162461bcd60e51b815260040161075790612a29565b60028490556040518481527f027863d12a407097e086a48e36475bfc859d0b200b7e6f65b5fd3b218e46632e9060200160405180910390a150505050565b3360008181526020819052604090205460ff16611b735760405162461bcd60e51b815260040161075790612971565b81611b7d81611075565b80611b8c5750611b8c81610b26565b611bea5760405162461bcd60e51b815260206004820152602960248201527f51756f72756d20686173206e6f74206265656e2072656163686564206279206f6044820152681ddb995c9cc81e595d60ba1b6064820152608401610757565b82611bf481611075565b611c5d5760405162461bcd60e51b815260206004820152603460248201527f546865207472616e73616374696f6e20686173206e6f74206265656e20636f6e604482015273199a5c9b595908189e481bdddb995c9cc81e595d60621b6064820152608401610757565b600084815260076020908152604080832054808452600490925290912060030154610100900460ff1615611ca35760405162461bcd60e51b815260040161075790612aaa565b6000858152600760209081526040918290205460095560088054835181840281018401909452808452611d0b939283018282801561072e576020028201919060005260206000209081548152602001906001019080831161071a575050505050600954611e4b565b611d275760405162461bcd60e51b815260040161075790612925565b6009546000908152600460205260409020611d4186611075565b8015611d535750611d5186610b26565b155b15611e43576000600382015460ff166004811115611d7357611d7361286d565b03611d91578054611d8c906001600160a01b0316610d9b565b611e43565b6001600382015460ff166004811115611dac57611dac61286d565b03611dc5578054611d8c906001600160a01b03166107a5565b6002600382015460ff166004811115611de057611de061286d565b03611df257611d8c8160020154611a9d565b60038082015460ff166004811115611e0c57611e0c61286d565b03611e1a57611d8c866122c1565b6004600382015460ff166004811115611e3557611e3561286d565b03611e4357611e4386612448565b505050505050565b6000805b8351811015611e945782848281518110611e6b57611e6b6129d1565b602002602001015103611e8257600191505061079f565b80611e8c816129e7565b915050611e4f565b5060009392505050565b6000856001600160a01b038116611eed5760405162461bcd60e51b8152602060048201526013602482015272151a19481859191c995cdcc81a5cc81b9d5b1b606a1b6044820152606401610757565b60055491508260076000848152602001908152602001600020819055506040518060a00160405280886001600160a01b03168152602001876001600160a01b03168152602001868152602001856004811115611f4b57611f4b61286d565b8152600060209182018190528581526004808352604091829020845181546001600160a01b039182166001600160a01b031991821617835594860151600183810180549290931691909616179055918401516002830155606084015160038301805493949193909260ff1990911691908490811115611fcc57611fcc61286d565b021790555060808201518160030160016101000a81548160ff0219169083151502179055509050506001600560008282546120079190612a16565b9091555091979650505050505050565b7ff0c57e16840df040f15088dc2f81fe391c3923bec73e23a9662efc9c229c6a008054600160401b810460ff16159067ffffffffffffffff1660008115801561205d5750825b905060008267ffffffffffffffff16600114801561207a5750303b155b905081158015612088575080155b156120a65760405163f92ee8a960e01b815260040160405180910390fd5b845467ffffffffffffffff1916600117855583156120d057845460ff60401b1916600160401b1785555b8651868181111580156120e257508015155b80156120ed57508115155b6121095760405162461bcd60e51b815260040161075790612a29565b60005b8951811015612263576000808b838151811061212a5761212a6129d1565b6020908102919091018101516001600160a01b031682528101919091526040016000205460ff1615801561218a575060006001600160a01b03168a8281518110612176576121766129d1565b60200260200101516001600160a01b031614155b6122085760405162461bcd60e51b815260206004820152604360248201527f416464726573732073686f756c646e277420626520616c7265616479206c697360448201527f746564206173206f776e65722c206e6f722073686f756c64206974206265204e60648201526215531360ea1b608482015260a401610757565b60016000808c848151811061221f5761221f6129d1565b6020908102919091018101516001600160a01b03168252810191909152604001600020805460ff19169115159190911790558061225b816129e7565b91505061210c565b5088516122779060019060208c019061264b565b50505060028690558315610d9257845460ff60401b19168555604051600181527fc7f505b2f371ae2175ee4913f4499e1f2633a7b5936321eed1cdaeb6115181d290602001610d89565b600081815260076020908152604080832054600981905583526004909152902060028101544710156123355760405162461bcd60e51b815260206004820181905260248201527f496e73756666696369656e742062616c616e636520696e20636f6e74726163746044820152606401610757565b805460028201546040516000926001600160a01b031691908381818185875af1925050503d8060008114612385576040519150601f19603f3d011682016040523d82523d6000602084013e61238a565b606091505b50509050806123db5760405162461bcd60e51b815260206004820152601b60248201527f4661696c656420746f2073656e64204e617469766520746f6b656e00000000006044820152606401610757565b60095460009081526004602052604090819020600301805461ff001916610100179055600283015490517f5550ebcd63fe55cfee39f1d5d38991f3a21dd4699ab7c41e14112310fd0f87789161243b918690918252602082015260400190565b60405180910390a1505050565b6000818152600760209081526040808320546009819055835260049182905280832060035460018201549251636eb1769f60e11b81526001600160a01b039384169481019490945230602485015290939291169063dd62ed3e90604401602060405180830381865afa1580156124c2573d6000803e3d6000fd5b505050506040513d601f19601f820116820180604052508101906124e69190612b13565b905081600201548110156125625760405162461bcd60e51b815260206004820152603760248201527f436f6e7472616374206973206e6f7420616c6c6f77656420627920757365722060448201527f746f207472616e73666572207375636820616d6f756e740000000000000000006064820152608401610757565b6003546001830154835460028501546040516323b872dd60e01b81526001600160a01b039384166004820152918316602483015260448201529116906323b872dd906064016020604051808303816000875af11580156125c6573d6000803e3d6000fd5b505050506040513d601f19601f820116820180604052508101906125ea9190612b2c565b5060095460009081526004602052604090819020600301805461ff001916610100179055600283015490517f4645e2dffcb6b5be91555757773b76bbf2e4612da04db6995aef42facf6c2b529161243b918690918252602082015260400190565b8280548282559060005260206000209081019282156126a0579160200282015b828111156126a057825182546001600160a01b0319166001600160a01b0390911617825560209092019160019091019061266b565b506126ac9291506126b0565b5090565b5b808211156126ac57600081556001016126b1565b6000602082840312156126d757600080fd5b5035919050565b80356001600160a01b03811681146126f557600080fd5b919050565b6000806040838503121561270d57600080fd5b8235915061271d602084016126de565b90509250929050565b60006020828403121561273857600080fd5b612741826126de565b9392505050565b60008060006060848603121561275d57600080fd5b612766846126de565b92506020840135915060408401356005811061278157600080fd5b809150509250925092565b634e487b7160e01b600052604160045260246000fd5b600080604083850312156127b557600080fd5b823567ffffffffffffffff808211156127cd57600080fd5b818501915085601f8301126127e157600080fd5b81356020828211156127f5576127f561278c565b8160051b604051601f19603f8301168101818110868211171561281a5761281a61278c565b60405292835281830193508481018201928984111561283857600080fd5b948201945b8386101561285d5761284e866126de565b8552948201949382019361283d565b9997909101359750505050505050565b634e487b7160e01b600052602160045260246000fd5b6001600160a01b038681168252851660208201526040810184905260a08101600584106128c057634e487b7160e01b600052602160045260246000fd5b83606083015282151560808301529695505050505050565b6020808252825182820181905260009190848201906040850190845b818110156129195783516001600160a01b0316835292840192918401916001016128f4565b50909695505050505050565b6020808252602c908201527f4e6f207472616e73616374696f6e20666f756e64206173736f6369617465642060408201526b1dda5d1a081d1a1a5cc8125960a21b606082015260800190565b6020808252601c908201527f546869732061646472657373206973206e6f7420616e206f776e657200000000604082015260600190565b634e487b7160e01b600052601160045260246000fd5b8181038181111561079f5761079f6129a8565b634e487b7160e01b600052603260045260246000fd5b6000600182016129f9576129f96129a8565b5060010190565b634e487b7160e01b600052603160045260246000fd5b8082018082111561079f5761079f6129a8565b60208082526016908201527510dbdb991a5d1a5bdb9cc8185c99481b9bdd081b595d60521b604082015260600190565b60208082526031908201527f5468657265206973206e6f207472616e73616374696f6e206173736f636961746040820152701959081d1bc81d1a1a5cc81a185cda1259607a1b606082015260800190565b60208082526043908201527f546865207472616e73616374696f6e206173736f63696174656420776974682060408201527f7468697320686173682068617320616c7265616479206265656e2065786563756060820152621d195960ea1b608082015260a00190565b600060208284031215612b2557600080fd5b5051919050565b600060208284031215612b3e57600080fd5b8151801515811461274157600080fdfea2646970667358221220ae02cfc9601df0883e6d3df9ec90b66b3d4eaf6a9be980871273301c03b9f5cd64736f6c63430008140033","opcodes":"PUSH1 0x80 PUSH1 0x40 MSTORE CALLVALUE DUP1 ISZERO PUSH2 0x10 JUMPI PUSH1 0x0 DUP1 REVERT JUMPDEST POP PUSH2 0x2B84 DUP1 PUSH2 0x20 PUSH1 0x0 CODECOPY PUSH1 0x0 RETURN INVALID PUSH1 0x80 PUSH1 0x40 MSTORE PUSH1 0x4 CALLDATASIZE LT PUSH2 0x1E7 JUMPI PUSH1 0x0 CALLDATALOAD PUSH1 0xE0 SHR DUP1 PUSH4 0x8B51D13F GT PUSH2 0x102 JUMPI DUP1 PUSH4 0xC26C12EB GT PUSH2 0x95 JUMPI DUP1 PUSH4 0xD2CD96BD GT PUSH2 0x64 JUMPI DUP1 PUSH4 0xD2CD96BD EQ PUSH2 0x5E9 JUMPI DUP1 PUSH4 0xEE22610B EQ PUSH2 0x609 JUMPI DUP1 PUSH4 0xEF18374A EQ PUSH2 0x629 JUMPI DUP1 PUSH4 0xF6BDC030 EQ PUSH2 0x63E JUMPI PUSH2 0x1F6 JUMP JUMPDEST DUP1 PUSH4 0xC26C12EB EQ PUSH2 0x59E JUMPI DUP1 PUSH4 0xC59BCEE8 EQ PUSH2 0x5B3 JUMPI DUP1 PUSH4 0xC85C41E9 EQ PUSH2 0x5C9 JUMPI DUP1 PUSH4 0xD0E30DB0 EQ PUSH2 0x1F6 JUMPI PUSH2 0x1F6 JUMP JUMPDEST DUP1 PUSH4 0xB23D4854 GT PUSH2 0xD1 JUMPI DUP1 PUSH4 0xB23D4854 EQ PUSH2 0x528 JUMPI DUP1 PUSH4 0xB5DC40C3 EQ PUSH2 0x548 JUMPI DUP1 PUSH4 0xB77BF600 EQ PUSH2 0x568 JUMPI DUP1 PUSH4 0xC01A8C84 EQ PUSH2 0x57E JUMPI PUSH2 0x1F6 JUMP JUMPDEST DUP1 PUSH4 0x8B51D13F EQ PUSH2 0x48D JUMPI DUP1 PUSH4 0x8C85CD85 EQ PUSH2 0x4AD JUMPI DUP1 PUSH4 0xA0E67E2B EQ PUSH2 0x4E6 JUMPI DUP1 PUSH4 0xAF05445A EQ PUSH2 0x508 JUMPI PUSH2 0x1F6 JUMP JUMPDEST DUP1 PUSH4 0x3C680462 GT PUSH2 0x17A JUMPI DUP1 PUSH4 0x7065CB48 GT PUSH2 0x149 JUMPI DUP1 PUSH4 0x7065CB48 EQ PUSH2 0x418 JUMPI DUP1 PUSH4 0x735631AD EQ PUSH2 0x438 JUMPI DUP1 PUSH4 0x784547A7 EQ PUSH2 0x458 JUMPI DUP1 PUSH4 0x82B2E257 EQ PUSH2 0x478 JUMPI PUSH2 0x1F6 JUMP JUMPDEST DUP1 PUSH4 0x3C680462 EQ PUSH2 0x34C JUMPI DUP1 PUSH4 0x5CCC561E EQ PUSH2 0x36C JUMPI DUP1 PUSH4 0x60B5BB3F EQ PUSH2 0x38C JUMPI DUP1 PUSH4 0x642F2EAF EQ PUSH2 0x3AC JUMPI PUSH2 0x1F6 JUMP JUMPDEST DUP1 PUSH4 0x173825D9 GT PUSH2 0x1B6 JUMPI DUP1 PUSH4 0x173825D9 EQ PUSH2 0x2C7 JUMPI DUP1 PUSH4 0x29CD11B2 EQ PUSH2 0x2E7 JUMPI DUP1 PUSH4 0x2E7700F0 EQ PUSH2 0x307 JUMPI DUP1 PUSH4 0x2F54BF6E EQ PUSH2 0x31C JUMPI PUSH2 0x1F6 JUMP JUMPDEST DUP1 PUSH4 0x25E7C27 EQ PUSH2 0x1FE JUMPI DUP1 PUSH4 0xC4ECAB4 EQ PUSH2 0x23B JUMPI DUP1 PUSH4 0x144DEE38 EQ PUSH2 0x281 JUMPI DUP1 PUSH4 0x1703A018 EQ PUSH2 0x2B1 JUMPI PUSH2 0x1F6 JUMP JUMPDEST CALLDATASIZE PUSH2 0x1F6 JUMPI PUSH2 0x1F4 PUSH2 0x66B JUMP JUMPDEST STOP JUMPDEST PUSH2 0x1F4 PUSH2 0x66B JUMP JUMPDEST CALLVALUE DUP1 ISZERO PUSH2 0x20A JUMPI PUSH1 0x0 DUP1 REVERT JUMPDEST POP PUSH2 0x21E PUSH2 0x219 CALLDATASIZE PUSH1 0x4 PUSH2 0x26C5 JUMP JUMPDEST PUSH2 0x6A9 JUMP JUMPDEST PUSH1 0x40 MLOAD PUSH1 0x1 PUSH1 0x1 PUSH1 0xA0 SHL SUB SWAP1 SWAP2 AND DUP2 MSTORE PUSH1 0x20 ADD JUMPDEST PUSH1 0x40 MLOAD DUP1 SWAP2 SUB SWAP1 RETURN JUMPDEST CALLVALUE DUP1 ISZERO PUSH2 0x247 JUMPI PUSH1 0x0 DUP1 REVERT JUMPDEST POP PUSH2 0x273 PUSH2 0x256 CALLDATASIZE PUSH1 0x4 PUSH2 0x26FA JUMP JUMPDEST PUSH1 0x6 PUSH1 0x20 SWAP1 DUP2 MSTORE PUSH1 0x0 SWAP3 DUP4 MSTORE PUSH1 0x40 DUP1 DUP5 KECCAK256 SWAP1 SWAP2 MSTORE SWAP1 DUP3 MSTORE SWAP1 KECCAK256 SLOAD DUP2 JUMP JUMPDEST PUSH1 0x40 MLOAD SWAP1 DUP2 MSTORE PUSH1 0x20 ADD PUSH2 0x232 JUMP JUMPDEST CALLVALUE DUP1 ISZERO PUSH2 0x28D JUMPI PUSH1 0x0 DUP1 REVERT JUMPDEST POP PUSH2 0x2A1 PUSH2 0x29C CALLDATASIZE PUSH1 0x4 PUSH2 0x26FA JUMP JUMPDEST PUSH2 0x6D3 JUMP JUMPDEST PUSH1 0x40 MLOAD SWAP1 ISZERO ISZERO DUP2 MSTORE PUSH1 0x20 ADD PUSH2 0x232 JUMP JUMPDEST CALLVALUE DUP1 ISZERO PUSH2 0x2BD JUMPI PUSH1 0x0 DUP1 REVERT JUMPDEST POP PUSH2 0x273 PUSH1 0x2 SLOAD DUP2 JUMP JUMPDEST CALLVALUE DUP1 ISZERO PUSH2 0x2D3 JUMPI PUSH1 0x0 DUP1 REVERT JUMPDEST POP PUSH2 0x1F4 PUSH2 0x2E2 CALLDATASIZE PUSH1 0x4 PUSH2 0x2726 JUMP JUMPDEST PUSH2 0x7A5 JUMP JUMPDEST CALLVALUE DUP1 ISZERO PUSH2 0x2F3 JUMPI PUSH1 0x0 DUP1 REVERT JUMPDEST POP PUSH2 0x273 PUSH2 0x302 CALLDATASIZE PUSH1 0x4 PUSH2 0x26C5 JUMP JUMPDEST PUSH2 0x9F3 JUMP JUMPDEST CALLVALUE DUP1 ISZERO PUSH2 0x313 JUMPI PUSH1 0x0 DUP1 REVERT JUMPDEST POP PUSH1 0x5 SLOAD PUSH2 0x273 JUMP JUMPDEST CALLVALUE DUP1 ISZERO PUSH2 0x328 JUMPI PUSH1 0x0 DUP1 REVERT JUMPDEST POP PUSH2 0x2A1 PUSH2 0x337 CALLDATASIZE PUSH1 0x4 PUSH2 0x2726 JUMP JUMPDEST PUSH1 0x0 PUSH1 0x20 DUP2 SWAP1 MSTORE SWAP1 DUP2 MSTORE PUSH1 0x40 SWAP1 KECCAK256 SLOAD PUSH1 0xFF AND DUP2 JUMP JUMPDEST CALLVALUE DUP1 ISZERO PUSH2 0x358 JUMPI PUSH1 0x0 DUP1 REVERT JUMPDEST POP PUSH2 0x273 PUSH2 0x367 CALLDATASIZE PUSH1 0x4 PUSH2 0x2748 JUMP JUMPDEST PUSH2 0xA14 JUMP JUMPDEST CALLVALUE DUP1 ISZERO PUSH2 0x378 JUMPI PUSH1 0x0 DUP1 REVERT JUMPDEST POP PUSH2 0x2A1 PUSH2 0x387 CALLDATASIZE PUSH1 0x4 PUSH2 0x26C5 JUMP JUMPDEST PUSH2 0xB26 JUMP JUMPDEST CALLVALUE DUP1 ISZERO PUSH2 0x398 JUMPI PUSH1 0x0 DUP1 REVERT JUMPDEST POP PUSH2 0x1F4 PUSH2 0x3A7 CALLDATASIZE PUSH1 0x4 PUSH2 0x27A2 JUMP JUMPDEST PUSH2 0xC48 JUMP JUMPDEST CALLVALUE DUP1 ISZERO PUSH2 0x3B8 JUMPI PUSH1 0x0 DUP1 REVERT JUMPDEST POP PUSH2 0x407 PUSH2 0x3C7 CALLDATASIZE PUSH1 0x4 PUSH2 0x26C5 JUMP JUMPDEST PUSH1 0x4 PUSH1 0x20 MSTORE PUSH1 0x0 SWAP1 DUP2 MSTORE PUSH1 0x40 SWAP1 KECCAK256 DUP1 SLOAD PUSH1 0x1 DUP3 ADD SLOAD PUSH1 0x2 DUP4 ADD SLOAD PUSH1 0x3 SWAP1 SWAP4 ADD SLOAD PUSH1 0x1 PUSH1 0x1 PUSH1 0xA0 SHL SUB SWAP3 DUP4 AND SWAP4 SWAP2 SWAP1 SWAP3 AND SWAP2 PUSH1 0xFF DUP1 DUP3 AND SWAP2 PUSH2 0x100 SWAP1 DIV AND DUP6 JUMP JUMPDEST PUSH1 0x40 MLOAD PUSH2 0x232 SWAP6 SWAP5 SWAP4 SWAP3 SWAP2 SWAP1 PUSH2 0x2883 JUMP JUMPDEST CALLVALUE DUP1 ISZERO PUSH2 0x424 JUMPI PUSH1 0x0 DUP1 REVERT JUMPDEST POP PUSH2 0x1F4 PUSH2 0x433 CALLDATASIZE PUSH1 0x4 PUSH2 0x2726 JUMP JUMPDEST PUSH2 0xD9B JUMP JUMPDEST CALLVALUE DUP1 ISZERO PUSH2 0x444 JUMPI PUSH1 0x0 DUP1 REVERT JUMPDEST POP PUSH2 0x1F4 PUSH2 0x453 CALLDATASIZE PUSH1 0x4 PUSH2 0x26C5 JUMP JUMPDEST PUSH2 0xF58 JUMP JUMPDEST CALLVALUE DUP1 ISZERO PUSH2 0x464 JUMPI PUSH1 0x0 DUP1 REVERT JUMPDEST POP PUSH2 0x2A1 PUSH2 0x473 CALLDATASIZE PUSH1 0x4 PUSH2 0x26C5 JUMP JUMPDEST PUSH2 0x1075 JUMP JUMPDEST CALLVALUE DUP1 ISZERO PUSH2 0x484 JUMPI PUSH1 0x0 DUP1 REVERT JUMPDEST POP PUSH2 0x273 PUSH2 0x1190 JUMP JUMPDEST CALLVALUE DUP1 ISZERO PUSH2 0x499 JUMPI PUSH1 0x0 DUP1 REVERT JUMPDEST POP PUSH2 0x273 PUSH2 0x4A8 CALLDATASIZE PUSH1 0x4 PUSH2 0x26C5 JUMP JUMPDEST PUSH2 0x1208 JUMP JUMPDEST CALLVALUE DUP1 ISZERO PUSH2 0x4B9 JUMPI PUSH1 0x0 DUP1 REVERT JUMPDEST POP PUSH2 0x2A1 PUSH2 0x4C8 CALLDATASIZE PUSH1 0x4 PUSH2 0x2726 JUMP JUMPDEST PUSH1 0x1 PUSH1 0x1 PUSH1 0xA0 SHL SUB AND PUSH1 0x0 SWAP1 DUP2 MSTORE PUSH1 0x20 DUP2 SWAP1 MSTORE PUSH1 0x40 SWAP1 KECCAK256 SLOAD PUSH1 0xFF AND SWAP1 JUMP JUMPDEST CALLVALUE DUP1 ISZERO PUSH2 0x4F2 JUMPI PUSH1 0x0 DUP1 REVERT JUMPDEST POP PUSH2 0x4FB PUSH2 0x1313 JUMP JUMPDEST PUSH1 0x40 MLOAD PUSH2 0x232 SWAP2 SWAP1 PUSH2 0x28D8 JUMP JUMPDEST CALLVALUE DUP1 ISZERO PUSH2 0x514 JUMPI PUSH1 0x0 DUP1 REVERT JUMPDEST POP PUSH2 0x4FB PUSH2 0x523 CALLDATASIZE PUSH1 0x4 PUSH2 0x26C5 JUMP JUMPDEST PUSH2 0x1375 JUMP JUMPDEST CALLVALUE DUP1 ISZERO PUSH2 0x534 JUMPI PUSH1 0x0 DUP1 REVERT JUMPDEST POP PUSH2 0x1F4 PUSH2 0x543 CALLDATASIZE PUSH1 0x4 PUSH2 0x2726 JUMP JUMPDEST PUSH2 0x15D8 JUMP JUMPDEST CALLVALUE DUP1 ISZERO PUSH2 0x554 JUMPI PUSH1 0x0 DUP1 REVERT JUMPDEST POP PUSH2 0x4FB PUSH2 0x563 CALLDATASIZE PUSH1 0x4 PUSH2 0x26C5 JUMP JUMPDEST PUSH2 0x162A JUMP JUMPDEST CALLVALUE DUP1 ISZERO PUSH2 0x574 JUMPI PUSH1 0x0 DUP1 REVERT JUMPDEST POP PUSH2 0x273 PUSH1 0x5 SLOAD DUP2 JUMP JUMPDEST CALLVALUE DUP1 ISZERO PUSH2 0x58A JUMPI PUSH1 0x0 DUP1 REVERT JUMPDEST POP PUSH2 0x1F4 PUSH2 0x599 CALLDATASIZE PUSH1 0x4 PUSH2 0x26C5 JUMP JUMPDEST PUSH2 0x1885 JUMP JUMPDEST CALLVALUE DUP1 ISZERO PUSH2 0x5AA JUMPI PUSH1 0x0 DUP1 REVERT JUMPDEST POP PUSH1 0x2 SLOAD PUSH2 0x273 JUMP JUMPDEST CALLVALUE DUP1 ISZERO PUSH2 0x5BF JUMPI PUSH1 0x0 DUP1 REVERT JUMPDEST POP PUSH2 0x273 PUSH1 0x9 SLOAD DUP2 JUMP JUMPDEST CALLVALUE DUP1 ISZERO PUSH2 0x5D5 JUMPI PUSH1 0x0 DUP1 REVERT JUMPDEST POP PUSH2 0x273 PUSH2 0x5E4 CALLDATASIZE PUSH1 0x4 PUSH2 0x26C5 JUMP JUMPDEST PUSH2 0x1998 JUMP JUMPDEST CALLVALUE DUP1 ISZERO PUSH2 0x5F5 JUMPI PUSH1 0x0 DUP1 REVERT JUMPDEST POP PUSH2 0x1F4 PUSH2 0x604 CALLDATASIZE PUSH1 0x4 PUSH2 0x26C5 JUMP JUMPDEST PUSH2 0x1A9D JUMP JUMPDEST CALLVALUE DUP1 ISZERO PUSH2 0x615 JUMPI PUSH1 0x0 DUP1 REVERT JUMPDEST POP PUSH2 0x1F4 PUSH2 0x624 CALLDATASIZE PUSH1 0x4 PUSH2 0x26C5 JUMP JUMPDEST PUSH2 0x1B44 JUMP JUMPDEST CALLVALUE DUP1 ISZERO PUSH2 0x635 JUMPI PUSH1 0x0 DUP1 REVERT JUMPDEST POP PUSH1 0x1 SLOAD PUSH2 0x273 JUMP JUMPDEST CALLVALUE DUP1 ISZERO PUSH2 0x64A JUMPI PUSH1 0x0 DUP1 REVERT JUMPDEST POP PUSH2 0x273 PUSH2 0x659 CALLDATASIZE PUSH1 0x4 PUSH2 0x26C5 JUMP JUMPDEST PUSH1 0x7 PUSH1 0x20 MSTORE PUSH1 0x0 SWAP1 DUP2 MSTORE PUSH1 0x40 SWAP1 KECCAK256 SLOAD DUP2 JUMP JUMPDEST CALLVALUE ISZERO PUSH2 0x6A7 JUMPI PUSH1 0x40 MLOAD CALLVALUE DUP2 MSTORE CALLER SWAP1 PUSH32 0xE1FFFCC4923D04B559F4D29A8BFC6CDA04EB5B0D3C460751C2402C5C5CC9109C SWAP1 PUSH1 0x20 ADD PUSH1 0x40 MLOAD DUP1 SWAP2 SUB SWAP1 LOG2 JUMPDEST JUMP JUMPDEST PUSH1 0x1 DUP2 DUP2 SLOAD DUP2 LT PUSH2 0x6B9 JUMPI PUSH1 0x0 DUP1 REVERT JUMPDEST PUSH1 0x0 SWAP2 DUP3 MSTORE PUSH1 0x20 SWAP1 SWAP2 KECCAK256 ADD SLOAD PUSH1 0x1 PUSH1 0x1 PUSH1 0xA0 SHL SUB AND SWAP1 POP DUP2 JUMP JUMPDEST PUSH1 0x0 DUP3 DUP2 MSTORE PUSH1 0x7 PUSH1 0x20 SWAP1 DUP2 MSTORE PUSH1 0x40 DUP1 DUP4 KECCAK256 SLOAD PUSH1 0x9 SSTORE PUSH1 0x8 DUP1 SLOAD DUP3 MLOAD DUP2 DUP6 MUL DUP2 ADD DUP6 ADD SWAP1 SWAP4 MSTORE DUP1 DUP4 MSTORE PUSH2 0x73B SWAP4 DUP4 ADD DUP3 DUP3 DUP1 ISZERO PUSH2 0x72E JUMPI PUSH1 0x20 MUL DUP3 ADD SWAP2 SWAP1 PUSH1 0x0 MSTORE PUSH1 0x20 PUSH1 0x0 KECCAK256 SWAP1 JUMPDEST DUP2 SLOAD DUP2 MSTORE PUSH1 0x20 ADD SWAP1 PUSH1 0x1 ADD SWAP1 DUP1 DUP4 GT PUSH2 0x71A JUMPI JUMPDEST POP POP POP POP POP PUSH1 0x9 SLOAD PUSH2 0x1E4B JUMP JUMPDEST PUSH2 0x760 JUMPI PUSH1 0x40 MLOAD PUSH3 0x461BCD PUSH1 0xE5 SHL DUP2 MSTORE PUSH1 0x4 ADD PUSH2 0x757 SWAP1 PUSH2 0x2925 JUMP JUMPDEST PUSH1 0x40 MLOAD DUP1 SWAP2 SUB SWAP1 REVERT JUMPDEST PUSH1 0x9 SLOAD PUSH1 0x0 SWAP1 DUP2 MSTORE PUSH1 0x6 PUSH1 0x20 SWAP1 DUP2 MSTORE PUSH1 0x40 DUP1 DUP4 KECCAK256 PUSH1 0x1 PUSH1 0x1 PUSH1 0xA0 SHL SUB DUP7 AND DUP5 MSTORE SWAP1 SWAP2 MSTORE SWAP1 KECCAK256 SLOAD PUSH1 0x1 DUP2 SWAP1 SUB PUSH2 0x799 JUMPI PUSH1 0x1 SWAP2 POP POP PUSH2 0x79F JUMP JUMPDEST PUSH1 0x0 SWAP2 POP POP JUMPDEST SWAP3 SWAP2 POP POP JUMP JUMPDEST CALLER PUSH1 0x0 DUP2 DUP2 MSTORE PUSH1 0x20 DUP2 SWAP1 MSTORE PUSH1 0x40 SWAP1 KECCAK256 SLOAD PUSH1 0xFF AND PUSH2 0x7D4 JUMPI PUSH1 0x40 MLOAD PUSH3 0x461BCD PUSH1 0xE5 SHL DUP2 MSTORE PUSH1 0x4 ADD PUSH2 0x757 SWAP1 PUSH2 0x2971 JUMP JUMPDEST PUSH1 0x1 PUSH1 0x1 PUSH1 0xA0 SHL SUB DUP3 AND PUSH1 0x0 SWAP1 DUP2 MSTORE PUSH1 0x20 DUP2 SWAP1 MSTORE PUSH1 0x40 SWAP1 KECCAK256 SLOAD DUP3 SWAP1 PUSH1 0xFF AND PUSH2 0x80E JUMPI PUSH1 0x40 MLOAD PUSH3 0x461BCD PUSH1 0xE5 SHL DUP2 MSTORE PUSH1 0x4 ADD PUSH2 0x757 SWAP1 PUSH2 0x2971 JUMP JUMPDEST PUSH1 0x1 DUP1 SLOAD GT PUSH2 0x85F JUMPI PUSH1 0x40 MLOAD PUSH3 0x461BCD PUSH1 0xE5 SHL DUP2 MSTORE PUSH1 0x20 PUSH1 0x4 DUP3 ADD MSTORE PUSH1 0x17 PUSH1 0x24 DUP3 ADD MSTORE PUSH32 0x43616E27742072656D6F7665206C617374206F776E6572000000000000000000 PUSH1 0x44 DUP3 ADD MSTORE PUSH1 0x64 ADD PUSH2 0x757 JUMP JUMPDEST PUSH1 0x1 DUP1 SLOAD PUSH2 0x86D SWAP2 SWAP1 PUSH2 0x29BE JUMP JUMPDEST PUSH1 0x2 SLOAD GT ISZERO PUSH2 0x887 JUMPI PUSH1 0x1 DUP1 SLOAD PUSH2 0x887 SWAP2 PUSH2 0x604 SWAP2 PUSH2 0x29BE JUMP JUMPDEST PUSH1 0x0 JUMPDEST PUSH1 0x1 DUP1 SLOAD PUSH2 0x898 SWAP2 SWAP1 PUSH2 0x29BE JUMP JUMPDEST DUP2 LT ISZERO PUSH2 0x966 JUMPI DUP4 PUSH1 0x1 PUSH1 0x1 PUSH1 0xA0 SHL SUB AND PUSH1 0x1 DUP3 DUP2 SLOAD DUP2 LT PUSH2 0x8BC JUMPI PUSH2 0x8BC PUSH2 0x29D1 JUMP JUMPDEST PUSH1 0x0 SWAP2 DUP3 MSTORE PUSH1 0x20 SWAP1 SWAP2 KECCAK256 ADD SLOAD PUSH1 0x1 PUSH1 0x1 PUSH1 0xA0 SHL SUB AND SUB PUSH2 0x954 JUMPI PUSH1 0x1 DUP1 SLOAD PUSH2 0x8E5 SWAP1 DUP3 SWAP1 PUSH2 0x29BE JUMP JUMPDEST DUP2 SLOAD DUP2 LT PUSH2 0x8F5 JUMPI PUSH2 0x8F5 PUSH2 0x29D1 JUMP JUMPDEST PUSH1 0x0 SWAP2 DUP3 MSTORE PUSH1 0x20 SWAP1 SWAP2 KECCAK256 ADD SLOAD PUSH1 0x1 DUP1 SLOAD PUSH1 0x1 PUSH1 0x1 PUSH1 0xA0 SHL SUB SWAP1 SWAP3 AND SWAP2 DUP4 SWAP1 DUP2 LT PUSH2 0x921 JUMPI PUSH2 0x921 PUSH2 0x29D1 JUMP JUMPDEST SWAP1 PUSH1 0x0 MSTORE PUSH1 0x20 PUSH1 0x0 KECCAK256 ADD PUSH1 0x0 PUSH2 0x100 EXP DUP2 SLOAD DUP2 PUSH1 0x1 PUSH1 0x1 PUSH1 0xA0 SHL SUB MUL NOT AND SWAP1 DUP4 PUSH1 0x1 PUSH1 0x1 PUSH1 0xA0 SHL SUB AND MUL OR SWAP1 SSTORE POP PUSH2 0x966 JUMP JUMPDEST DUP1 PUSH2 0x95E DUP2 PUSH2 0x29E7 JUMP JUMPDEST SWAP2 POP POP PUSH2 0x88A JUMP JUMPDEST POP PUSH1 0x1 PUSH1 0x1 PUSH1 0xA0 SHL SUB DUP4 AND PUSH1 0x0 SWAP1 DUP2 MSTORE PUSH1 0x20 DUP2 SWAP1 MSTORE PUSH1 0x40 SWAP1 KECCAK256 DUP1 SLOAD PUSH1 0xFF NOT AND SWAP1 SSTORE PUSH1 0x1 DUP1 SLOAD DUP1 PUSH2 0x998 JUMPI PUSH2 0x998 PUSH2 0x2A00 JUMP JUMPDEST PUSH1 0x0 DUP3 DUP2 MSTORE PUSH1 0x20 DUP2 KECCAK256 DUP3 ADD PUSH1 0x0 NOT SWAP1 DUP2 ADD DUP1 SLOAD PUSH1 0x1 PUSH1 0x1 PUSH1 0xA0 SHL SUB NOT AND SWAP1 SSTORE SWAP1 SWAP2 ADD SWAP1 SWAP2 SSTORE PUSH1 0x40 MLOAD PUSH1 0x1 PUSH1 0x1 PUSH1 0xA0 SHL SUB DUP6 AND SWAP2 PUSH32 0x8001553A916EF2F495D26A907CC54D96ED840D7BDA71E73194BF5A9DF7A76B90 SWAP2 LOG2 POP POP POP JUMP JUMPDEST PUSH1 0x8 DUP2 DUP2 SLOAD DUP2 LT PUSH2 0xA03 JUMPI PUSH1 0x0 DUP1 REVERT JUMPDEST PUSH1 0x0 SWAP2 DUP3 MSTORE PUSH1 0x20 SWAP1 SWAP2 KECCAK256 ADD SLOAD SWAP1 POP DUP2 JUMP JUMPDEST CALLER PUSH1 0x0 DUP2 DUP2 MSTORE PUSH1 0x20 DUP2 SWAP1 MSTORE PUSH1 0x40 DUP2 KECCAK256 SLOAD SWAP1 SWAP2 SWAP1 PUSH1 0xFF AND PUSH2 0xA46 JUMPI PUSH1 0x40 MLOAD PUSH3 0x461BCD PUSH1 0xE5 SHL DUP2 MSTORE PUSH1 0x4 ADD PUSH2 0x757 SWAP1 PUSH2 0x2971 JUMP JUMPDEST PUSH1 0x40 DUP1 MLOAD CALLER PUSH1 0x60 SHL PUSH12 0xFFFFFFFFFFFFFFFFFFFFFFFF NOT AND PUSH1 0x20 DUP1 DUP4 ADD SWAP2 SWAP1 SWAP2 MSTORE PUSH1 0x34 DUP3 ADD DUP8 SWAP1 MSTORE TIMESTAMP PUSH1 0x54 DUP1 DUP5 ADD SWAP2 SWAP1 SWAP2 MSTORE DUP4 MLOAD DUP1 DUP5 SUB SWAP1 SWAP2 ADD DUP2 MSTORE PUSH1 0x74 SWAP1 SWAP3 ADD SWAP1 SWAP3 MSTORE DUP1 MLOAD SWAP2 ADD KECCAK256 PUSH1 0x9 DUP2 SWAP1 SSTORE PUSH1 0x8 DUP1 SLOAD PUSH1 0x1 DUP2 ADD DUP3 SSTORE PUSH1 0x0 SWAP2 SWAP1 SWAP2 MSTORE PUSH32 0xF3F7A9FE364FAAB93B216DA50A3214154F22A0A2B415B23A84C8169E8B636EE3 ADD DUP2 SWAP1 SSTORE PUSH2 0xAD9 SWAP1 DUP7 SWAP1 CALLER SWAP1 DUP8 SWAP1 DUP8 SWAP1 PUSH2 0x1E9E JUMP JUMPDEST SWAP2 POP DUP5 PUSH1 0x1 PUSH1 0x1 PUSH1 0xA0 SHL SUB AND PUSH32 0x7353684080CB3AF2A27A8F7A2EA1D406494BD8E78DADCFAD3519DA376DA14BFB DUP4 PUSH1 0x40 MLOAD PUSH2 0xB16 SWAP2 DUP2 MSTORE PUSH1 0x20 ADD SWAP1 JUMP JUMPDEST PUSH1 0x40 MLOAD DUP1 SWAP2 SUB SWAP1 LOG2 POP SWAP4 SWAP3 POP POP POP JUMP JUMPDEST PUSH1 0x0 DUP2 DUP2 MSTORE PUSH1 0x7 PUSH1 0x20 SWAP1 DUP2 MSTORE PUSH1 0x40 DUP1 DUP4 KECCAK256 SLOAD PUSH1 0x9 SSTORE PUSH1 0x8 DUP1 SLOAD DUP3 MLOAD DUP2 DUP6 MUL DUP2 ADD DUP6 ADD SWAP1 SWAP4 MSTORE DUP1 DUP4 MSTORE PUSH2 0xB8C SWAP4 DUP4 ADD DUP3 DUP3 DUP1 ISZERO PUSH2 0x72E JUMPI PUSH1 0x20 MUL DUP3 ADD SWAP2 SWAP1 PUSH1 0x0 MSTORE PUSH1 0x20 PUSH1 0x0 KECCAK256 SWAP1 DUP2 SLOAD DUP2 MSTORE PUSH1 0x20 ADD SWAP1 PUSH1 0x1 ADD SWAP1 DUP1 DUP4 GT PUSH2 0x71A JUMPI POP POP POP POP POP PUSH1 0x9 SLOAD PUSH2 0x1E4B JUMP JUMPDEST PUSH2 0xBA8 JUMPI PUSH1 0x40 MLOAD PUSH3 0x461BCD PUSH1 0xE5 SHL DUP2 MSTORE PUSH1 0x4 ADD PUSH2 0x757 SWAP1 PUSH2 0x2925 JUMP JUMPDEST POP PUSH1 0x0 DUP1 DUP1 JUMPDEST PUSH1 0x1 SLOAD DUP2 LT ISZERO PUSH2 0xC41 JUMPI PUSH1 0x6 PUSH1 0x0 PUSH1 0x9 SLOAD DUP2 MSTORE PUSH1 0x20 ADD SWAP1 DUP2 MSTORE PUSH1 0x20 ADD PUSH1 0x0 KECCAK256 PUSH1 0x0 PUSH1 0x1 DUP4 DUP2 SLOAD DUP2 LT PUSH2 0xBE2 JUMPI PUSH2 0xBE2 PUSH2 0x29D1 JUMP JUMPDEST PUSH1 0x0 SWAP2 DUP3 MSTORE PUSH1 0x20 DUP1 DUP4 KECCAK256 SWAP1 SWAP2 ADD SLOAD PUSH1 0x1 PUSH1 0x1 PUSH1 0xA0 SHL SUB AND DUP4 MSTORE DUP3 ADD SWAP3 SWAP1 SWAP3 MSTORE PUSH1 0x40 ADD SWAP1 KECCAK256 SLOAD PUSH1 0x2 SUB PUSH2 0xC1C JUMPI PUSH2 0xC19 PUSH1 0x1 DUP4 PUSH2 0x2A16 JUMP JUMPDEST SWAP2 POP JUMPDEST PUSH1 0x2 SLOAD DUP3 LT PUSH2 0xC2F JUMPI POP PUSH1 0x1 SWAP4 SWAP3 POP POP POP JUMP JUMPDEST DUP1 PUSH2 0xC39 DUP2 PUSH2 0x29E7 JUMP JUMPDEST SWAP2 POP POP PUSH2 0xBAE JUMP JUMPDEST POP POP SWAP2 SWAP1 POP JUMP JUMPDEST PUSH32 0xF0C57E16840DF040F15088DC2F81FE391C3923BEC73E23A9662EFC9C229C6A00 DUP1 SLOAD PUSH1 0x1 PUSH1 0x40 SHL DUP2 DIV PUSH1 0xFF AND ISZERO SWAP1 PUSH8 0xFFFFFFFFFFFFFFFF AND PUSH1 0x0 DUP2 ISZERO DUP1 ISZERO PUSH2 0xC8E JUMPI POP DUP3 JUMPDEST SWAP1 POP PUSH1 0x0 DUP3 PUSH8 0xFFFFFFFFFFFFFFFF AND PUSH1 0x1 EQ DUP1 ISZERO PUSH2 0xCAB JUMPI POP ADDRESS EXTCODESIZE ISZERO JUMPDEST SWAP1 POP DUP2 ISZERO DUP1 ISZERO PUSH2 0xCB9 JUMPI POP DUP1 ISZERO JUMPDEST ISZERO PUSH2 0xCD7 JUMPI PUSH1 0x40 MLOAD PUSH4 0xF92EE8A9 PUSH1 0xE0 SHL DUP2 MSTORE PUSH1 0x4 ADD PUSH1 0x40 MLOAD DUP1 SWAP2 SUB SWAP1 REVERT JUMPDEST DUP5 SLOAD PUSH8 0xFFFFFFFFFFFFFFFF NOT AND PUSH1 0x1 OR DUP6 SSTORE DUP4 ISZERO PUSH2 0xD01 JUMPI DUP5 SLOAD PUSH1 0xFF PUSH1 0x40 SHL NOT AND PUSH1 0x1 PUSH1 0x40 SHL OR DUP6 SSTORE JUMPDEST DUP7 MLOAD DUP7 DUP2 DUP2 GT ISZERO DUP1 ISZERO PUSH2 0xD13 JUMPI POP DUP1 ISZERO ISZERO JUMPDEST DUP1 ISZERO PUSH2 0xD1E JUMPI POP DUP2 ISZERO ISZERO JUMPDEST PUSH2 0xD3A JUMPI PUSH1 0x40 MLOAD PUSH3 0x461BCD PUSH1 0xE5 SHL DUP2 MSTORE PUSH1 0x4 ADD PUSH2 0x757 SWAP1 PUSH2 0x2A29 JUMP JUMPDEST PUSH2 0xD44 DUP10 DUP10 PUSH2 0x2017 JUMP JUMPDEST POP POP PUSH1 0x0 PUSH1 0x5 SSTORE DUP4 ISZERO PUSH2 0xD92 JUMPI DUP5 SLOAD PUSH1 0xFF PUSH1 0x40 SHL NOT AND DUP6 SSTORE PUSH1 0x40 MLOAD PUSH1 0x1 DUP2 MSTORE PUSH32 0xC7F505B2F371AE2175EE4913F4499E1F2633A7B5936321EED1CDAEB6115181D2 SWAP1 PUSH1 0x20 ADD JUMPDEST PUSH1 0x40 MLOAD DUP1 SWAP2 SUB SWAP1 LOG1 JUMPDEST POP POP POP POP POP POP POP JUMP JUMPDEST PUSH1 0x1 PUSH1 0x1 PUSH1 0xA0 SHL SUB DUP2 AND PUSH1 0x0 SWAP1 DUP2 MSTORE PUSH1 0x20 DUP2 SWAP1 MSTORE PUSH1 0x40 SWAP1 KECCAK256 SLOAD DUP2 SWAP1 PUSH1 0xFF AND ISZERO PUSH2 0xE06 JUMPI PUSH1 0x40 MLOAD PUSH3 0x461BCD PUSH1 0xE5 SHL DUP2 MSTORE PUSH1 0x20 PUSH1 0x4 DUP3 ADD DUP2 SWAP1 MSTORE PUSH1 0x24 DUP3 ADD MSTORE PUSH32 0x54686973206164647265737320697320616C726561647920616E206F776E6572 PUSH1 0x44 DUP3 ADD MSTORE PUSH1 0x64 ADD PUSH2 0x757 JUMP JUMPDEST CALLER PUSH1 0x0 DUP2 DUP2 MSTORE PUSH1 0x20 DUP2 SWAP1 MSTORE PUSH1 0x40 SWAP1 KECCAK256 SLOAD PUSH1 0xFF AND PUSH2 0xE35 JUMPI PUSH1 0x40 MLOAD PUSH3 0x461BCD PUSH1 0xE5 SHL DUP2 MSTORE PUSH1 0x4 ADD PUSH2 0x757 SWAP1 PUSH2 0x2971 JUMP JUMPDEST DUP3 PUSH1 0x1 PUSH1 0x1 PUSH1 0xA0 SHL SUB DUP2 AND PUSH2 0xE82 JUMPI PUSH1 0x40 MLOAD PUSH3 0x461BCD PUSH1 0xE5 SHL DUP2 MSTORE PUSH1 0x20 PUSH1 0x4 DUP3 ADD MSTORE PUSH1 0x13 PUSH1 0x24 DUP3 ADD MSTORE PUSH19 0x151A19481859191C995CDCC81A5CC81B9D5B1B PUSH1 0x6A SHL PUSH1 0x44 DUP3 ADD MSTORE PUSH1 0x64 ADD PUSH2 0x757 JUMP JUMPDEST PUSH1 0x1 DUP1 SLOAD PUSH2 0xE8F SWAP2 PUSH2 0x2A16 JUMP JUMPDEST PUSH1 0x2 SLOAD DUP2 DUP2 GT ISZERO DUP1 ISZERO PUSH2 0xEA1 JUMPI POP DUP1 ISZERO ISZERO JUMPDEST DUP1 ISZERO PUSH2 0xEAC JUMPI POP DUP2 ISZERO ISZERO JUMPDEST PUSH2 0xEC8 JUMPI PUSH1 0x40 MLOAD PUSH3 0x461BCD PUSH1 0xE5 SHL DUP2 MSTORE PUSH1 0x4 ADD PUSH2 0x757 SWAP1 PUSH2 0x2A29 JUMP JUMPDEST PUSH1 0x1 PUSH1 0x1 PUSH1 0xA0 SHL SUB DUP7 AND PUSH1 0x0 DUP2 DUP2 MSTORE PUSH1 0x20 DUP2 SWAP1 MSTORE PUSH1 0x40 DUP1 DUP3 KECCAK256 DUP1 SLOAD PUSH1 0xFF NOT AND PUSH1 0x1 SWAP1 DUP2 OR SWAP1 SWAP2 SSTORE DUP1 SLOAD DUP1 DUP3 ADD DUP3 SSTORE SWAP1 DUP4 MSTORE PUSH32 0xB10E2D527612073B26EECDFD717E6A320CF44B4AFAC2B0732D9FCBE2B7FA0CF6 ADD DUP1 SLOAD PUSH1 0x1 PUSH1 0x1 PUSH1 0xA0 SHL SUB NOT AND DUP5 OR SWAP1 SSTORE MLOAD PUSH32 0xF39E6E1EB0EDCF53C221607B54B00CD28F3196FED0A24994DC308B8F611B682D SWAP2 SWAP1 LOG2 POP POP POP POP POP POP JUMP JUMPDEST CALLER PUSH1 0x0 DUP2 DUP2 MSTORE PUSH1 0x20 DUP2 SWAP1 MSTORE PUSH1 0x40 SWAP1 KECCAK256 SLOAD PUSH1 0xFF AND PUSH2 0xF87 JUMPI PUSH1 0x40 MLOAD PUSH3 0x461BCD PUSH1 0xE5 SHL DUP2 MSTORE PUSH1 0x4 ADD PUSH2 0x757 SWAP1 PUSH2 0x2971 JUMP JUMPDEST PUSH1 0x0 DUP3 DUP2 MSTORE PUSH1 0x7 PUSH1 0x20 SWAP1 DUP2 MSTORE PUSH1 0x40 DUP1 DUP4 KECCAK256 SLOAD DUP1 DUP5 MSTORE PUSH1 0x4 SWAP1 SWAP3 MSTORE SWAP1 SWAP2 KECCAK256 SLOAD PUSH1 0x1 PUSH1 0x1 PUSH1 0xA0 SHL SUB AND PUSH2 0xFCA JUMPI PUSH1 0x40 MLOAD PUSH3 0x461BCD PUSH1 0xE5 SHL DUP2 MSTORE PUSH1 0x4 ADD PUSH2 0x757 SWAP1 PUSH2 0x2A59 JUMP JUMPDEST PUSH1 0x0 DUP4 DUP2 MSTORE PUSH1 0x7 PUSH1 0x20 SWAP1 DUP2 MSTORE PUSH1 0x40 DUP1 DUP4 KECCAK256 SLOAD DUP1 DUP5 MSTORE PUSH1 0x4 SWAP1 SWAP3 MSTORE SWAP1 SWAP2 KECCAK256 PUSH1 0x3 ADD SLOAD PUSH2 0x100 SWAP1 DIV PUSH1 0xFF AND ISZERO PUSH2 0x1010 JUMPI PUSH1 0x40 MLOAD PUSH3 0x461BCD PUSH1 0xE5 SHL DUP2 MSTORE PUSH1 0x4 ADD PUSH2 0x757 SWAP1 PUSH2 0x2AAA JUMP JUMPDEST PUSH1 0x0 DUP5 DUP2 MSTORE PUSH1 0x7 PUSH1 0x20 SWAP1 DUP2 MSTORE PUSH1 0x40 DUP1 DUP4 KECCAK256 SLOAD PUSH1 0x9 DUP2 SWAP1 SSTORE DUP4 MSTORE PUSH1 0x6 DUP3 MSTORE DUP1 DUP4 KECCAK256 CALLER DUP1 DUP6 MSTORE SWAP1 DUP4 MSTORE SWAP3 DUP2 SWAP1 KECCAK256 PUSH1 0x2 SWAP1 SSTORE MLOAD DUP7 DUP2 MSTORE PUSH32 0xF6A317157440607F36269043EB55F1287A5A19BA2216AFEAB88CD46CBCFB88E9 SWAP2 ADD JUMPDEST PUSH1 0x40 MLOAD DUP1 SWAP2 SUB SWAP1 LOG2 POP POP POP POP JUMP JUMPDEST PUSH1 0x0 DUP2 DUP2 MSTORE PUSH1 0x7 PUSH1 0x20 SWAP1 DUP2 MSTORE PUSH1 0x40 DUP1 DUP4 KECCAK256 SLOAD PUSH1 0x9 SSTORE PUSH1 0x8 DUP1 SLOAD DUP3 MLOAD DUP2 DUP6 MUL DUP2 ADD DUP6 ADD SWAP1 SWAP4 MSTORE DUP1 DUP4 MSTORE PUSH2 0x10DB SWAP4 DUP4 ADD DUP3 DUP3 DUP1 ISZERO PUSH2 0x72E JUMPI PUSH1 0x20 MUL DUP3 ADD SWAP2 SWAP1 PUSH1 0x0 MSTORE PUSH1 0x20 PUSH1 0x0 KECCAK256 SWAP1 DUP2 SLOAD DUP2 MSTORE PUSH1 0x20 ADD SWAP1 PUSH1 0x1 ADD SWAP1 DUP1 DUP4 GT PUSH2 0x71A JUMPI POP POP POP POP POP PUSH1 0x9 SLOAD PUSH2 0x1E4B JUMP JUMPDEST PUSH2 0x10F7 JUMPI PUSH1 0x40 MLOAD PUSH3 0x461BCD PUSH1 0xE5 SHL DUP2 MSTORE PUSH1 0x4 ADD PUSH2 0x757 SWAP1 PUSH2 0x2925 JUMP JUMPDEST POP PUSH1 0x0 DUP1 DUP1 JUMPDEST PUSH1 0x1 SLOAD DUP2 LT ISZERO PUSH2 0xC41 JUMPI PUSH1 0x6 PUSH1 0x0 PUSH1 0x9 SLOAD DUP2 MSTORE PUSH1 0x20 ADD SWAP1 DUP2 MSTORE PUSH1 0x20 ADD PUSH1 0x0 KECCAK256 PUSH1 0x0 PUSH1 0x1 DUP4 DUP2 SLOAD DUP2 LT PUSH2 0x1131 JUMPI PUSH2 0x1131 PUSH2 0x29D1 JUMP JUMPDEST PUSH1 0x0 SWAP2 DUP3 MSTORE PUSH1 0x20 DUP1 DUP4 KECCAK256 SWAP1 SWAP2 ADD SLOAD PUSH1 0x1 PUSH1 0x1 PUSH1 0xA0 SHL SUB AND DUP4 MSTORE DUP3 ADD SWAP3 SWAP1 SWAP3 MSTORE PUSH1 0x40 ADD SWAP1 KECCAK256 SLOAD PUSH1 0x1 SUB PUSH2 0x116B JUMPI PUSH2 0x1168 PUSH1 0x1 DUP4 PUSH2 0x2A16 JUMP JUMPDEST SWAP2 POP JUMPDEST PUSH1 0x2 SLOAD DUP3 LT PUSH2 0x117E JUMPI POP PUSH1 0x1 SWAP4 SWAP3 POP POP POP JUMP JUMPDEST DUP1 PUSH2 0x1188 DUP2 PUSH2 0x29E7 JUMP JUMPDEST SWAP2 POP POP PUSH2 0x10FD JUMP JUMPDEST PUSH1 0x3 SLOAD PUSH1 0x40 MLOAD PUSH4 0x6EB1769F PUSH1 0xE1 SHL DUP2 MSTORE CALLER PUSH1 0x4 DUP3 ADD MSTORE ADDRESS PUSH1 0x24 DUP3 ADD MSTORE PUSH1 0x0 SWAP2 PUSH1 0x1 PUSH1 0x1 PUSH1 0xA0 SHL SUB AND SWAP1 PUSH4 0xDD62ED3E SWAP1 PUSH1 0x44 ADD PUSH1 0x20 PUSH1 0x40 MLOAD DUP1 DUP4 SUB DUP2 DUP7 GAS STATICCALL ISZERO DUP1 ISZERO PUSH2 0x11DF JUMPI RETURNDATASIZE PUSH1 0x0 DUP1 RETURNDATACOPY RETURNDATASIZE PUSH1 0x0 REVERT JUMPDEST POP POP POP POP PUSH1 0x40 MLOAD RETURNDATASIZE PUSH1 0x1F NOT PUSH1 0x1F DUP3 ADD AND DUP3 ADD DUP1 PUSH1 0x40 MSTORE POP DUP2 ADD SWAP1 PUSH2 0x1203 SWAP2 SWAP1 PUSH2 0x2B13 JUMP JUMPDEST SWAP1 POP SWAP1 JUMP JUMPDEST PUSH1 0x0 DUP2 DUP2 MSTORE PUSH1 0x7 PUSH1 0x20 SWAP1 DUP2 MSTORE PUSH1 0x40 DUP1 DUP4 KECCAK256 SLOAD PUSH1 0x9 SSTORE PUSH1 0x8 DUP1 SLOAD DUP3 MLOAD DUP2 DUP6 MUL DUP2 ADD DUP6 ADD SWAP1 SWAP4 MSTORE DUP1 DUP4 MSTORE PUSH2 0x126E SWAP4 DUP4 ADD DUP3 DUP3 DUP1 ISZERO PUSH2 0x72E JUMPI PUSH1 0x20 MUL DUP3 ADD SWAP2 SWAP1 PUSH1 0x0 MSTORE PUSH1 0x20 PUSH1 0x0 KECCAK256 SWAP1 DUP2 SLOAD DUP2 MSTORE PUSH1 0x20 ADD SWAP1 PUSH1 0x1 ADD SWAP1 DUP1 DUP4 GT PUSH2 0x71A JUMPI POP POP POP POP POP PUSH1 0x9 SLOAD PUSH2 0x1E4B JUMP JUMPDEST PUSH2 0x128A JUMPI PUSH1 0x40 MLOAD PUSH3 0x461BCD PUSH1 0xE5 SHL DUP2 MSTORE PUSH1 0x4 ADD PUSH2 0x757 SWAP1 PUSH2 0x2925 JUMP JUMPDEST PUSH1 0x0 JUMPDEST PUSH1 0x1 SLOAD DUP2 LT ISZERO PUSH2 0x130D JUMPI PUSH1 0x6 PUSH1 0x0 PUSH1 0x9 SLOAD DUP2 MSTORE PUSH1 0x20 ADD SWAP1 DUP2 MSTORE PUSH1 0x20 ADD PUSH1 0x0 KECCAK256 PUSH1 0x0 PUSH1 0x1 DUP4 DUP2 SLOAD DUP2 LT PUSH2 0x12C1 JUMPI PUSH2 0x12C1 PUSH2 0x29D1 JUMP JUMPDEST PUSH1 0x0 SWAP2 DUP3 MSTORE PUSH1 0x20 DUP1 DUP4 KECCAK256 SWAP1 SWAP2 ADD SLOAD PUSH1 0x1 PUSH1 0x1 PUSH1 0xA0 SHL SUB AND DUP4 MSTORE DUP3 ADD SWAP3 SWAP1 SWAP3 MSTORE PUSH1 0x40 ADD SWAP1 KECCAK256 SLOAD PUSH1 0x1 SUB PUSH2 0x12FB JUMPI PUSH2 0x12F8 PUSH1 0x1 DUP4 PUSH2 0x2A16 JUMP JUMPDEST SWAP2 POP JUMPDEST DUP1 PUSH2 0x1305 DUP2 PUSH2 0x29E7 JUMP JUMPDEST SWAP2 POP POP PUSH2 0x128D JUMP JUMPDEST POP SWAP2 SWAP1 POP JUMP JUMPDEST PUSH1 0x60 PUSH1 0x1 DUP1 SLOAD DUP1 PUSH1 0x20 MUL PUSH1 0x20 ADD PUSH1 0x40 MLOAD SWAP1 DUP2 ADD PUSH1 0x40 MSTORE DUP1 SWAP3 SWAP2 SWAP1 DUP2 DUP2 MSTORE PUSH1 0x20 ADD DUP3 DUP1 SLOAD DUP1 ISZERO PUSH2 0x136B JUMPI PUSH1 0x20 MUL DUP3 ADD SWAP2 SWAP1 PUSH1 0x0 MSTORE PUSH1 0x20 PUSH1 0x0 KECCAK256 SWAP1 JUMPDEST DUP2 SLOAD PUSH1 0x1 PUSH1 0x1 PUSH1 0xA0 SHL SUB AND DUP2 MSTORE PUSH1 0x1 SWAP1 SWAP2 ADD SWAP1 PUSH1 0x20 ADD DUP1 DUP4 GT PUSH2 0x134D JUMPI JUMPDEST POP POP POP POP POP SWAP1 POP SWAP1 JUMP JUMPDEST PUSH1 0x0 DUP2 DUP2 MSTORE PUSH1 0x7 PUSH1 0x20 SWAP1 DUP2 MSTORE PUSH1 0x40 SWAP2 DUP3 SWAP1 KECCAK256 SLOAD PUSH1 0x9 SSTORE PUSH1 0x8 DUP1 SLOAD DUP4 MLOAD DUP2 DUP5 MUL DUP2 ADD DUP5 ADD SWAP1 SWAP5 MSTORE DUP1 DUP5 MSTORE PUSH1 0x60 SWAP4 PUSH2 0x13E3 SWAP4 SWAP1 SWAP3 SWAP2 SWAP1 DUP4 ADD DUP3 DUP3 DUP1 ISZERO PUSH2 0x72E JUMPI PUSH1 0x20 MUL DUP3 ADD SWAP2 SWAP1 PUSH1 0x0 MSTORE PUSH1 0x20 PUSH1 0x0 KECCAK256 SWAP1 DUP2 SLOAD DUP2 MSTORE PUSH1 0x20 ADD SWAP1 PUSH1 0x1 ADD SWAP1 DUP1 DUP4 GT PUSH2 0x71A JUMPI POP POP POP POP POP PUSH1 0x9 SLOAD PUSH2 0x1E4B JUMP JUMPDEST PUSH2 0x13FF JUMPI PUSH1 0x40 MLOAD PUSH3 0x461BCD PUSH1 0xE5 SHL DUP2 MSTORE PUSH1 0x4 ADD PUSH2 0x757 SWAP1 PUSH2 0x2925 JUMP JUMPDEST PUSH1 0x1 SLOAD PUSH1 0x0 SWAP1 PUSH8 0xFFFFFFFFFFFFFFFF DUP2 GT ISZERO PUSH2 0x141D JUMPI PUSH2 0x141D PUSH2 0x278C JUMP JUMPDEST PUSH1 0x40 MLOAD SWAP1 DUP1 DUP3 MSTORE DUP1 PUSH1 0x20 MUL PUSH1 0x20 ADD DUP3 ADD PUSH1 0x40 MSTORE DUP1 ISZERO PUSH2 0x1446 JUMPI DUP2 PUSH1 0x20 ADD PUSH1 0x20 DUP3 MUL DUP1 CALLDATASIZE DUP4 CALLDATACOPY ADD SWAP1 POP JUMPDEST POP SWAP1 POP PUSH1 0x0 DUP1 JUMPDEST PUSH1 0x1 SLOAD DUP2 LT ISZERO PUSH2 0x1528 JUMPI PUSH1 0x6 PUSH1 0x0 PUSH1 0x9 SLOAD DUP2 MSTORE PUSH1 0x20 ADD SWAP1 DUP2 MSTORE PUSH1 0x20 ADD PUSH1 0x0 KECCAK256 PUSH1 0x0 PUSH1 0x1 DUP4 DUP2 SLOAD DUP2 LT PUSH2 0x1481 JUMPI PUSH2 0x1481 PUSH2 0x29D1 JUMP JUMPDEST PUSH1 0x0 SWAP2 DUP3 MSTORE PUSH1 0x20 DUP1 DUP4 KECCAK256 SWAP1 SWAP2 ADD SLOAD PUSH1 0x1 PUSH1 0x1 PUSH1 0xA0 SHL SUB AND DUP4 MSTORE DUP3 ADD SWAP3 SWAP1 SWAP3 MSTORE PUSH1 0x40 ADD SWAP1 KECCAK256 SLOAD PUSH1 0x2 SUB PUSH2 0x1516 JUMPI PUSH1 0x1 DUP2 DUP2 SLOAD DUP2 LT PUSH2 0x14C0 JUMPI PUSH2 0x14C0 PUSH2 0x29D1 JUMP JUMPDEST SWAP1 PUSH1 0x0 MSTORE PUSH1 0x20 PUSH1 0x0 KECCAK256 ADD PUSH1 0x0 SWAP1 SLOAD SWAP1 PUSH2 0x100 EXP SWAP1 DIV PUSH1 0x1 PUSH1 0x1 PUSH1 0xA0 SHL SUB AND DUP4 DUP4 DUP2 MLOAD DUP2 LT PUSH2 0x14F0 JUMPI PUSH2 0x14F0 PUSH2 0x29D1 JUMP JUMPDEST PUSH1 0x1 PUSH1 0x1 PUSH1 0xA0 SHL SUB SWAP1 SWAP3 AND PUSH1 0x20 SWAP3 DUP4 MUL SWAP2 SWAP1 SWAP2 ADD SWAP1 SWAP2 ADD MSTORE PUSH2 0x1513 PUSH1 0x1 DUP4 PUSH2 0x2A16 JUMP JUMPDEST SWAP2 POP JUMPDEST DUP1 PUSH2 0x1520 DUP2 PUSH2 0x29E7 JUMP JUMPDEST SWAP2 POP POP PUSH2 0x144D JUMP JUMPDEST DUP2 PUSH8 0xFFFFFFFFFFFFFFFF DUP2 GT ISZERO PUSH2 0x1541 JUMPI PUSH2 0x1541 PUSH2 0x278C JUMP JUMPDEST PUSH1 0x40 MLOAD SWAP1 DUP1 DUP3 MSTORE DUP1 PUSH1 0x20 MUL PUSH1 0x20 ADD DUP3 ADD PUSH1 0x40 MSTORE DUP1 ISZERO PUSH2 0x156A JUMPI DUP2 PUSH1 0x20 ADD PUSH1 0x20 DUP3 MUL DUP1 CALLDATASIZE DUP4 CALLDATACOPY ADD SWAP1 POP JUMPDEST POP SWAP4 POP PUSH1 0x0 SWAP1 POP JUMPDEST DUP2 DUP2 LT ISZERO PUSH2 0x15D0 JUMPI DUP3 DUP2 DUP2 MLOAD DUP2 LT PUSH2 0x158C JUMPI PUSH2 0x158C PUSH2 0x29D1 JUMP JUMPDEST PUSH1 0x20 MUL PUSH1 0x20 ADD ADD MLOAD DUP5 DUP3 DUP2 MLOAD DUP2 LT PUSH2 0x15A6 JUMPI PUSH2 0x15A6 PUSH2 0x29D1 JUMP JUMPDEST PUSH1 0x1 PUSH1 0x1 PUSH1 0xA0 SHL SUB SWAP1 SWAP3 AND PUSH1 0x20 SWAP3 DUP4 MUL SWAP2 SWAP1 SWAP2 ADD SWAP1 SWAP2 ADD MSTORE DUP1 PUSH2 0x15C8 DUP2 PUSH2 0x29E7 JUMP JUMPDEST SWAP2 POP POP PUSH2 0x1572 JUMP JUMPDEST POP POP POP SWAP2 SWAP1 POP JUMP JUMPDEST CALLER PUSH1 0x0 DUP2 DUP2 MSTORE PUSH1 0x20 DUP2 SWAP1 MSTORE PUSH1 0x40 SWAP1 KECCAK256 SLOAD PUSH1 0xFF AND PUSH2 0x1607 JUMPI PUSH1 0x40 MLOAD PUSH3 0x461BCD PUSH1 0xE5 SHL DUP2 MSTORE PUSH1 0x4 ADD PUSH2 0x757 SWAP1 PUSH2 0x2971 JUMP JUMPDEST POP PUSH1 0x3 DUP1 SLOAD PUSH1 0x1 PUSH1 0x1 PUSH1 0xA0 SHL SUB NOT AND PUSH1 0x1 PUSH1 0x1 PUSH1 0xA0 SHL SUB SWAP3 SWAP1 SWAP3 AND SWAP2 SWAP1 SWAP2 OR SWAP1 SSTORE JUMP JUMPDEST PUSH1 0x0 DUP2 DUP2 MSTORE PUSH1 0x7 PUSH1 0x20 SWAP1 DUP2 MSTORE PUSH1 0x40 SWAP2 DUP3 SWAP1 KECCAK256 SLOAD PUSH1 0x9 SSTORE PUSH1 0x8 DUP1 SLOAD DUP4 MLOAD DUP2 DUP5 MUL DUP2 ADD DUP5 ADD SWAP1 SWAP5 MSTORE DUP1 DUP5 MSTORE PUSH1 0x60 SWAP4 PUSH2 0x1698 SWAP4 SWAP1 SWAP3 SWAP2 SWAP1 DUP4 ADD DUP3 DUP3 DUP1 ISZERO PUSH2 0x72E JUMPI PUSH1 0x20 MUL DUP3 ADD SWAP2 SWAP1 PUSH1 0x0 MSTORE PUSH1 0x20 PUSH1 0x0 KECCAK256 SWAP1 DUP2 SLOAD DUP2 MSTORE PUSH1 0x20 ADD SWAP1 PUSH1 0x1 ADD SWAP1 DUP1 DUP4 GT PUSH2 0x71A JUMPI POP POP POP POP POP PUSH1 0x9 SLOAD PUSH2 0x1E4B JUMP JUMPDEST PUSH2 0x16B4 JUMPI PUSH1 0x40 MLOAD PUSH3 0x461BCD PUSH1 0xE5 SHL DUP2 MSTORE PUSH1 0x4 ADD PUSH2 0x757 SWAP1 PUSH2 0x2925 JUMP JUMPDEST PUSH1 0x1 SLOAD PUSH1 0x0 SWAP1 PUSH8 0xFFFFFFFFFFFFFFFF DUP2 GT ISZERO PUSH2 0x16D2 JUMPI PUSH2 0x16D2 PUSH2 0x278C JUMP JUMPDEST PUSH1 0x40 MLOAD SWAP1 DUP1 DUP3 MSTORE DUP1 PUSH1 0x20 MUL PUSH1 0x20 ADD DUP3 ADD PUSH1 0x40 MSTORE DUP1 ISZERO PUSH2 0x16FB JUMPI DUP2 PUSH1 0x20 ADD PUSH1 0x20 DUP3 MUL DUP1 CALLDATASIZE DUP4 CALLDATACOPY ADD SWAP1 POP JUMPDEST POP SWAP1 POP PUSH1 0x0 DUP1 JUMPDEST PUSH1 0x1 SLOAD DUP2 LT ISZERO PUSH2 0x17DD JUMPI PUSH1 0x6 PUSH1 0x0 PUSH1 0x9 SLOAD DUP2 MSTORE PUSH1 0x20 ADD SWAP1 DUP2 MSTORE PUSH1 0x20 ADD PUSH1 0x0 KECCAK256 PUSH1 0x0 PUSH1 0x1 DUP4 DUP2 SLOAD DUP2 LT PUSH2 0x1736 JUMPI PUSH2 0x1736 PUSH2 0x29D1 JUMP JUMPDEST PUSH1 0x0 SWAP2 DUP3 MSTORE PUSH1 0x20 DUP1 DUP4 KECCAK256 SWAP1 SWAP2 ADD SLOAD PUSH1 0x1 PUSH1 0x1 PUSH1 0xA0 SHL SUB AND DUP4 MSTORE DUP3 ADD SWAP3 SWAP1 SWAP3 MSTORE PUSH1 0x40 ADD SWAP1 KECCAK256 SLOAD PUSH1 0x1 SUB PUSH2 0x17CB JUMPI PUSH1 0x1 DUP2 DUP2 SLOAD DUP2 LT PUSH2 0x1775 JUMPI PUSH2 0x1775 PUSH2 0x29D1 JUMP JUMPDEST SWAP1 PUSH1 0x0 MSTORE PUSH1 0x20 PUSH1 0x0 KECCAK256 ADD PUSH1 0x0 SWAP1 SLOAD SWAP1 PUSH2 0x100 EXP SWAP1 DIV PUSH1 0x1 PUSH1 0x1 PUSH1 0xA0 SHL SUB AND DUP4 DUP4 DUP2 MLOAD DUP2 LT PUSH2 0x17A5 JUMPI PUSH2 0x17A5 PUSH2 0x29D1 JUMP JUMPDEST PUSH1 0x1 PUSH1 0x1 PUSH1 0xA0 SHL SUB SWAP1 SWAP3 AND PUSH1 0x20 SWAP3 DUP4 MUL SWAP2 SWAP1 SWAP2 ADD SWAP1 SWAP2 ADD MSTORE PUSH2 0x17C8 PUSH1 0x1 DUP4 PUSH2 0x2A16 JUMP JUMPDEST SWAP2 POP JUMPDEST DUP1 PUSH2 0x17D5 DUP2 PUSH2 0x29E7 JUMP JUMPDEST SWAP2 POP POP PUSH2 0x1702 JUMP JUMPDEST DUP2 PUSH8 0xFFFFFFFFFFFFFFFF DUP2 GT ISZERO PUSH2 0x17F6 JUMPI PUSH2 0x17F6 PUSH2 0x278C JUMP JUMPDEST PUSH1 0x40 MLOAD SWAP1 DUP1 DUP3 MSTORE DUP1 PUSH1 0x20 MUL PUSH1 0x20 ADD DUP3 ADD PUSH1 0x40 MSTORE DUP1 ISZERO PUSH2 0x181F JUMPI DUP2 PUSH1 0x20 ADD PUSH1 0x20 DUP3 MUL DUP1 CALLDATASIZE DUP4 CALLDATACOPY ADD SWAP1 POP JUMPDEST POP SWAP4 POP PUSH1 0x0 SWAP1 POP JUMPDEST DUP2 DUP2 LT ISZERO PUSH2 0x15D0 JUMPI DUP3 DUP2 DUP2 MLOAD DUP2 LT PUSH2 0x1841 JUMPI PUSH2 0x1841 PUSH2 0x29D1 JUMP JUMPDEST PUSH1 0x20 MUL PUSH1 0x20 ADD ADD MLOAD DUP5 DUP3 DUP2 MLOAD DUP2 LT PUSH2 0x185B JUMPI PUSH2 0x185B PUSH2 0x29D1 JUMP JUMPDEST PUSH1 0x1 PUSH1 0x1 PUSH1 0xA0 SHL SUB SWAP1 SWAP3 AND PUSH1 0x20 SWAP3 DUP4 MUL SWAP2 SWAP1 SWAP2 ADD SWAP1 SWAP2 ADD MSTORE DUP1 PUSH2 0x187D DUP2 PUSH2 0x29E7 JUMP JUMPDEST SWAP2 POP POP PUSH2 0x1827 JUMP JUMPDEST CALLER PUSH1 0x0 DUP2 DUP2 MSTORE PUSH1 0x20 DUP2 SWAP1 MSTORE PUSH1 0x40 SWAP1 KECCAK256 SLOAD PUSH1 0xFF AND PUSH2 0x18B4 JUMPI PUSH1 0x40 MLOAD PUSH3 0x461BCD PUSH1 0xE5 SHL DUP2 MSTORE PUSH1 0x4 ADD PUSH2 0x757 SWAP1 PUSH2 0x2971 JUMP JUMPDEST PUSH1 0x0 DUP3 DUP2 MSTORE PUSH1 0x7 PUSH1 0x20 SWAP1 DUP2 MSTORE PUSH1 0x40 DUP1 DUP4 KECCAK256 SLOAD DUP1 DUP5 MSTORE PUSH1 0x4 SWAP1 SWAP3 MSTORE SWAP1 SWAP2 KECCAK256 SLOAD PUSH1 0x1 PUSH1 0x1 PUSH1 0xA0 SHL SUB AND PUSH2 0x18F7 JUMPI PUSH1 0x40 MLOAD PUSH3 0x461BCD PUSH1 0xE5 SHL DUP2 MSTORE PUSH1 0x4 ADD PUSH2 0x757 SWAP1 PUSH2 0x2A59 JUMP JUMPDEST PUSH1 0x0 DUP4 DUP2 MSTORE PUSH1 0x7 PUSH1 0x20 SWAP1 DUP2 MSTORE PUSH1 0x40 DUP1 DUP4 KECCAK256 SLOAD DUP1 DUP5 MSTORE PUSH1 0x4 SWAP1 SWAP3 MSTORE SWAP1 SWAP2 KECCAK256 PUSH1 0x3 ADD SLOAD PUSH2 0x100 SWAP1 DIV PUSH1 0xFF AND ISZERO PUSH2 0x193D JUMPI PUSH1 0x40 MLOAD PUSH3 0x461BCD PUSH1 0xE5 SHL DUP2 MSTORE PUSH1 0x4 ADD PUSH2 0x757 SWAP1 PUSH2 0x2AAA JUMP JUMPDEST PUSH1 0x0 DUP5 DUP2 MSTORE PUSH1 0x7 PUSH1 0x20 SWAP1 DUP2 MSTORE PUSH1 0x40 DUP1 DUP4 KECCAK256 SLOAD PUSH1 0x9 DUP2 SWAP1 SSTORE DUP4 MSTORE PUSH1 0x6 DUP3 MSTORE DUP1 DUP4 KECCAK256 CALLER DUP1 DUP6 MSTORE SWAP1 DUP4 MSTORE SWAP3 DUP2 SWAP1 KECCAK256 PUSH1 0x1 SWAP1 SSTORE MLOAD DUP7 DUP2 MSTORE PUSH32 0x4A504A94899432A9846E1AA406DCEB1BCFD538BB839071D49D1E5E23F5BE30EF SWAP2 ADD PUSH2 0x1067 JUMP JUMPDEST PUSH1 0x0 DUP2 DUP2 MSTORE PUSH1 0x7 PUSH1 0x20 SWAP1 DUP2 MSTORE PUSH1 0x40 DUP1 DUP4 KECCAK256 SLOAD PUSH1 0x9 SSTORE PUSH1 0x8 DUP1 SLOAD DUP3 MLOAD DUP2 DUP6 MUL DUP2 ADD DUP6 ADD SWAP1 SWAP4 MSTORE DUP1 DUP4 MSTORE PUSH2 0x19FE SWAP4 DUP4 ADD DUP3 DUP3 DUP1 ISZERO PUSH2 0x72E JUMPI PUSH1 0x20 MUL DUP3 ADD SWAP2 SWAP1 PUSH1 0x0 MSTORE PUSH1 0x20 PUSH1 0x0 KECCAK256 SWAP1 DUP2 SLOAD DUP2 MSTORE PUSH1 0x20 ADD SWAP1 PUSH1 0x1 ADD SWAP1 DUP1 DUP4 GT PUSH2 0x71A JUMPI POP POP POP POP POP PUSH1 0x9 SLOAD PUSH2 0x1E4B JUMP JUMPDEST PUSH2 0x1A1A JUMPI PUSH1 0x40 MLOAD PUSH3 0x461BCD PUSH1 0xE5 SHL DUP2 MSTORE PUSH1 0x4 ADD PUSH2 0x757 SWAP1 PUSH2 0x2925 JUMP JUMPDEST PUSH1 0x0 JUMPDEST PUSH1 0x1 SLOAD DUP2 LT ISZERO PUSH2 0x130D JUMPI PUSH1 0x6 PUSH1 0x0 PUSH1 0x9 SLOAD DUP2 MSTORE PUSH1 0x20 ADD SWAP1 DUP2 MSTORE PUSH1 0x20 ADD PUSH1 0x0 KECCAK256 PUSH1 0x0 PUSH1 0x1 DUP4 DUP2 SLOAD DUP2 LT PUSH2 0x1A51 JUMPI PUSH2 0x1A51 PUSH2 0x29D1 JUMP JUMPDEST PUSH1 0x0 SWAP2 DUP3 MSTORE PUSH1 0x20 DUP1 DUP4 KECCAK256 SWAP1 SWAP2 ADD SLOAD PUSH1 0x1 PUSH1 0x1 PUSH1 0xA0 SHL SUB AND DUP4 MSTORE DUP3 ADD SWAP3 SWAP1 SWAP3 MSTORE PUSH1 0x40 ADD SWAP1 KECCAK256 SLOAD PUSH1 0x2 SUB PUSH2 0x1A8B JUMPI PUSH2 0x1A88 PUSH1 0x1 DUP4 PUSH2 0x2A16 JUMP JUMPDEST SWAP2 POP JUMPDEST DUP1 PUSH2 0x1A95 DUP2 PUSH2 0x29E7 JUMP JUMPDEST SWAP2 POP POP PUSH2 0x1A1D JUMP JUMPDEST CALLER PUSH1 0x0 DUP2 DUP2 MSTORE PUSH1 0x20 DUP2 SWAP1 MSTORE PUSH1 0x40 SWAP1 KECCAK256 SLOAD PUSH1 0xFF AND PUSH2 0x1ACC JUMPI PUSH1 0x40 MLOAD PUSH3 0x461BCD PUSH1 0xE5 SHL DUP2 MSTORE PUSH1 0x4 ADD PUSH2 0x757 SWAP1 PUSH2 0x2971 JUMP JUMPDEST PUSH1 0x1 SLOAD DUP3 DUP2 DUP2 GT DUP1 ISZERO SWAP1 PUSH2 0x1ADF JUMPI POP DUP1 ISZERO ISZERO JUMPDEST DUP1 ISZERO PUSH2 0x1AEA JUMPI POP DUP2 ISZERO ISZERO JUMPDEST PUSH2 0x1B06 JUMPI PUSH1 0x40 MLOAD PUSH3 0x461BCD PUSH1 0xE5 SHL DUP2 MSTORE PUSH1 0x4 ADD PUSH2 0x757 SWAP1 PUSH2 0x2A29 JUMP JUMPDEST PUSH1 0x2 DUP5 SWAP1 SSTORE PUSH1 0x40 MLOAD DUP5 DUP2 MSTORE PUSH32 0x27863D12A407097E086A48E36475BFC859D0B200B7E6F65B5FD3B218E46632E SWAP1 PUSH1 0x20 ADD PUSH1 0x40 MLOAD DUP1 SWAP2 SUB SWAP1 LOG1 POP POP POP POP JUMP JUMPDEST CALLER PUSH1 0x0 DUP2 DUP2 MSTORE PUSH1 0x20 DUP2 SWAP1 MSTORE PUSH1 0x40 SWAP1 KECCAK256 SLOAD PUSH1 0xFF AND PUSH2 0x1B73 JUMPI PUSH1 0x40 MLOAD PUSH3 0x461BCD PUSH1 0xE5 SHL DUP2 MSTORE PUSH1 0x4 ADD PUSH2 0x757 SWAP1 PUSH2 0x2971 JUMP JUMPDEST DUP2 PUSH2 0x1B7D DUP2 PUSH2 0x1075 JUMP JUMPDEST DUP1 PUSH2 0x1B8C JUMPI POP PUSH2 0x1B8C DUP2 PUSH2 0xB26 JUMP JUMPDEST PUSH2 0x1BEA JUMPI PUSH1 0x40 MLOAD PUSH3 0x461BCD PUSH1 0xE5 SHL DUP2 MSTORE PUSH1 0x20 PUSH1 0x4 DUP3 ADD MSTORE PUSH1 0x29 PUSH1 0x24 DUP3 ADD MSTORE PUSH32 0x51756F72756D20686173206E6F74206265656E2072656163686564206279206F PUSH1 0x44 DUP3 ADD MSTORE PUSH9 0x1DDB995C9CC81E595D PUSH1 0xBA SHL PUSH1 0x64 DUP3 ADD MSTORE PUSH1 0x84 ADD PUSH2 0x757 JUMP JUMPDEST DUP3 PUSH2 0x1BF4 DUP2 PUSH2 0x1075 JUMP JUMPDEST PUSH2 0x1C5D JUMPI PUSH1 0x40 MLOAD PUSH3 0x461BCD PUSH1 0xE5 SHL DUP2 MSTORE PUSH1 0x20 PUSH1 0x4 DUP3 ADD MSTORE PUSH1 0x34 PUSH1 0x24 DUP3 ADD MSTORE PUSH32 0x546865207472616E73616374696F6E20686173206E6F74206265656E20636F6E PUSH1 0x44 DUP3 ADD MSTORE PUSH20 0x199A5C9B595908189E481BDDDB995C9CC81E595D PUSH1 0x62 SHL PUSH1 0x64 DUP3 ADD MSTORE PUSH1 0x84 ADD PUSH2 0x757 JUMP JUMPDEST PUSH1 0x0 DUP5 DUP2 MSTORE PUSH1 0x7 PUSH1 0x20 SWAP1 DUP2 MSTORE PUSH1 0x40 DUP1 DUP4 KECCAK256 SLOAD DUP1 DUP5 MSTORE PUSH1 0x4 SWAP1 SWAP3 MSTORE SWAP1 SWAP2 KECCAK256 PUSH1 0x3 ADD SLOAD PUSH2 0x100 SWAP1 DIV PUSH1 0xFF AND ISZERO PUSH2 0x1CA3 JUMPI PUSH1 0x40 MLOAD PUSH3 0x461BCD PUSH1 0xE5 SHL DUP2 MSTORE PUSH1 0x4 ADD PUSH2 0x757 SWAP1 PUSH2 0x2AAA JUMP JUMPDEST PUSH1 0x0 DUP6 DUP2 MSTORE PUSH1 0x7 PUSH1 0x20 SWAP1 DUP2 MSTORE PUSH1 0x40 SWAP2 DUP3 SWAP1 KECCAK256 SLOAD PUSH1 0x9 SSTORE PUSH1 0x8 DUP1 SLOAD DUP4 MLOAD DUP2 DUP5 MUL DUP2 ADD DUP5 ADD SWAP1 SWAP5 MSTORE DUP1 DUP5 MSTORE PUSH2 0x1D0B SWAP4 SWAP3 DUP4 ADD DUP3 DUP3 DUP1 ISZERO PUSH2 0x72E JUMPI PUSH1 0x20 MUL DUP3 ADD SWAP2 SWAP1 PUSH1 0x0 MSTORE PUSH1 0x20 PUSH1 0x0 KECCAK256 SWAP1 DUP2 SLOAD DUP2 MSTORE PUSH1 0x20 ADD SWAP1 PUSH1 0x1 ADD SWAP1 DUP1 DUP4 GT PUSH2 0x71A JUMPI POP POP POP POP POP PUSH1 0x9 SLOAD PUSH2 0x1E4B JUMP JUMPDEST PUSH2 0x1D27 JUMPI PUSH1 0x40 MLOAD PUSH3 0x461BCD PUSH1 0xE5 SHL DUP2 MSTORE PUSH1 0x4 ADD PUSH2 0x757 SWAP1 PUSH2 0x2925 JUMP JUMPDEST PUSH1 0x9 SLOAD PUSH1 0x0 SWAP1 DUP2 MSTORE PUSH1 0x4 PUSH1 0x20 MSTORE PUSH1 0x40 SWAP1 KECCAK256 PUSH2 0x1D41 DUP7 PUSH2 0x1075 JUMP JUMPDEST DUP1 ISZERO PUSH2 0x1D53 JUMPI POP PUSH2 0x1D51 DUP7 PUSH2 0xB26 JUMP JUMPDEST ISZERO JUMPDEST ISZERO PUSH2 0x1E43 JUMPI PUSH1 0x0 PUSH1 0x3 DUP3 ADD SLOAD PUSH1 0xFF AND PUSH1 0x4 DUP2 GT ISZERO PUSH2 0x1D73 JUMPI PUSH2 0x1D73 PUSH2 0x286D JUMP JUMPDEST SUB PUSH2 0x1D91 JUMPI DUP1 SLOAD PUSH2 0x1D8C SWAP1 PUSH1 0x1 PUSH1 0x1 PUSH1 0xA0 SHL SUB AND PUSH2 0xD9B JUMP JUMPDEST PUSH2 0x1E43 JUMP JUMPDEST PUSH1 0x1 PUSH1 0x3 DUP3 ADD SLOAD PUSH1 0xFF AND PUSH1 0x4 DUP2 GT ISZERO PUSH2 0x1DAC JUMPI PUSH2 0x1DAC PUSH2 0x286D JUMP JUMPDEST SUB PUSH2 0x1DC5 JUMPI DUP1 SLOAD PUSH2 0x1D8C SWAP1 PUSH1 0x1 PUSH1 0x1 PUSH1 0xA0 SHL SUB AND PUSH2 0x7A5 JUMP JUMPDEST PUSH1 0x2 PUSH1 0x3 DUP3 ADD SLOAD PUSH1 0xFF AND PUSH1 0x4 DUP2 GT ISZERO PUSH2 0x1DE0 JUMPI PUSH2 0x1DE0 PUSH2 0x286D JUMP JUMPDEST SUB PUSH2 0x1DF2 JUMPI PUSH2 0x1D8C DUP2 PUSH1 0x2 ADD SLOAD PUSH2 0x1A9D JUMP JUMPDEST PUSH1 0x3 DUP1 DUP3 ADD SLOAD PUSH1 0xFF AND PUSH1 0x4 DUP2 GT ISZERO PUSH2 0x1E0C JUMPI PUSH2 0x1E0C PUSH2 0x286D JUMP JUMPDEST SUB PUSH2 0x1E1A JUMPI PUSH2 0x1D8C DUP7 PUSH2 0x22C1 JUMP JUMPDEST PUSH1 0x4 PUSH1 0x3 DUP3 ADD SLOAD PUSH1 0xFF AND PUSH1 0x4 DUP2 GT ISZERO PUSH2 0x1E35 JUMPI PUSH2 0x1E35 PUSH2 0x286D JUMP JUMPDEST SUB PUSH2 0x1E43 JUMPI PUSH2 0x1E43 DUP7 PUSH2 0x2448 JUMP JUMPDEST POP POP POP POP POP POP JUMP JUMPDEST PUSH1 0x0 DUP1 JUMPDEST DUP4 MLOAD DUP2 LT ISZERO PUSH2 0x1E94 JUMPI DUP3 DUP5 DUP3 DUP2 MLOAD DUP2 LT PUSH2 0x1E6B JUMPI PUSH2 0x1E6B PUSH2 0x29D1 JUMP JUMPDEST PUSH1 0x20 MUL PUSH1 0x20 ADD ADD MLOAD SUB PUSH2 0x1E82 JUMPI PUSH1 0x1 SWAP2 POP POP PUSH2 0x79F JUMP JUMPDEST DUP1 PUSH2 0x1E8C DUP2 PUSH2 0x29E7 JUMP JUMPDEST SWAP2 POP POP PUSH2 0x1E4F JUMP JUMPDEST POP PUSH1 0x0 SWAP4 SWAP3 POP POP POP JUMP JUMPDEST PUSH1 0x0 DUP6 PUSH1 0x1 PUSH1 0x1 PUSH1 0xA0 SHL SUB DUP2 AND PUSH2 0x1EED JUMPI PUSH1 0x40 MLOAD PUSH3 0x461BCD PUSH1 0xE5 SHL DUP2 MSTORE PUSH1 0x20 PUSH1 0x4 DUP3 ADD MSTORE PUSH1 0x13 PUSH1 0x24 DUP3 ADD MSTORE PUSH19 0x151A19481859191C995CDCC81A5CC81B9D5B1B PUSH1 0x6A SHL PUSH1 0x44 DUP3 ADD MSTORE PUSH1 0x64 ADD PUSH2 0x757 JUMP JUMPDEST PUSH1 0x5 SLOAD SWAP2 POP DUP3 PUSH1 0x7 PUSH1 0x0 DUP5 DUP2 MSTORE PUSH1 0x20 ADD SWAP1 DUP2 MSTORE PUSH1 0x20 ADD PUSH1 0x0 KECCAK256 DUP2 SWAP1 SSTORE POP PUSH1 0x40 MLOAD DUP1 PUSH1 0xA0 ADD PUSH1 0x40 MSTORE DUP1 DUP9 PUSH1 0x1 PUSH1 0x1 PUSH1 0xA0 SHL SUB AND DUP2 MSTORE PUSH1 0x20 ADD DUP8 PUSH1 0x1 PUSH1 0x1 PUSH1 0xA0 SHL SUB AND DUP2 MSTORE PUSH1 0x20 ADD DUP7 DUP2 MSTORE PUSH1 0x20 ADD DUP6 PUSH1 0x4 DUP2 GT ISZERO PUSH2 0x1F4B JUMPI PUSH2 0x1F4B PUSH2 0x286D JUMP JUMPDEST DUP2 MSTORE PUSH1 0x0 PUSH1 0x20 SWAP2 DUP3 ADD DUP2 SWAP1 MSTORE DUP6 DUP2 MSTORE PUSH1 0x4 DUP1 DUP4 MSTORE PUSH1 0x40 SWAP2 DUP3 SWAP1 KECCAK256 DUP5 MLOAD DUP2 SLOAD PUSH1 0x1 PUSH1 0x1 PUSH1 0xA0 SHL SUB SWAP2 DUP3 AND PUSH1 0x1 PUSH1 0x1 PUSH1 0xA0 SHL SUB NOT SWAP2 DUP3 AND OR DUP4 SSTORE SWAP5 DUP7 ADD MLOAD PUSH1 0x1 DUP4 DUP2 ADD DUP1 SLOAD SWAP3 SWAP1 SWAP4 AND SWAP2 SWAP1 SWAP7 AND OR SWAP1 SSTORE SWAP2 DUP5 ADD MLOAD PUSH1 0x2 DUP4 ADD SSTORE PUSH1 0x60 DUP5 ADD MLOAD PUSH1 0x3 DUP4 ADD DUP1 SLOAD SWAP4 SWAP5 SWAP2 SWAP4 SWAP1 SWAP3 PUSH1 0xFF NOT SWAP1 SWAP2 AND SWAP2 SWAP1 DUP5 SWAP1 DUP2 GT ISZERO PUSH2 0x1FCC JUMPI PUSH2 0x1FCC PUSH2 0x286D JUMP JUMPDEST MUL OR SWAP1 SSTORE POP PUSH1 0x80 DUP3 ADD MLOAD DUP2 PUSH1 0x3 ADD PUSH1 0x1 PUSH2 0x100 EXP DUP2 SLOAD DUP2 PUSH1 0xFF MUL NOT AND SWAP1 DUP4 ISZERO ISZERO MUL OR SWAP1 SSTORE POP SWAP1 POP POP PUSH1 0x1 PUSH1 0x5 PUSH1 0x0 DUP3 DUP3 SLOAD PUSH2 0x2007 SWAP2 SWAP1 PUSH2 0x2A16 JUMP JUMPDEST SWAP1 SWAP2 SSTORE POP SWAP2 SWAP8 SWAP7 POP POP POP POP POP POP POP JUMP JUMPDEST PUSH32 0xF0C57E16840DF040F15088DC2F81FE391C3923BEC73E23A9662EFC9C229C6A00 DUP1 SLOAD PUSH1 0x1 PUSH1 0x40 SHL DUP2 DIV PUSH1 0xFF AND ISZERO SWAP1 PUSH8 0xFFFFFFFFFFFFFFFF AND PUSH1 0x0 DUP2 ISZERO DUP1 ISZERO PUSH2 0x205D JUMPI POP DUP3 JUMPDEST SWAP1 POP PUSH1 0x0 DUP3 PUSH8 0xFFFFFFFFFFFFFFFF AND PUSH1 0x1 EQ DUP1 ISZERO PUSH2 0x207A JUMPI POP ADDRESS EXTCODESIZE ISZERO JUMPDEST SWAP1 POP DUP2 ISZERO DUP1 ISZERO PUSH2 0x2088 JUMPI POP DUP1 ISZERO JUMPDEST ISZERO PUSH2 0x20A6 JUMPI PUSH1 0x40 MLOAD PUSH4 0xF92EE8A9 PUSH1 0xE0 SHL DUP2 MSTORE PUSH1 0x4 ADD PUSH1 0x40 MLOAD DUP1 SWAP2 SUB SWAP1 REVERT JUMPDEST DUP5 SLOAD PUSH8 0xFFFFFFFFFFFFFFFF NOT AND PUSH1 0x1 OR DUP6 SSTORE DUP4 ISZERO PUSH2 0x20D0 JUMPI DUP5 SLOAD PUSH1 0xFF PUSH1 0x40 SHL NOT AND PUSH1 0x1 PUSH1 0x40 SHL OR DUP6 SSTORE JUMPDEST DUP7 MLOAD DUP7 DUP2 DUP2 GT ISZERO DUP1 ISZERO PUSH2 0x20E2 JUMPI POP DUP1 ISZERO ISZERO JUMPDEST DUP1 ISZERO PUSH2 0x20ED JUMPI POP DUP2 ISZERO ISZERO JUMPDEST PUSH2 0x2109 JUMPI PUSH1 0x40 MLOAD PUSH3 0x461BCD PUSH1 0xE5 SHL DUP2 MSTORE PUSH1 0x4 ADD PUSH2 0x757 SWAP1 PUSH2 0x2A29 JUMP JUMPDEST PUSH1 0x0 JUMPDEST DUP10 MLOAD DUP2 LT ISZERO PUSH2 0x2263 JUMPI PUSH1 0x0 DUP1 DUP12 DUP4 DUP2 MLOAD DUP2 LT PUSH2 0x212A JUMPI PUSH2 0x212A PUSH2 0x29D1 JUMP JUMPDEST PUSH1 0x20 SWAP1 DUP2 MUL SWAP2 SWAP1 SWAP2 ADD DUP2 ADD MLOAD PUSH1 0x1 PUSH1 0x1 PUSH1 0xA0 SHL SUB AND DUP3 MSTORE DUP2 ADD SWAP2 SWAP1 SWAP2 MSTORE PUSH1 0x40 ADD PUSH1 0x0 KECCAK256 SLOAD PUSH1 0xFF AND ISZERO DUP1 ISZERO PUSH2 0x218A JUMPI POP PUSH1 0x0 PUSH1 0x1 PUSH1 0x1 PUSH1 0xA0 SHL SUB AND DUP11 DUP3 DUP2 MLOAD DUP2 LT PUSH2 0x2176 JUMPI PUSH2 0x2176 PUSH2 0x29D1 JUMP JUMPDEST PUSH1 0x20 MUL PUSH1 0x20 ADD ADD MLOAD PUSH1 0x1 PUSH1 0x1 PUSH1 0xA0 SHL SUB AND EQ ISZERO JUMPDEST PUSH2 0x2208 JUMPI PUSH1 0x40 MLOAD PUSH3 0x461BCD PUSH1 0xE5 SHL DUP2 MSTORE PUSH1 0x20 PUSH1 0x4 DUP3 ADD MSTORE PUSH1 0x43 PUSH1 0x24 DUP3 ADD MSTORE PUSH32 0x416464726573732073686F756C646E277420626520616C7265616479206C6973 PUSH1 0x44 DUP3 ADD MSTORE PUSH32 0x746564206173206F776E65722C206E6F722073686F756C64206974206265204E PUSH1 0x64 DUP3 ADD MSTORE PUSH3 0x155313 PUSH1 0xEA SHL PUSH1 0x84 DUP3 ADD MSTORE PUSH1 0xA4 ADD PUSH2 0x757 JUMP JUMPDEST PUSH1 0x1 PUSH1 0x0 DUP1 DUP13 DUP5 DUP2 MLOAD DUP2 LT PUSH2 0x221F JUMPI PUSH2 0x221F PUSH2 0x29D1 JUMP JUMPDEST PUSH1 0x20 SWAP1 DUP2 MUL SWAP2 SWAP1 SWAP2 ADD DUP2 ADD MLOAD PUSH1 0x1 PUSH1 0x1 PUSH1 0xA0 SHL SUB AND DUP3 MSTORE DUP2 ADD SWAP2 SWAP1 SWAP2 MSTORE PUSH1 0x40 ADD PUSH1 0x0 KECCAK256 DUP1 SLOAD PUSH1 0xFF NOT AND SWAP2 ISZERO ISZERO SWAP2 SWAP1 SWAP2 OR SWAP1 SSTORE DUP1 PUSH2 0x225B DUP2 PUSH2 0x29E7 JUMP JUMPDEST SWAP2 POP POP PUSH2 0x210C JUMP JUMPDEST POP DUP9 MLOAD PUSH2 0x2277 SWAP1 PUSH1 0x1 SWAP1 PUSH1 0x20 DUP13 ADD SWAP1 PUSH2 0x264B JUMP JUMPDEST POP POP POP PUSH1 0x2 DUP7 SWAP1 SSTORE DUP4 ISZERO PUSH2 0xD92 JUMPI DUP5 SLOAD PUSH1 0xFF PUSH1 0x40 SHL NOT AND DUP6 SSTORE PUSH1 0x40 MLOAD PUSH1 0x1 DUP2 MSTORE PUSH32 0xC7F505B2F371AE2175EE4913F4499E1F2633A7B5936321EED1CDAEB6115181D2 SWAP1 PUSH1 0x20 ADD PUSH2 0xD89 JUMP JUMPDEST PUSH1 0x0 DUP2 DUP2 MSTORE PUSH1 0x7 PUSH1 0x20 SWAP1 DUP2 MSTORE PUSH1 0x40 DUP1 DUP4 KECCAK256 SLOAD PUSH1 0x9 DUP2 SWAP1 SSTORE DUP4 MSTORE PUSH1 0x4 SWAP1 SWAP2 MSTORE SWAP1 KECCAK256 PUSH1 0x2 DUP2 ADD SLOAD SELFBALANCE LT ISZERO PUSH2 0x2335 JUMPI PUSH1 0x40 MLOAD PUSH3 0x461BCD PUSH1 0xE5 SHL DUP2 MSTORE PUSH1 0x20 PUSH1 0x4 DUP3 ADD DUP2 SWAP1 MSTORE PUSH1 0x24 DUP3 ADD MSTORE PUSH32 0x496E73756666696369656E742062616C616E636520696E20636F6E7472616374 PUSH1 0x44 DUP3 ADD MSTORE PUSH1 0x64 ADD PUSH2 0x757 JUMP JUMPDEST DUP1 SLOAD PUSH1 0x2 DUP3 ADD SLOAD PUSH1 0x40 MLOAD PUSH1 0x0 SWAP3 PUSH1 0x1 PUSH1 0x1 PUSH1 0xA0 SHL SUB AND SWAP2 SWAP1 DUP4 DUP2 DUP2 DUP2 DUP6 DUP8 GAS CALL SWAP3 POP POP POP RETURNDATASIZE DUP1 PUSH1 0x0 DUP2 EQ PUSH2 0x2385 JUMPI PUSH1 0x40 MLOAD SWAP2 POP PUSH1 0x1F NOT PUSH1 0x3F RETURNDATASIZE ADD AND DUP3 ADD PUSH1 0x40 MSTORE RETURNDATASIZE DUP3 MSTORE RETURNDATASIZE PUSH1 0x0 PUSH1 0x20 DUP5 ADD RETURNDATACOPY PUSH2 0x238A JUMP JUMPDEST PUSH1 0x60 SWAP2 POP JUMPDEST POP POP SWAP1 POP DUP1 PUSH2 0x23DB JUMPI PUSH1 0x40 MLOAD PUSH3 0x461BCD PUSH1 0xE5 SHL DUP2 MSTORE PUSH1 0x20 PUSH1 0x4 DUP3 ADD MSTORE PUSH1 0x1B PUSH1 0x24 DUP3 ADD MSTORE PUSH32 0x4661696C656420746F2073656E64204E617469766520746F6B656E0000000000 PUSH1 0x44 DUP3 ADD MSTORE PUSH1 0x64 ADD PUSH2 0x757 JUMP JUMPDEST PUSH1 0x9 SLOAD PUSH1 0x0 SWAP1 DUP2 MSTORE PUSH1 0x4 PUSH1 0x20 MSTORE PUSH1 0x40 SWAP1 DUP2 SWAP1 KECCAK256 PUSH1 0x3 ADD DUP1 SLOAD PUSH2 0xFF00 NOT AND PUSH2 0x100 OR SWAP1 SSTORE PUSH1 0x2 DUP4 ADD SLOAD SWAP1 MLOAD PUSH32 0x5550EBCD63FE55CFEE39F1D5D38991F3A21DD4699AB7C41E14112310FD0F8778 SWAP2 PUSH2 0x243B SWAP2 DUP7 SWAP1 SWAP2 DUP3 MSTORE PUSH1 0x20 DUP3 ADD MSTORE PUSH1 0x40 ADD SWAP1 JUMP JUMPDEST PUSH1 0x40 MLOAD DUP1 SWAP2 SUB SWAP1 LOG1 POP POP POP JUMP JUMPDEST PUSH1 0x0 DUP2 DUP2 MSTORE PUSH1 0x7 PUSH1 0x20 SWAP1 DUP2 MSTORE PUSH1 0x40 DUP1 DUP4 KECCAK256 SLOAD PUSH1 0x9 DUP2 SWAP1 SSTORE DUP4 MSTORE PUSH1 0x4 SWAP2 DUP3 SWAP1 MSTORE DUP1 DUP4 KECCAK256 PUSH1 0x3 SLOAD PUSH1 0x1 DUP3 ADD SLOAD SWAP3 MLOAD PUSH4 0x6EB1769F PUSH1 0xE1 SHL DUP2 MSTORE PUSH1 0x1 PUSH1 0x1 PUSH1 0xA0 SHL SUB SWAP4 DUP5 AND SWAP5 DUP2 ADD SWAP5 SWAP1 SWAP5 MSTORE ADDRESS PUSH1 0x24 DUP6 ADD MSTORE SWAP1 SWAP4 SWAP3 SWAP2 AND SWAP1 PUSH4 0xDD62ED3E SWAP1 PUSH1 0x44 ADD PUSH1 0x20 PUSH1 0x40 MLOAD DUP1 DUP4 SUB DUP2 DUP7 GAS STATICCALL ISZERO DUP1 ISZERO PUSH2 0x24C2 JUMPI RETURNDATASIZE PUSH1 0x0 DUP1 RETURNDATACOPY RETURNDATASIZE PUSH1 0x0 REVERT JUMPDEST POP POP POP POP PUSH1 0x40 MLOAD RETURNDATASIZE PUSH1 0x1F NOT PUSH1 0x1F DUP3 ADD AND DUP3 ADD DUP1 PUSH1 0x40 MSTORE POP DUP2 ADD SWAP1 PUSH2 0x24E6 SWAP2 SWAP1 PUSH2 0x2B13 JUMP JUMPDEST SWAP1 POP DUP2 PUSH1 0x2 ADD SLOAD DUP2 LT ISZERO PUSH2 0x2562 JUMPI PUSH1 0x40 MLOAD PUSH3 0x461BCD PUSH1 0xE5 SHL DUP2 MSTORE PUSH1 0x20 PUSH1 0x4 DUP3 ADD MSTORE PUSH1 0x37 PUSH1 0x24 DUP3 ADD MSTORE PUSH32 0x436F6E7472616374206973206E6F7420616C6C6F776564206279207573657220 PUSH1 0x44 DUP3 ADD MSTORE PUSH32 0x746F207472616E73666572207375636820616D6F756E74000000000000000000 PUSH1 0x64 DUP3 ADD MSTORE PUSH1 0x84 ADD PUSH2 0x757 JUMP JUMPDEST PUSH1 0x3 SLOAD PUSH1 0x1 DUP4 ADD SLOAD DUP4 SLOAD PUSH1 0x2 DUP6 ADD SLOAD PUSH1 0x40 MLOAD PUSH4 0x23B872DD PUSH1 0xE0 SHL DUP2 MSTORE PUSH1 0x1 PUSH1 0x1 PUSH1 0xA0 SHL SUB SWAP4 DUP5 AND PUSH1 0x4 DUP3 ADD MSTORE SWAP2 DUP4 AND PUSH1 0x24 DUP4 ADD MSTORE PUSH1 0x44 DUP3 ADD MSTORE SWAP2 AND SWAP1 PUSH4 0x23B872DD SWAP1 PUSH1 0x64 ADD PUSH1 0x20 PUSH1 0x40 MLOAD DUP1 DUP4 SUB DUP2 PUSH1 0x0 DUP8 GAS CALL ISZERO DUP1 ISZERO PUSH2 0x25C6 JUMPI RETURNDATASIZE PUSH1 0x0 DUP1 RETURNDATACOPY RETURNDATASIZE PUSH1 0x0 REVERT JUMPDEST POP POP POP POP PUSH1 0x40 MLOAD RETURNDATASIZE PUSH1 0x1F NOT PUSH1 0x1F DUP3 ADD AND DUP3 ADD DUP1 PUSH1 0x40 MSTORE POP DUP2 ADD SWAP1 PUSH2 0x25EA SWAP2 SWAP1 PUSH2 0x2B2C JUMP JUMPDEST POP PUSH1 0x9 SLOAD PUSH1 0x0 SWAP1 DUP2 MSTORE PUSH1 0x4 PUSH1 0x20 MSTORE PUSH1 0x40 SWAP1 DUP2 SWAP1 KECCAK256 PUSH1 0x3 ADD DUP1 SLOAD PUSH2 0xFF00 NOT AND PUSH2 0x100 OR SWAP1 SSTORE PUSH1 0x2 DUP4 ADD SLOAD SWAP1 MLOAD PUSH32 0x4645E2DFFCB6B5BE91555757773B76BBF2E4612DA04DB6995AEF42FACF6C2B52 SWAP2 PUSH2 0x243B SWAP2 DUP7 SWAP1 SWAP2 DUP3 MSTORE PUSH1 0x20 DUP3 ADD MSTORE PUSH1 0x40 ADD SWAP1 JUMP JUMPDEST DUP3 DUP1 SLOAD DUP3 DUP3 SSTORE SWAP1 PUSH1 0x0 MSTORE PUSH1 0x20 PUSH1 0x0 KECCAK256 SWAP1 DUP2 ADD SWAP3 DUP3 ISZERO PUSH2 0x26A0 JUMPI SWAP2 PUSH1 0x20 MUL DUP3 ADD JUMPDEST DUP3 DUP2 GT ISZERO PUSH2 0x26A0 JUMPI DUP3 MLOAD DUP3 SLOAD PUSH1 0x1 PUSH1 0x1 PUSH1 0xA0 SHL SUB NOT AND PUSH1 0x1 PUSH1 0x1 PUSH1 0xA0 SHL SUB SWAP1 SWAP2 AND OR DUP3 SSTORE PUSH1 0x20 SWAP1 SWAP3 ADD SWAP2 PUSH1 0x1 SWAP1 SWAP2 ADD SWAP1 PUSH2 0x266B JUMP JUMPDEST POP PUSH2 0x26AC SWAP3 SWAP2 POP PUSH2 0x26B0 JUMP JUMPDEST POP SWAP1 JUMP JUMPDEST JUMPDEST DUP1 DUP3 GT ISZERO PUSH2 0x26AC JUMPI PUSH1 0x0 DUP2 SSTORE PUSH1 0x1 ADD PUSH2 0x26B1 JUMP JUMPDEST PUSH1 0x0 PUSH1 0x20 DUP3 DUP5 SUB SLT ISZERO PUSH2 0x26D7 JUMPI PUSH1 0x0 DUP1 REVERT JUMPDEST POP CALLDATALOAD SWAP2 SWAP1 POP JUMP JUMPDEST DUP1 CALLDATALOAD PUSH1 0x1 PUSH1 0x1 PUSH1 0xA0 SHL SUB DUP2 AND DUP2 EQ PUSH2 0x26F5 JUMPI PUSH1 0x0 DUP1 REVERT JUMPDEST SWAP2 SWAP1 POP JUMP JUMPDEST PUSH1 0x0 DUP1 PUSH1 0x40 DUP4 DUP6 SUB SLT ISZERO PUSH2 0x270D JUMPI PUSH1 0x0 DUP1 REVERT JUMPDEST DUP3 CALLDATALOAD SWAP2 POP PUSH2 0x271D PUSH1 0x20 DUP5 ADD PUSH2 0x26DE JUMP JUMPDEST SWAP1 POP SWAP3 POP SWAP3 SWAP1 POP JUMP JUMPDEST PUSH1 0x0 PUSH1 0x20 DUP3 DUP5 SUB SLT ISZERO PUSH2 0x2738 JUMPI PUSH1 0x0 DUP1 REVERT JUMPDEST PUSH2 0x2741 DUP3 PUSH2 0x26DE JUMP JUMPDEST SWAP4 SWAP3 POP POP POP JUMP JUMPDEST PUSH1 0x0 DUP1 PUSH1 0x0 PUSH1 0x60 DUP5 DUP7 SUB SLT ISZERO PUSH2 0x275D JUMPI PUSH1 0x0 DUP1 REVERT JUMPDEST PUSH2 0x2766 DUP5 PUSH2 0x26DE JUMP JUMPDEST SWAP3 POP PUSH1 0x20 DUP5 ADD CALLDATALOAD SWAP2 POP PUSH1 0x40 DUP5 ADD CALLDATALOAD PUSH1 0x5 DUP2 LT PUSH2 0x2781 JUMPI PUSH1 0x0 DUP1 REVERT JUMPDEST DUP1 SWAP2 POP POP SWAP3 POP SWAP3 POP SWAP3 JUMP JUMPDEST PUSH4 0x4E487B71 PUSH1 0xE0 SHL PUSH1 0x0 MSTORE PUSH1 0x41 PUSH1 0x4 MSTORE PUSH1 0x24 PUSH1 0x0 REVERT JUMPDEST PUSH1 0x0 DUP1 PUSH1 0x40 DUP4 DUP6 SUB SLT ISZERO PUSH2 0x27B5 JUMPI PUSH1 0x0 DUP1 REVERT JUMPDEST DUP3 CALLDATALOAD PUSH8 0xFFFFFFFFFFFFFFFF DUP1 DUP3 GT ISZERO PUSH2 0x27CD JUMPI PUSH1 0x0 DUP1 REVERT JUMPDEST DUP2 DUP6 ADD SWAP2 POP DUP6 PUSH1 0x1F DUP4 ADD SLT PUSH2 0x27E1 JUMPI PUSH1 0x0 DUP1 REVERT JUMPDEST DUP2 CALLDATALOAD PUSH1 0x20 DUP3 DUP3 GT ISZERO PUSH2 0x27F5 JUMPI PUSH2 0x27F5 PUSH2 0x278C JUMP JUMPDEST DUP2 PUSH1 0x5 SHL PUSH1 0x40 MLOAD PUSH1 0x1F NOT PUSH1 0x3F DUP4 ADD AND DUP2 ADD DUP2 DUP2 LT DUP7 DUP3 GT OR ISZERO PUSH2 0x281A JUMPI PUSH2 0x281A PUSH2 0x278C JUMP JUMPDEST PUSH1 0x40 MSTORE SWAP3 DUP4 MSTORE DUP2 DUP4 ADD SWAP4 POP DUP5 DUP2 ADD DUP3 ADD SWAP3 DUP10 DUP5 GT ISZERO PUSH2 0x2838 JUMPI PUSH1 0x0 DUP1 REVERT JUMPDEST SWAP5 DUP3 ADD SWAP5 JUMPDEST DUP4 DUP7 LT ISZERO PUSH2 0x285D JUMPI PUSH2 0x284E DUP7 PUSH2 0x26DE JUMP JUMPDEST DUP6 MSTORE SWAP5 DUP3 ADD SWAP5 SWAP4 DUP3 ADD SWAP4 PUSH2 0x283D JUMP JUMPDEST SWAP10 SWAP8 SWAP1 SWAP2 ADD CALLDATALOAD SWAP8 POP POP POP POP POP POP POP JUMP JUMPDEST PUSH4 0x4E487B71 PUSH1 0xE0 SHL PUSH1 0x0 MSTORE PUSH1 0x21 PUSH1 0x4 MSTORE PUSH1 0x24 PUSH1 0x0 REVERT JUMPDEST PUSH1 0x1 PUSH1 0x1 PUSH1 0xA0 SHL SUB DUP7 DUP2 AND DUP3 MSTORE DUP6 AND PUSH1 0x20 DUP3 ADD MSTORE PUSH1 0x40 DUP2 ADD DUP5 SWAP1 MSTORE PUSH1 0xA0 DUP2 ADD PUSH1 0x5 DUP5 LT PUSH2 0x28C0 JUMPI PUSH4 0x4E487B71 PUSH1 0xE0 SHL PUSH1 0x0 MSTORE PUSH1 0x21 PUSH1 0x4 MSTORE PUSH1 0x24 PUSH1 0x0 REVERT JUMPDEST DUP4 PUSH1 0x60 DUP4 ADD MSTORE DUP3 ISZERO ISZERO PUSH1 0x80 DUP4 ADD MSTORE SWAP7 SWAP6 POP POP POP POP POP POP JUMP JUMPDEST PUSH1 0x20 DUP1 DUP3 MSTORE DUP3 MLOAD DUP3 DUP3 ADD DUP2 SWAP1 MSTORE PUSH1 0x0 SWAP2 SWAP1 DUP5 DUP3 ADD SWAP1 PUSH1 0x40 DUP6 ADD SWAP1 DUP5 JUMPDEST DUP2 DUP2 LT ISZERO PUSH2 0x2919 JUMPI DUP4 MLOAD PUSH1 0x1 PUSH1 0x1 PUSH1 0xA0 SHL SUB AND DUP4 MSTORE SWAP3 DUP5 ADD SWAP3 SWAP2 DUP5 ADD SWAP2 PUSH1 0x1 ADD PUSH2 0x28F4 JUMP JUMPDEST POP SWAP1 SWAP7 SWAP6 POP POP POP POP POP POP JUMP JUMPDEST PUSH1 0x20 DUP1 DUP3 MSTORE PUSH1 0x2C SWAP1 DUP3 ADD MSTORE PUSH32 0x4E6F207472616E73616374696F6E20666F756E64206173736F63696174656420 PUSH1 0x40 DUP3 ADD MSTORE PUSH12 0x1DDA5D1A081D1A1A5CC81259 PUSH1 0xA2 SHL PUSH1 0x60 DUP3 ADD MSTORE PUSH1 0x80 ADD SWAP1 JUMP JUMPDEST PUSH1 0x20 DUP1 DUP3 MSTORE PUSH1 0x1C SWAP1 DUP3 ADD MSTORE PUSH32 0x546869732061646472657373206973206E6F7420616E206F776E657200000000 PUSH1 0x40 DUP3 ADD MSTORE PUSH1 0x60 ADD SWAP1 JUMP JUMPDEST PUSH4 0x4E487B71 PUSH1 0xE0 SHL PUSH1 0x0 MSTORE PUSH1 0x11 PUSH1 0x4 MSTORE PUSH1 0x24 PUSH1 0x0 REVERT JUMPDEST DUP2 DUP2 SUB DUP2 DUP2 GT ISZERO PUSH2 0x79F JUMPI PUSH2 0x79F PUSH2 0x29A8 JUMP JUMPDEST PUSH4 0x4E487B71 PUSH1 0xE0 SHL PUSH1 0x0 MSTORE PUSH1 0x32 PUSH1 0x4 MSTORE PUSH1 0x24 PUSH1 0x0 REVERT JUMPDEST PUSH1 0x0 PUSH1 0x1 DUP3 ADD PUSH2 0x29F9 JUMPI PUSH2 0x29F9 PUSH2 0x29A8 JUMP JUMPDEST POP PUSH1 0x1 ADD SWAP1 JUMP JUMPDEST PUSH4 0x4E487B71 PUSH1 0xE0 SHL PUSH1 0x0 MSTORE PUSH1 0x31 PUSH1 0x4 MSTORE PUSH1 0x24 PUSH1 0x0 REVERT JUMPDEST DUP1 DUP3 ADD DUP1 DUP3 GT ISZERO PUSH2 0x79F JUMPI PUSH2 0x79F PUSH2 0x29A8 JUMP JUMPDEST PUSH1 0x20 DUP1 DUP3 MSTORE PUSH1 0x16 SWAP1 DUP3 ADD MSTORE PUSH22 0x10DBDB991A5D1A5BDB9CC8185C99481B9BDD081B595D PUSH1 0x52 SHL PUSH1 0x40 DUP3 ADD MSTORE PUSH1 0x60 ADD SWAP1 JUMP JUMPDEST PUSH1 0x20 DUP1 DUP3 MSTORE PUSH1 0x31 SWAP1 DUP3 ADD MSTORE PUSH32 0x5468657265206973206E6F207472616E73616374696F6E206173736F63696174 PUSH1 0x40 DUP3 ADD MSTORE PUSH17 0x1959081D1BC81D1A1A5CC81A185CDA1259 PUSH1 0x7A SHL PUSH1 0x60 DUP3 ADD MSTORE PUSH1 0x80 ADD SWAP1 JUMP JUMPDEST PUSH1 0x20 DUP1 DUP3 MSTORE PUSH1 0x43 SWAP1 DUP3 ADD MSTORE PUSH32 0x546865207472616E73616374696F6E206173736F636961746564207769746820 PUSH1 0x40 DUP3 ADD MSTORE PUSH32 0x7468697320686173682068617320616C7265616479206265656E206578656375 PUSH1 0x60 DUP3 ADD MSTORE PUSH3 0x1D1959 PUSH1 0xEA SHL PUSH1 0x80 DUP3 ADD MSTORE PUSH1 0xA0 ADD SWAP1 JUMP JUMPDEST PUSH1 0x0 PUSH1 0x20 DUP3 DUP5 SUB SLT ISZERO PUSH2 0x2B25 JUMPI PUSH1 0x0 DUP1 REVERT JUMPDEST POP MLOAD SWAP2 SWAP1 POP JUMP JUMPDEST PUSH1 0x0 PUSH1 0x20 DUP3 DUP5 SUB SLT ISZERO PUSH2 0x2B3E JUMPI PUSH1 0x0 DUP1 REVERT JUMPDEST DUP2 MLOAD DUP1 ISZERO ISZERO DUP2 EQ PUSH2 0x2741 JUMPI PUSH1 0x0 DUP1 REVERT INVALID LOG2 PUSH5 0x6970667358 0x22 SLT KECCAK256 0xAE MUL 0xCF 0xC9 PUSH1 0x1D CREATE DUP9 RETURNDATACOPY PUSH14 0x3DF9EC90B66B3D4EAF6A9BE98087 SLT PUSH20 0x301C03B9F5CD64736F6C63430008140033000000 "},"gasEstimates":{"creation":{"codeDepositCost":"2228000","executionCost":"2382","totalCost":"2230382"},"external":{"":"1699","addOwner(address)":"83108","changeQuorum(uint256)":"27827","confirmTransaction(uint256)":"59265","confirmations(bytes32,address)":"2686","deposit()":"1686","executeTransaction(uint256)":"infinite","getConfirmationCount(uint256)":"infinite","getConfirmations(uint256)":"infinite","getOwnerCount()":"2380","getOwners()":"infinite","getQuorum()":"2337","getRevocationCount(uint256)":"infinite","getRevocations(uint256)":"infinite","getTokenBalance()":"infinite","getTransactionCount()":"2382","getUserConfirmationStatus(uint256,address)":"infinite","hashId()":"2362","hashesId(uint256)":"4643","idToHashes(uint256)":"2548","initialize(address[],uint256)":"infinite","isConfirmed(uint256)":"infinite","isOwner(address)":"2646","isRevoked(uint256)":"infinite","owners(uint256)":"4650","quorum()":"2408","removeOwner(address)":"infinite","revokeTransaction(uint256)":"59210","setTokenContractAddress(address)":"26812","submitTransaction(address,uint256,uint8)":"241088","transactionCount()":"2384","transactions(bytes32)":"9133","verifyOwner(address)":"2620"},"internal":{"addTransaction(address,address,uint256,enum MultiSigTransaction.TransactionType,bytes32)":"infinite","executeERC20Transaction(uint256)":"infinite","executeNativeTransaction(uint256)":"infinite","sendERC20(address,address,uint256)":"infinite"}},"methodIdentifiers":{"addOwner(address)":"7065cb48","changeQuorum(uint256)":"d2cd96bd","confirmTransaction(uint256)":"c01a8c84","confirmations(bytes32,address)":"0c4ecab4","deposit()":"d0e30db0","executeTransaction(uint256)":"ee22610b","getConfirmationCount(uint256)":"8b51d13f","getConfirmations(uint256)":"b5dc40c3","getOwnerCount()":"ef18374a","getOwners()":"a0e67e2b","getQuorum()":"c26c12eb","getRevocationCount(uint256)":"c85c41e9","getRevocations(uint256)":"af05445a","getTokenBalance()":"82b2e257","getTransactionCount()":"2e7700f0","getUserConfirmationStatus(uint256,address)":"144dee38","hashId()":"c59bcee8","hashesId(uint256)":"29cd11b2","idToHashes(uint256)":"f6bdc030","initialize(address[],uint256)":"60b5bb3f","isConfirmed(uint256)":"784547a7","isOwner(address)":"2f54bf6e","isRevoked(uint256)":"5ccc561e","owners(uint256)":"025e7c27","quorum()":"1703a018","removeOwner(address)":"173825d9","revokeTransaction(uint256)":"735631ad","setTokenContractAddress(address)":"b23d4854","submitTransaction(address,uint256,uint8)":"3c680462","transactionCount()":"b77bf600","transactions(bytes32)":"642f2eaf","verifyOwner(address)":"8c85cd85"}},"storageLayout":{"storage":[{"astId":417,"contract":"contracts/MultiSigTransactions.sol:MultiSigTransaction","label":"isOwner","offset":0,"slot":"0","type":"t_mapping(t_address,t_bool)"},{"astId":420,"contract":"contracts/MultiSigTransactions.sol:MultiSigTransaction","label":"owners","offset":0,"slot":"1","type":"t_array(t_address)dyn_storage"},{"astId":422,"contract":"contracts/MultiSigTransactions.sol:MultiSigTransaction","label":"quorum","offset":0,"slot":"2","type":"t_uint256"},{"astId":1071,"contract":"contracts/MultiSigTransactions.sol:MultiSigTransaction","label":"MyTokenContract","offset":0,"slot":"3","type":"t_contract(IERC20)331"},{"astId":1076,"contract":"contracts/MultiSigTransactions.sol:MultiSigTransaction","label":"transactions","offset":0,"slot":"4","type":"t_mapping(t_bytes32,t_struct(Transaction)1111_storage)"},{"astId":1078,"contract":"contracts/MultiSigTransactions.sol:MultiSigTransaction","label":"transactionCount","offset":0,"slot":"5","type":"t_uint256"},{"astId":1084,"contract":"contracts/MultiSigTransactions.sol:MultiSigTransaction","label":"confirmations","offset":0,"slot":"6","type":"t_mapping(t_bytes32,t_mapping(t_address,t_uint256))"},{"astId":1088,"contract":"contracts/MultiSigTransactions.sol:MultiSigTransaction","label":"idToHashes","offset":0,"slot":"7","type":"t_mapping(t_uint256,t_bytes32)"},{"astId":1091,"contract":"contracts/MultiSigTransactions.sol:MultiSigTransaction","label":"hashesId","offset":0,"slot":"8","type":"t_array(t_bytes32)dyn_storage"},{"astId":1093,"contract":"contracts/MultiSigTransactions.sol:MultiSigTransaction","label":"hashId","offset":0,"slot":"9","type":"t_bytes32"}],"types":{"t_address":{"encoding":"inplace","label":"address","numberOfBytes":"20"},"t_array(t_address)dyn_storage":{"base":"t_address","encoding":"dynamic_array","label":"address[]","numberOfBytes":"32"},"t_array(t_bytes32)dyn_storage":{"base":"t_bytes32","encoding":"dynamic_array","label":"bytes32[]","numberOfBytes":"32"},"t_bool":{"encoding":"inplace","label":"bool","numberOfBytes":"1"},"t_bytes32":{"encoding":"inplace","label":"bytes32","numberOfBytes":"32"},"t_contract(IERC20)331":{"encoding":"inplace","label":"contract IERC20","numberOfBytes":"20"},"t_enum(TransactionType)1099":{"encoding":"inplace","label":"enum MultiSigTransaction.TransactionType","numberOfBytes":"1"},"t_mapping(t_address,t_bool)":{"encoding":"mapping","key":"t_address","label":"mapping(address => bool)","numberOfBytes":"32","value":"t_bool"},"t_mapping(t_address,t_uint256)":{"encoding":"mapping","key":"t_address","label":"mapping(address => uint256)","numberOfBytes":"32","value":"t_uint256"},"t_mapping(t_bytes32,t_mapping(t_address,t_uint256))":{"encoding":"mapping","key":"t_bytes32","label":"mapping(bytes32 => mapping(address => uint256))","numberOfBytes":"32","value":"t_mapping(t_address,t_uint256)"},"t_mapping(t_bytes32,t_struct(Transaction)1111_storage)":{"encoding":"mapping","key":"t_bytes32","label":"mapping(bytes32 => struct MultiSigTransaction.Transaction)","numberOfBytes":"32","value":"t_struct(Transaction)1111_storage"},"t_mapping(t_uint256,t_bytes32)":{"encoding":"mapping","key":"t_uint256","label":"mapping(uint256 => bytes32)","numberOfBytes":"32","value":"t_bytes32"},"t_struct(Transaction)1111_storage":{"encoding":"inplace","label":"struct MultiSigTransaction.Transaction","members":[{"astId":1101,"contract":"contracts/MultiSigTransactions.sol:MultiSigTransaction","label":"destination","offset":0,"slot":"0","type":"t_address"},{"astId":1103,"contract":"contracts/MultiSigTransactions.sol:MultiSigTransaction","label":"submitterAddress","offset":0,"slot":"1","type":"t_address"},{"astId":1105,"contract":"contracts/MultiSigTransactions.sol:MultiSigTransaction","label":"value","offset":0,"slot":"2","type":"t_uint256"},{"astId":1108,"contract":"contracts/MultiSigTransactions.sol:MultiSigTransaction","label":"transactionType","offset":0,"slot":"3","type":"t_enum(TransactionType)1099"},{"astId":1110,"contract":"contracts/MultiSigTransactions.sol:MultiSigTransaction","label":"executed","offset":1,"slot":"3","type":"t_bool"}],"numberOfBytes":"128"},"t_uint256":{"encoding":"inplace","label":"uint256","numberOfBytes":"32"}}},"userdoc":{"kind":"user","methods":{},"notice":"This contract integrates multi-signature administration features with transaction          execution logic, supporting both native and ERC20 token transfers.","version":1}}}}