{"contracts/MultiSigAdministration.sol":{"MultiSigAdministration":{"abi":[{"inputs":[],"name":"InvalidInitialization","type":"error"},{"inputs":[],"name":"NotInitializing","type":"error"},{"anonymous":false,"inputs":[{"indexed":false,"internalType":"uint64","name":"version","type":"uint64"}],"name":"Initialized","type":"event"},{"anonymous":false,"inputs":[{"indexed":true,"internalType":"address","name":"owner","type":"address"}],"name":"OwnerAddition","type":"event"},{"anonymous":false,"inputs":[{"indexed":true,"internalType":"address","name":"owner","type":"address"}],"name":"OwnerRemoval","type":"event"},{"anonymous":false,"inputs":[{"indexed":false,"internalType":"uint256","name":"quorum","type":"uint256"}],"name":"QuorumChanged","type":"event"},{"inputs":[{"internalType":"address","name":"owner","type":"address"}],"name":"addOwner","outputs":[],"stateMutability":"nonpayable","type":"function"},{"inputs":[{"internalType":"uint256","name":"newQuorum","type":"uint256"}],"name":"changeQuorum","outputs":[],"stateMutability":"nonpayable","type":"function"},{"inputs":[],"name":"getOwnerCount","outputs":[{"internalType":"uint256","name":"res","type":"uint256"}],"stateMutability":"view","type":"function"},{"inputs":[],"name":"getOwners","outputs":[{"internalType":"address[]","name":"","type":"address[]"}],"stateMutability":"view","type":"function"},{"inputs":[],"name":"getQuorum","outputs":[{"internalType":"uint256","name":"res","type":"uint256"}],"stateMutability":"view","type":"function"},{"inputs":[{"internalType":"address[]","name":"_owners","type":"address[]"},{"internalType":"uint256","name":"_quorum","type":"uint256"}],"name":"initialize","outputs":[],"stateMutability":"nonpayable","type":"function"},{"inputs":[{"internalType":"address","name":"","type":"address"}],"name":"isOwner","outputs":[{"internalType":"bool","name":"","type":"bool"}],"stateMutability":"view","type":"function"},{"inputs":[{"internalType":"uint256","name":"","type":"uint256"}],"name":"owners","outputs":[{"internalType":"address","name":"","type":"address"}],"stateMutability":"view","type":"function"},{"inputs":[],"name":"quorum","outputs":[{"internalType":"uint256","name":"","type":"uint256"}],"stateMutability":"view","type":"function"},{"inputs":[{"internalType":"address","name":"owner","type":"address"}],"name":"removeOwner","outputs":[],"stateMutability":"nonpayable","type":"function"},{"inputs":[{"internalType":"address","name":"addressToVerify","type":"address"}],"name":"verifyOwner","outputs":[{"internalType":"bool","name":"res","type":"bool"}],"stateMutability":"view","type":"function"}],"devdoc":{"details":"Contract to manage owners and quorum requirements for a multi-signature setup.          Initializable for upgradeable contract patterns.","errors":{"InvalidInitialization()":[{"details":"The contract is already initialized."}],"NotInitializing()":[{"details":"The contract is not initializing."}]},"events":{"Initialized(uint64)":{"details":"Triggered when the contract has been initialized or reinitialized."},"OwnerAddition(address)":{"details":"Emitted when a new owner is added to the contract.","params":{"owner":"The address of the newly added owner."}},"OwnerRemoval(address)":{"details":"Emitted when an owner is removed from the contract.","params":{"owner":"The address of the owner being removed."}},"QuorumChanged(uint256)":{"details":"Emitted when the quorum requirement is changed.","params":{"quorum":"The new quorum requirement."}}},"kind":"dev","methods":{"addOwner(address)":{"details":"Adds a new owner to the contract. Restricted to existing owners.","params":{"owner":"The address to be added as a new owner."}},"changeQuorum(uint256)":{"details":"Changes the quorum requirement. Restricted to existing owners.","params":{"newQuorum":"The new quorum requirement."}},"getOwnerCount()":{"details":"Returns the total number of owners.","returns":{"res":": The total number of owners."}},"getOwners()":{"details":"Returns the list of current owners.","returns":{"_0":"The current list of owner addresses."}},"getQuorum()":{"details":"Returns the current quorum requirement.","returns":{"res":": The current quorum requirement."}},"initialize(address[],uint256)":{"details":"Initializes the contract with a set of owners and a quorum requirement.","params":{"_owners":"List of initial owners.","_quorum":"The initial quorum requirement."}},"removeOwner(address)":{"details":"Removes an existing owner from the contract. Restricted to existing owners.","params":{"owner":"The address of the owner to be removed."}},"verifyOwner(address)":{"details":"Checks if a given address is an owner of the contract.","params":{"addressToVerify":"The address to be verified."},"returns":{"res":": `true` if the address is an owner, `false` otherwise."}}},"title":"Multi-Signature Administration Contract","version":1},"evm":{"bytecode":{"linkReferences":{},"object":"608060405234801561001057600080fd5b50610ce8806100206000396000f3fe608060405234801561001057600080fd5b50600436106100a95760003560e01c80637065cb48116100715780637065cb48146101505780638c85cd8514610163578063a0e67e2b1461018f578063c26c12eb146101a4578063d2cd96bd146101ac578063ef18374a146101bf57600080fd5b8063025e7c27146100ae5780631703a018146100de578063173825d9146100f55780632f54bf6e1461010a57806360b5bb3f1461013d575b600080fd5b6100c16100bc366004610a3f565b6101c7565b6040516001600160a01b0390911681526020015b60405180910390f35b6100e760025481565b6040519081526020016100d5565b610108610103366004610a74565b6101f1565b005b61012d610118366004610a74565b60006020819052908152604090205460ff1681565b60405190151581526020016100d5565b61010861014b366004610aac565b610448565b61010861015e366004610a74565b6106ff565b61012d610171366004610a74565b6001600160a01b031660009081526020819052604090205460ff1690565b6101976108bc565b6040516100d59190610b77565b6002546100e7565b6101086101ba366004610a3f565b61091e565b6001546100e7565b600181815481106101d757600080fd5b6000918252602090912001546001600160a01b0316905081565b3360008181526020819052604090205460ff166102295760405162461bcd60e51b815260040161022090610bc4565b60405180910390fd5b6001600160a01b038216600090815260208190526040902054829060ff166102635760405162461bcd60e51b815260040161022090610bc4565b60018054116102b45760405162461bcd60e51b815260206004820152601760248201527f43616e27742072656d6f7665206c617374206f776e65720000000000000000006044820152606401610220565b600180546102c29190610c11565b60025411156102dc57600180546102dc916101ba91610c11565b60005b600180546102ed9190610c11565b8110156103bb57836001600160a01b03166001828154811061031157610311610c2a565b6000918252602090912001546001600160a01b0316036103a9576001805461033a908290610c11565b8154811061034a5761034a610c2a565b600091825260209091200154600180546001600160a01b03909216918390811061037657610376610c2a565b9060005260206000200160006101000a8154816001600160a01b0302191690836001600160a01b031602179055506103bb565b806103b381610c40565b9150506102df565b506001600160a01b0383166000908152602081905260409020805460ff1916905560018054806103ed576103ed610c59565b600082815260208120820160001990810180546001600160a01b03191690559091019091556040516001600160a01b038516917f8001553a916ef2f495d26a907cc54d96ed840d7bda71e73194bf5a9df7a76b9091a2505050565b7ff0c57e16840df040f15088dc2f81fe391c3923bec73e23a9662efc9c229c6a008054600160401b810460ff16159067ffffffffffffffff1660008115801561048e5750825b905060008267ffffffffffffffff1660011480156104ab5750303b155b9050811580156104b9575080155b156104d75760405163f92ee8a960e01b815260040160405180910390fd5b845467ffffffffffffffff19166001178555831561050157845460ff60401b1916600160401b1785555b86518681811115801561051357508015155b801561051e57508115155b61053a5760405162461bcd60e51b815260040161022090610c6f565b60005b8951811015610694576000808b838151811061055b5761055b610c2a565b6020908102919091018101516001600160a01b031682528101919091526040016000205460ff161580156105bb575060006001600160a01b03168a82815181106105a7576105a7610c2a565b60200260200101516001600160a01b031614155b6106395760405162461bcd60e51b815260206004820152604360248201527f416464726573732073686f756c646e277420626520616c7265616479206c697360448201527f746564206173206f776e65722c206e6f722073686f756c64206974206265204e60648201526215531360ea1b608482015260a401610220565b60016000808c848151811061065057610650610c2a565b6020908102919091018101516001600160a01b03168252810191909152604001600020805460ff19169115159190911790558061068c81610c40565b91505061053d565b5088516106a89060019060208c01906109c5565b505050600286905583156106f657845460ff60401b19168555604051600181527fc7f505b2f371ae2175ee4913f4499e1f2633a7b5936321eed1cdaeb6115181d29060200160405180910390a15b50505050505050565b6001600160a01b038116600090815260208190526040902054819060ff161561076a5760405162461bcd60e51b815260206004820181905260248201527f54686973206164647265737320697320616c726561647920616e206f776e65726044820152606401610220565b3360008181526020819052604090205460ff166107995760405162461bcd60e51b815260040161022090610bc4565b826001600160a01b0381166107e65760405162461bcd60e51b8152602060048201526013602482015272151a19481859191c995cdcc81a5cc81b9d5b1b606a1b6044820152606401610220565b600180546107f391610c9f565b60025481811115801561080557508015155b801561081057508115155b61082c5760405162461bcd60e51b815260040161022090610c6f565b6001600160a01b038616600081815260208190526040808220805460ff19166001908117909155805480820182559083527fb10e2d527612073b26eecdfd717e6a320cf44b4afac2b0732d9fcbe2b7fa0cf60180546001600160a01b03191684179055517ff39e6e1eb0edcf53c221607b54b00cd28f3196fed0a24994dc308b8f611b682d9190a2505050505050565b6060600180548060200260200160405190810160405280929190818152602001828054801561091457602002820191906000526020600020905b81546001600160a01b031681526001909101906020018083116108f6575b5050505050905090565b3360008181526020819052604090205460ff1661094d5760405162461bcd60e51b815260040161022090610bc4565b6001548281811180159061096057508015155b801561096b57508115155b6109875760405162461bcd60e51b815260040161022090610c6f565b60028490556040518481527f027863d12a407097e086a48e36475bfc859d0b200b7e6f65b5fd3b218e46632e9060200160405180910390a150505050565b828054828255906000526020600020908101928215610a1a579160200282015b82811115610a1a57825182546001600160a01b0319166001600160a01b039091161782556020909201916001909101906109e5565b50610a26929150610a2a565b5090565b5b80821115610a265760008155600101610a2b565b600060208284031215610a5157600080fd5b5035919050565b80356001600160a01b0381168114610a6f57600080fd5b919050565b600060208284031215610a8657600080fd5b610a8f82610a58565b9392505050565b634e487b7160e01b600052604160045260246000fd5b60008060408385031215610abf57600080fd5b823567ffffffffffffffff80821115610ad757600080fd5b818501915085601f830112610aeb57600080fd5b8135602082821115610aff57610aff610a96565b8160051b604051601f19603f83011681018181108682111715610b2457610b24610a96565b604052928352818301935084810182019289841115610b4257600080fd5b948201945b83861015610b6757610b5886610a58565b85529482019493820193610b47565b9997909101359750505050505050565b6020808252825182820181905260009190848201906040850190845b81811015610bb85783516001600160a01b031683529284019291840191600101610b93565b50909695505050505050565b6020808252601c908201527f546869732061646472657373206973206e6f7420616e206f776e657200000000604082015260600190565b634e487b7160e01b600052601160045260246000fd5b81810381811115610c2457610c24610bfb565b92915050565b634e487b7160e01b600052603260045260246000fd5b600060018201610c5257610c52610bfb565b5060010190565b634e487b7160e01b600052603160045260246000fd5b60208082526016908201527510dbdb991a5d1a5bdb9cc8185c99481b9bdd081b595d60521b604082015260600190565b80820180821115610c2457610c24610bfb56fea2646970667358221220cf370e0a0694b5efedbf7df38f3d19b3007a572153f27b6791c71e5fc4b1d00d64736f6c63430008140033","opcodes":"PUSH1 0x80 PUSH1 0x40 MSTORE CALLVALUE DUP1 ISZERO PUSH2 0x10 JUMPI PUSH1 0x0 DUP1 REVERT JUMPDEST POP PUSH2 0xCE8 DUP1 PUSH2 0x20 PUSH1 0x0 CODECOPY PUSH1 0x0 RETURN INVALID PUSH1 0x80 PUSH1 0x40 MSTORE CALLVALUE DUP1 ISZERO PUSH2 0x10 JUMPI PUSH1 0x0 DUP1 REVERT JUMPDEST POP PUSH1 0x4 CALLDATASIZE LT PUSH2 0xA9 JUMPI PUSH1 0x0 CALLDATALOAD PUSH1 0xE0 SHR DUP1 PUSH4 0x7065CB48 GT PUSH2 0x71 JUMPI DUP1 PUSH4 0x7065CB48 EQ PUSH2 0x150 JUMPI DUP1 PUSH4 0x8C85CD85 EQ PUSH2 0x163 JUMPI DUP1 PUSH4 0xA0E67E2B EQ PUSH2 0x18F JUMPI DUP1 PUSH4 0xC26C12EB EQ PUSH2 0x1A4 JUMPI DUP1 PUSH4 0xD2CD96BD EQ PUSH2 0x1AC JUMPI DUP1 PUSH4 0xEF18374A EQ PUSH2 0x1BF JUMPI PUSH1 0x0 DUP1 REVERT JUMPDEST DUP1 PUSH4 0x25E7C27 EQ PUSH2 0xAE JUMPI DUP1 PUSH4 0x1703A018 EQ PUSH2 0xDE JUMPI DUP1 PUSH4 0x173825D9 EQ PUSH2 0xF5 JUMPI DUP1 PUSH4 0x2F54BF6E EQ PUSH2 0x10A JUMPI DUP1 PUSH4 0x60B5BB3F EQ PUSH2 0x13D JUMPI JUMPDEST PUSH1 0x0 DUP1 REVERT JUMPDEST PUSH2 0xC1 PUSH2 0xBC CALLDATASIZE PUSH1 0x4 PUSH2 0xA3F JUMP JUMPDEST PUSH2 0x1C7 JUMP JUMPDEST PUSH1 0x40 MLOAD PUSH1 0x1 PUSH1 0x1 PUSH1 0xA0 SHL SUB SWAP1 SWAP2 AND DUP2 MSTORE PUSH1 0x20 ADD JUMPDEST PUSH1 0x40 MLOAD DUP1 SWAP2 SUB SWAP1 RETURN JUMPDEST PUSH2 0xE7 PUSH1 0x2 SLOAD DUP2 JUMP JUMPDEST PUSH1 0x40 MLOAD SWAP1 DUP2 MSTORE PUSH1 0x20 ADD PUSH2 0xD5 JUMP JUMPDEST PUSH2 0x108 PUSH2 0x103 CALLDATASIZE PUSH1 0x4 PUSH2 0xA74 JUMP JUMPDEST PUSH2 0x1F1 JUMP JUMPDEST STOP JUMPDEST PUSH2 0x12D PUSH2 0x118 CALLDATASIZE PUSH1 0x4 PUSH2 0xA74 JUMP JUMPDEST PUSH1 0x0 PUSH1 0x20 DUP2 SWAP1 MSTORE SWAP1 DUP2 MSTORE PUSH1 0x40 SWAP1 KECCAK256 SLOAD PUSH1 0xFF AND DUP2 JUMP JUMPDEST PUSH1 0x40 MLOAD SWAP1 ISZERO ISZERO DUP2 MSTORE PUSH1 0x20 ADD PUSH2 0xD5 JUMP JUMPDEST PUSH2 0x108 PUSH2 0x14B CALLDATASIZE PUSH1 0x4 PUSH2 0xAAC JUMP JUMPDEST PUSH2 0x448 JUMP JUMPDEST PUSH2 0x108 PUSH2 0x15E CALLDATASIZE PUSH1 0x4 PUSH2 0xA74 JUMP JUMPDEST PUSH2 0x6FF JUMP JUMPDEST PUSH2 0x12D PUSH2 0x171 CALLDATASIZE PUSH1 0x4 PUSH2 0xA74 JUMP JUMPDEST PUSH1 0x1 PUSH1 0x1 PUSH1 0xA0 SHL SUB AND PUSH1 0x0 SWAP1 DUP2 MSTORE PUSH1 0x20 DUP2 SWAP1 MSTORE PUSH1 0x40 SWAP1 KECCAK256 SLOAD PUSH1 0xFF AND SWAP1 JUMP JUMPDEST PUSH2 0x197 PUSH2 0x8BC JUMP JUMPDEST PUSH1 0x40 MLOAD PUSH2 0xD5 SWAP2 SWAP1 PUSH2 0xB77 JUMP JUMPDEST PUSH1 0x2 SLOAD PUSH2 0xE7 JUMP JUMPDEST PUSH2 0x108 PUSH2 0x1BA CALLDATASIZE PUSH1 0x4 PUSH2 0xA3F JUMP JUMPDEST PUSH2 0x91E JUMP JUMPDEST PUSH1 0x1 SLOAD PUSH2 0xE7 JUMP JUMPDEST PUSH1 0x1 DUP2 DUP2 SLOAD DUP2 LT PUSH2 0x1D7 JUMPI PUSH1 0x0 DUP1 REVERT JUMPDEST PUSH1 0x0 SWAP2 DUP3 MSTORE PUSH1 0x20 SWAP1 SWAP2 KECCAK256 ADD SLOAD PUSH1 0x1 PUSH1 0x1 PUSH1 0xA0 SHL SUB AND SWAP1 POP DUP2 JUMP JUMPDEST CALLER PUSH1 0x0 DUP2 DUP2 MSTORE PUSH1 0x20 DUP2 SWAP1 MSTORE PUSH1 0x40 SWAP1 KECCAK256 SLOAD PUSH1 0xFF AND PUSH2 0x229 JUMPI PUSH1 0x40 MLOAD PUSH3 0x461BCD PUSH1 0xE5 SHL DUP2 MSTORE PUSH1 0x4 ADD PUSH2 0x220 SWAP1 PUSH2 0xBC4 JUMP JUMPDEST PUSH1 0x40 MLOAD DUP1 SWAP2 SUB SWAP1 REVERT JUMPDEST PUSH1 0x1 PUSH1 0x1 PUSH1 0xA0 SHL SUB DUP3 AND PUSH1 0x0 SWAP1 DUP2 MSTORE PUSH1 0x20 DUP2 SWAP1 MSTORE PUSH1 0x40 SWAP1 KECCAK256 SLOAD DUP3 SWAP1 PUSH1 0xFF AND PUSH2 0x263 JUMPI PUSH1 0x40 MLOAD PUSH3 0x461BCD PUSH1 0xE5 SHL DUP2 MSTORE PUSH1 0x4 ADD PUSH2 0x220 SWAP1 PUSH2 0xBC4 JUMP JUMPDEST PUSH1 0x1 DUP1 SLOAD GT PUSH2 0x2B4 JUMPI PUSH1 0x40 MLOAD PUSH3 0x461BCD PUSH1 0xE5 SHL DUP2 MSTORE PUSH1 0x20 PUSH1 0x4 DUP3 ADD MSTORE PUSH1 0x17 PUSH1 0x24 DUP3 ADD MSTORE PUSH32 0x43616E27742072656D6F7665206C617374206F776E6572000000000000000000 PUSH1 0x44 DUP3 ADD MSTORE PUSH1 0x64 ADD PUSH2 0x220 JUMP JUMPDEST PUSH1 0x1 DUP1 SLOAD PUSH2 0x2C2 SWAP2 SWAP1 PUSH2 0xC11 JUMP JUMPDEST PUSH1 0x2 SLOAD GT ISZERO PUSH2 0x2DC JUMPI PUSH1 0x1 DUP1 SLOAD PUSH2 0x2DC SWAP2 PUSH2 0x1BA SWAP2 PUSH2 0xC11 JUMP JUMPDEST PUSH1 0x0 JUMPDEST PUSH1 0x1 DUP1 SLOAD PUSH2 0x2ED SWAP2 SWAP1 PUSH2 0xC11 JUMP JUMPDEST DUP2 LT ISZERO PUSH2 0x3BB JUMPI DUP4 PUSH1 0x1 PUSH1 0x1 PUSH1 0xA0 SHL SUB AND PUSH1 0x1 DUP3 DUP2 SLOAD DUP2 LT PUSH2 0x311 JUMPI PUSH2 0x311 PUSH2 0xC2A JUMP JUMPDEST PUSH1 0x0 SWAP2 DUP3 MSTORE PUSH1 0x20 SWAP1 SWAP2 KECCAK256 ADD SLOAD PUSH1 0x1 PUSH1 0x1 PUSH1 0xA0 SHL SUB AND SUB PUSH2 0x3A9 JUMPI PUSH1 0x1 DUP1 SLOAD PUSH2 0x33A SWAP1 DUP3 SWAP1 PUSH2 0xC11 JUMP JUMPDEST DUP2 SLOAD DUP2 LT PUSH2 0x34A JUMPI PUSH2 0x34A PUSH2 0xC2A JUMP JUMPDEST PUSH1 0x0 SWAP2 DUP3 MSTORE PUSH1 0x20 SWAP1 SWAP2 KECCAK256 ADD SLOAD PUSH1 0x1 DUP1 SLOAD PUSH1 0x1 PUSH1 0x1 PUSH1 0xA0 SHL SUB SWAP1 SWAP3 AND SWAP2 DUP4 SWAP1 DUP2 LT PUSH2 0x376 JUMPI PUSH2 0x376 PUSH2 0xC2A JUMP JUMPDEST SWAP1 PUSH1 0x0 MSTORE PUSH1 0x20 PUSH1 0x0 KECCAK256 ADD PUSH1 0x0 PUSH2 0x100 EXP DUP2 SLOAD DUP2 PUSH1 0x1 PUSH1 0x1 PUSH1 0xA0 SHL SUB MUL NOT AND SWAP1 DUP4 PUSH1 0x1 PUSH1 0x1 PUSH1 0xA0 SHL SUB AND MUL OR SWAP1 SSTORE POP PUSH2 0x3BB JUMP JUMPDEST DUP1 PUSH2 0x3B3 DUP2 PUSH2 0xC40 JUMP JUMPDEST SWAP2 POP POP PUSH2 0x2DF JUMP JUMPDEST POP PUSH1 0x1 PUSH1 0x1 PUSH1 0xA0 SHL SUB DUP4 AND PUSH1 0x0 SWAP1 DUP2 MSTORE PUSH1 0x20 DUP2 SWAP1 MSTORE PUSH1 0x40 SWAP1 KECCAK256 DUP1 SLOAD PUSH1 0xFF NOT AND SWAP1 SSTORE PUSH1 0x1 DUP1 SLOAD DUP1 PUSH2 0x3ED JUMPI PUSH2 0x3ED PUSH2 0xC59 JUMP JUMPDEST PUSH1 0x0 DUP3 DUP2 MSTORE PUSH1 0x20 DUP2 KECCAK256 DUP3 ADD PUSH1 0x0 NOT SWAP1 DUP2 ADD DUP1 SLOAD PUSH1 0x1 PUSH1 0x1 PUSH1 0xA0 SHL SUB NOT AND SWAP1 SSTORE SWAP1 SWAP2 ADD SWAP1 SWAP2 SSTORE PUSH1 0x40 MLOAD PUSH1 0x1 PUSH1 0x1 PUSH1 0xA0 SHL SUB DUP6 AND SWAP2 PUSH32 0x8001553A916EF2F495D26A907CC54D96ED840D7BDA71E73194BF5A9DF7A76B90 SWAP2 LOG2 POP POP POP JUMP JUMPDEST PUSH32 0xF0C57E16840DF040F15088DC2F81FE391C3923BEC73E23A9662EFC9C229C6A00 DUP1 SLOAD PUSH1 0x1 PUSH1 0x40 SHL DUP2 DIV PUSH1 0xFF AND ISZERO SWAP1 PUSH8 0xFFFFFFFFFFFFFFFF AND PUSH1 0x0 DUP2 ISZERO DUP1 ISZERO PUSH2 0x48E JUMPI POP DUP3 JUMPDEST SWAP1 POP PUSH1 0x0 DUP3 PUSH8 0xFFFFFFFFFFFFFFFF AND PUSH1 0x1 EQ DUP1 ISZERO PUSH2 0x4AB JUMPI POP ADDRESS EXTCODESIZE ISZERO JUMPDEST SWAP1 POP DUP2 ISZERO DUP1 ISZERO PUSH2 0x4B9 JUMPI POP DUP1 ISZERO JUMPDEST ISZERO PUSH2 0x4D7 JUMPI PUSH1 0x40 MLOAD PUSH4 0xF92EE8A9 PUSH1 0xE0 SHL DUP2 MSTORE PUSH1 0x4 ADD PUSH1 0x40 MLOAD DUP1 SWAP2 SUB SWAP1 REVERT JUMPDEST DUP5 SLOAD PUSH8 0xFFFFFFFFFFFFFFFF NOT AND PUSH1 0x1 OR DUP6 SSTORE DUP4 ISZERO PUSH2 0x501 JUMPI DUP5 SLOAD PUSH1 0xFF PUSH1 0x40 SHL NOT AND PUSH1 0x1 PUSH1 0x40 SHL OR DUP6 SSTORE JUMPDEST DUP7 MLOAD DUP7 DUP2 DUP2 GT ISZERO DUP1 ISZERO PUSH2 0x513 JUMPI POP DUP1 ISZERO ISZERO JUMPDEST DUP1 ISZERO PUSH2 0x51E JUMPI POP DUP2 ISZERO ISZERO JUMPDEST PUSH2 0x53A JUMPI PUSH1 0x40 MLOAD PUSH3 0x461BCD PUSH1 0xE5 SHL DUP2 MSTORE PUSH1 0x4 ADD PUSH2 0x220 SWAP1 PUSH2 0xC6F JUMP JUMPDEST PUSH1 0x0 JUMPDEST DUP10 MLOAD DUP2 LT ISZERO PUSH2 0x694 JUMPI PUSH1 0x0 DUP1 DUP12 DUP4 DUP2 MLOAD DUP2 LT PUSH2 0x55B JUMPI PUSH2 0x55B PUSH2 0xC2A JUMP JUMPDEST PUSH1 0x20 SWAP1 DUP2 MUL SWAP2 SWAP1 SWAP2 ADD DUP2 ADD MLOAD PUSH1 0x1 PUSH1 0x1 PUSH1 0xA0 SHL SUB AND DUP3 MSTORE DUP2 ADD SWAP2 SWAP1 SWAP2 MSTORE PUSH1 0x40 ADD PUSH1 0x0 KECCAK256 SLOAD PUSH1 0xFF AND ISZERO DUP1 ISZERO PUSH2 0x5BB JUMPI POP PUSH1 0x0 PUSH1 0x1 PUSH1 0x1 PUSH1 0xA0 SHL SUB AND DUP11 DUP3 DUP2 MLOAD DUP2 LT PUSH2 0x5A7 JUMPI PUSH2 0x5A7 PUSH2 0xC2A JUMP JUMPDEST PUSH1 0x20 MUL PUSH1 0x20 ADD ADD MLOAD PUSH1 0x1 PUSH1 0x1 PUSH1 0xA0 SHL SUB AND EQ ISZERO JUMPDEST PUSH2 0x639 JUMPI PUSH1 0x40 MLOAD PUSH3 0x461BCD PUSH1 0xE5 SHL DUP2 MSTORE PUSH1 0x20 PUSH1 0x4 DUP3 ADD MSTORE PUSH1 0x43 PUSH1 0x24 DUP3 ADD MSTORE PUSH32 0x416464726573732073686F756C646E277420626520616C7265616479206C6973 PUSH1 0x44 DUP3 ADD MSTORE PUSH32 0x746564206173206F776E65722C206E6F722073686F756C64206974206265204E PUSH1 0x64 DUP3 ADD MSTORE PUSH3 0x155313 PUSH1 0xEA SHL PUSH1 0x84 DUP3 ADD MSTORE PUSH1 0xA4 ADD PUSH2 0x220 JUMP JUMPDEST PUSH1 0x1 PUSH1 0x0 DUP1 DUP13 DUP5 DUP2 MLOAD DUP2 LT PUSH2 0x650 JUMPI PUSH2 0x650 PUSH2 0xC2A JUMP JUMPDEST PUSH1 0x20 SWAP1 DUP2 MUL SWAP2 SWAP1 SWAP2 ADD DUP2 ADD MLOAD PUSH1 0x1 PUSH1 0x1 PUSH1 0xA0 SHL SUB AND DUP3 MSTORE DUP2 ADD SWAP2 SWAP1 SWAP2 MSTORE PUSH1 0x40 ADD PUSH1 0x0 KECCAK256 DUP1 SLOAD PUSH1 0xFF NOT AND SWAP2 ISZERO ISZERO SWAP2 SWAP1 SWAP2 OR SWAP1 SSTORE DUP1 PUSH2 0x68C DUP2 PUSH2 0xC40 JUMP JUMPDEST SWAP2 POP POP PUSH2 0x53D JUMP JUMPDEST POP DUP9 MLOAD PUSH2 0x6A8 SWAP1 PUSH1 0x1 SWAP1 PUSH1 0x20 DUP13 ADD SWAP1 PUSH2 0x9C5 JUMP JUMPDEST POP POP POP PUSH1 0x2 DUP7 SWAP1 SSTORE DUP4 ISZERO PUSH2 0x6F6 JUMPI DUP5 SLOAD PUSH1 0xFF PUSH1 0x40 SHL NOT AND DUP6 SSTORE PUSH1 0x40 MLOAD PUSH1 0x1 DUP2 MSTORE PUSH32 0xC7F505B2F371AE2175EE4913F4499E1F2633A7B5936321EED1CDAEB6115181D2 SWAP1 PUSH1 0x20 ADD PUSH1 0x40 MLOAD DUP1 SWAP2 SUB SWAP1 LOG1 JUMPDEST POP POP POP POP POP POP POP JUMP JUMPDEST PUSH1 0x1 PUSH1 0x1 PUSH1 0xA0 SHL SUB DUP2 AND PUSH1 0x0 SWAP1 DUP2 MSTORE PUSH1 0x20 DUP2 SWAP1 MSTORE PUSH1 0x40 SWAP1 KECCAK256 SLOAD DUP2 SWAP1 PUSH1 0xFF AND ISZERO PUSH2 0x76A JUMPI PUSH1 0x40 MLOAD PUSH3 0x461BCD PUSH1 0xE5 SHL DUP2 MSTORE PUSH1 0x20 PUSH1 0x4 DUP3 ADD DUP2 SWAP1 MSTORE PUSH1 0x24 DUP3 ADD MSTORE PUSH32 0x54686973206164647265737320697320616C726561647920616E206F776E6572 PUSH1 0x44 DUP3 ADD MSTORE PUSH1 0x64 ADD PUSH2 0x220 JUMP JUMPDEST CALLER PUSH1 0x0 DUP2 DUP2 MSTORE PUSH1 0x20 DUP2 SWAP1 MSTORE PUSH1 0x40 SWAP1 KECCAK256 SLOAD PUSH1 0xFF AND PUSH2 0x799 JUMPI PUSH1 0x40 MLOAD PUSH3 0x461BCD PUSH1 0xE5 SHL DUP2 MSTORE PUSH1 0x4 ADD PUSH2 0x220 SWAP1 PUSH2 0xBC4 JUMP JUMPDEST DUP3 PUSH1 0x1 PUSH1 0x1 PUSH1 0xA0 SHL SUB DUP2 AND PUSH2 0x7E6 JUMPI PUSH1 0x40 MLOAD PUSH3 0x461BCD PUSH1 0xE5 SHL DUP2 MSTORE PUSH1 0x20 PUSH1 0x4 DUP3 ADD MSTORE PUSH1 0x13 PUSH1 0x24 DUP3 ADD MSTORE PUSH19 0x151A19481859191C995CDCC81A5CC81B9D5B1B PUSH1 0x6A SHL PUSH1 0x44 DUP3 ADD MSTORE PUSH1 0x64 ADD PUSH2 0x220 JUMP JUMPDEST PUSH1 0x1 DUP1 SLOAD PUSH2 0x7F3 SWAP2 PUSH2 0xC9F JUMP JUMPDEST PUSH1 0x2 SLOAD DUP2 DUP2 GT ISZERO DUP1 ISZERO PUSH2 0x805 JUMPI POP DUP1 ISZERO ISZERO JUMPDEST DUP1 ISZERO PUSH2 0x810 JUMPI POP DUP2 ISZERO ISZERO JUMPDEST PUSH2 0x82C JUMPI PUSH1 0x40 MLOAD PUSH3 0x461BCD PUSH1 0xE5 SHL DUP2 MSTORE PUSH1 0x4 ADD PUSH2 0x220 SWAP1 PUSH2 0xC6F JUMP JUMPDEST PUSH1 0x1 PUSH1 0x1 PUSH1 0xA0 SHL SUB DUP7 AND PUSH1 0x0 DUP2 DUP2 MSTORE PUSH1 0x20 DUP2 SWAP1 MSTORE PUSH1 0x40 DUP1 DUP3 KECCAK256 DUP1 SLOAD PUSH1 0xFF NOT AND PUSH1 0x1 SWAP1 DUP2 OR SWAP1 SWAP2 SSTORE DUP1 SLOAD DUP1 DUP3 ADD DUP3 SSTORE SWAP1 DUP4 MSTORE PUSH32 0xB10E2D527612073B26EECDFD717E6A320CF44B4AFAC2B0732D9FCBE2B7FA0CF6 ADD DUP1 SLOAD PUSH1 0x1 PUSH1 0x1 PUSH1 0xA0 SHL SUB NOT AND DUP5 OR SWAP1 SSTORE MLOAD PUSH32 0xF39E6E1EB0EDCF53C221607B54B00CD28F3196FED0A24994DC308B8F611B682D SWAP2 SWAP1 LOG2 POP POP POP POP POP POP JUMP JUMPDEST PUSH1 0x60 PUSH1 0x1 DUP1 SLOAD DUP1 PUSH1 0x20 MUL PUSH1 0x20 ADD PUSH1 0x40 MLOAD SWAP1 DUP2 ADD PUSH1 0x40 MSTORE DUP1 SWAP3 SWAP2 SWAP1 DUP2 DUP2 MSTORE PUSH1 0x20 ADD DUP3 DUP1 SLOAD DUP1 ISZERO PUSH2 0x914 JUMPI PUSH1 0x20 MUL DUP3 ADD SWAP2 SWAP1 PUSH1 0x0 MSTORE PUSH1 0x20 PUSH1 0x0 KECCAK256 SWAP1 JUMPDEST DUP2 SLOAD PUSH1 0x1 PUSH1 0x1 PUSH1 0xA0 SHL SUB AND DUP2 MSTORE PUSH1 0x1 SWAP1 SWAP2 ADD SWAP1 PUSH1 0x20 ADD DUP1 DUP4 GT PUSH2 0x8F6 JUMPI JUMPDEST POP POP POP POP POP SWAP1 POP SWAP1 JUMP JUMPDEST CALLER PUSH1 0x0 DUP2 DUP2 MSTORE PUSH1 0x20 DUP2 SWAP1 MSTORE PUSH1 0x40 SWAP1 KECCAK256 SLOAD PUSH1 0xFF AND PUSH2 0x94D JUMPI PUSH1 0x40 MLOAD PUSH3 0x461BCD PUSH1 0xE5 SHL DUP2 MSTORE PUSH1 0x4 ADD PUSH2 0x220 SWAP1 PUSH2 0xBC4 JUMP JUMPDEST PUSH1 0x1 SLOAD DUP3 DUP2 DUP2 GT DUP1 ISZERO SWAP1 PUSH2 0x960 JUMPI POP DUP1 ISZERO ISZERO JUMPDEST DUP1 ISZERO PUSH2 0x96B JUMPI POP DUP2 ISZERO ISZERO JUMPDEST PUSH2 0x987 JUMPI PUSH1 0x40 MLOAD PUSH3 0x461BCD PUSH1 0xE5 SHL DUP2 MSTORE PUSH1 0x4 ADD PUSH2 0x220 SWAP1 PUSH2 0xC6F JUMP JUMPDEST PUSH1 0x2 DUP5 SWAP1 SSTORE PUSH1 0x40 MLOAD DUP5 DUP2 MSTORE PUSH32 0x27863D12A407097E086A48E36475BFC859D0B200B7E6F65B5FD3B218E46632E SWAP1 PUSH1 0x20 ADD PUSH1 0x40 MLOAD DUP1 SWAP2 SUB SWAP1 LOG1 POP POP POP POP JUMP JUMPDEST DUP3 DUP1 SLOAD DUP3 DUP3 SSTORE SWAP1 PUSH1 0x0 MSTORE PUSH1 0x20 PUSH1 0x0 KECCAK256 SWAP1 DUP2 ADD SWAP3 DUP3 ISZERO PUSH2 0xA1A JUMPI SWAP2 PUSH1 0x20 MUL DUP3 ADD JUMPDEST DUP3 DUP2 GT ISZERO PUSH2 0xA1A JUMPI DUP3 MLOAD DUP3 SLOAD PUSH1 0x1 PUSH1 0x1 PUSH1 0xA0 SHL SUB NOT AND PUSH1 0x1 PUSH1 0x1 PUSH1 0xA0 SHL SUB SWAP1 SWAP2 AND OR DUP3 SSTORE PUSH1 0x20 SWAP1 SWAP3 ADD SWAP2 PUSH1 0x1 SWAP1 SWAP2 ADD SWAP1 PUSH2 0x9E5 JUMP JUMPDEST POP PUSH2 0xA26 SWAP3 SWAP2 POP PUSH2 0xA2A JUMP JUMPDEST POP SWAP1 JUMP JUMPDEST JUMPDEST DUP1 DUP3 GT ISZERO PUSH2 0xA26 JUMPI PUSH1 0x0 DUP2 SSTORE PUSH1 0x1 ADD PUSH2 0xA2B JUMP JUMPDEST PUSH1 0x0 PUSH1 0x20 DUP3 DUP5 SUB SLT ISZERO PUSH2 0xA51 JUMPI PUSH1 0x0 DUP1 REVERT JUMPDEST POP CALLDATALOAD SWAP2 SWAP1 POP JUMP JUMPDEST DUP1 CALLDATALOAD PUSH1 0x1 PUSH1 0x1 PUSH1 0xA0 SHL SUB DUP2 AND DUP2 EQ PUSH2 0xA6F JUMPI PUSH1 0x0 DUP1 REVERT JUMPDEST SWAP2 SWAP1 POP JUMP JUMPDEST PUSH1 0x0 PUSH1 0x20 DUP3 DUP5 SUB SLT ISZERO PUSH2 0xA86 JUMPI PUSH1 0x0 DUP1 REVERT JUMPDEST PUSH2 0xA8F DUP3 PUSH2 0xA58 JUMP JUMPDEST SWAP4 SWAP3 POP POP POP JUMP JUMPDEST PUSH4 0x4E487B71 PUSH1 0xE0 SHL PUSH1 0x0 MSTORE PUSH1 0x41 PUSH1 0x4 MSTORE PUSH1 0x24 PUSH1 0x0 REVERT JUMPDEST PUSH1 0x0 DUP1 PUSH1 0x40 DUP4 DUP6 SUB SLT ISZERO PUSH2 0xABF JUMPI PUSH1 0x0 DUP1 REVERT JUMPDEST DUP3 CALLDATALOAD PUSH8 0xFFFFFFFFFFFFFFFF DUP1 DUP3 GT ISZERO PUSH2 0xAD7 JUMPI PUSH1 0x0 DUP1 REVERT JUMPDEST DUP2 DUP6 ADD SWAP2 POP DUP6 PUSH1 0x1F DUP4 ADD SLT PUSH2 0xAEB JUMPI PUSH1 0x0 DUP1 REVERT JUMPDEST DUP2 CALLDATALOAD PUSH1 0x20 DUP3 DUP3 GT ISZERO PUSH2 0xAFF JUMPI PUSH2 0xAFF PUSH2 0xA96 JUMP JUMPDEST DUP2 PUSH1 0x5 SHL PUSH1 0x40 MLOAD PUSH1 0x1F NOT PUSH1 0x3F DUP4 ADD AND DUP2 ADD DUP2 DUP2 LT DUP7 DUP3 GT OR ISZERO PUSH2 0xB24 JUMPI PUSH2 0xB24 PUSH2 0xA96 JUMP JUMPDEST PUSH1 0x40 MSTORE SWAP3 DUP4 MSTORE DUP2 DUP4 ADD SWAP4 POP DUP5 DUP2 ADD DUP3 ADD SWAP3 DUP10 DUP5 GT ISZERO PUSH2 0xB42 JUMPI PUSH1 0x0 DUP1 REVERT JUMPDEST SWAP5 DUP3 ADD SWAP5 JUMPDEST DUP4 DUP7 LT ISZERO PUSH2 0xB67 JUMPI PUSH2 0xB58 DUP7 PUSH2 0xA58 JUMP JUMPDEST DUP6 MSTORE SWAP5 DUP3 ADD SWAP5 SWAP4 DUP3 ADD SWAP4 PUSH2 0xB47 JUMP JUMPDEST SWAP10 SWAP8 SWAP1 SWAP2 ADD CALLDATALOAD SWAP8 POP POP POP POP POP POP POP JUMP JUMPDEST PUSH1 0x20 DUP1 DUP3 MSTORE DUP3 MLOAD DUP3 DUP3 ADD DUP2 SWAP1 MSTORE PUSH1 0x0 SWAP2 SWAP1 DUP5 DUP3 ADD SWAP1 PUSH1 0x40 DUP6 ADD SWAP1 DUP5 JUMPDEST DUP2 DUP2 LT ISZERO PUSH2 0xBB8 JUMPI DUP4 MLOAD PUSH1 0x1 PUSH1 0x1 PUSH1 0xA0 SHL SUB AND DUP4 MSTORE SWAP3 DUP5 ADD SWAP3 SWAP2 DUP5 ADD SWAP2 PUSH1 0x1 ADD PUSH2 0xB93 JUMP JUMPDEST POP SWAP1 SWAP7 SWAP6 POP POP POP POP POP POP JUMP JUMPDEST PUSH1 0x20 DUP1 DUP3 MSTORE PUSH1 0x1C SWAP1 DUP3 ADD MSTORE PUSH32 0x546869732061646472657373206973206E6F7420616E206F776E657200000000 PUSH1 0x40 DUP3 ADD MSTORE PUSH1 0x60 ADD SWAP1 JUMP JUMPDEST PUSH4 0x4E487B71 PUSH1 0xE0 SHL PUSH1 0x0 MSTORE PUSH1 0x11 PUSH1 0x4 MSTORE PUSH1 0x24 PUSH1 0x0 REVERT JUMPDEST DUP2 DUP2 SUB DUP2 DUP2 GT ISZERO PUSH2 0xC24 JUMPI PUSH2 0xC24 PUSH2 0xBFB JUMP JUMPDEST SWAP3 SWAP2 POP POP JUMP JUMPDEST PUSH4 0x4E487B71 PUSH1 0xE0 SHL PUSH1 0x0 MSTORE PUSH1 0x32 PUSH1 0x4 MSTORE PUSH1 0x24 PUSH1 0x0 REVERT JUMPDEST PUSH1 0x0 PUSH1 0x1 DUP3 ADD PUSH2 0xC52 JUMPI PUSH2 0xC52 PUSH2 0xBFB JUMP JUMPDEST POP PUSH1 0x1 ADD SWAP1 JUMP JUMPDEST PUSH4 0x4E487B71 PUSH1 0xE0 SHL PUSH1 0x0 MSTORE PUSH1 0x31 PUSH1 0x4 MSTORE PUSH1 0x24 PUSH1 0x0 REVERT JUMPDEST PUSH1 0x20 DUP1 DUP3 MSTORE PUSH1 0x16 SWAP1 DUP3 ADD MSTORE PUSH22 0x10DBDB991A5D1A5BDB9CC8185C99481B9BDD081B595D PUSH1 0x52 SHL PUSH1 0x40 DUP3 ADD MSTORE PUSH1 0x60 ADD SWAP1 JUMP JUMPDEST DUP1 DUP3 ADD DUP1 DUP3 GT ISZERO PUSH2 0xC24 JUMPI PUSH2 0xC24 PUSH2 0xBFB JUMP INVALID LOG2 PUSH5 0x6970667358 0x22 SLT KECCAK256 0xCF CALLDATACOPY 0xE EXP MOD SWAP5 0xB5 0xEF 0xED 0xBF PUSH30 0xF38F3D19B3007A572153F27B6791C71E5FC4B1D00D64736F6C6343000814 STOP CALLER "},"gasEstimates":{"creation":{"codeDepositCost":"660800","executionCost":"696","totalCost":"661496"},"external":{"addOwner(address)":"83063","changeQuorum(uint256)":"27871","getOwnerCount()":"2402","getOwners()":"infinite","getQuorum()":"2358","initialize(address[],uint256)":"infinite","isOwner(address)":"2601","owners(uint256)":"4604","quorum()":"2318","removeOwner(address)":"infinite","verifyOwner(address)":"2574"}},"methodIdentifiers":{"addOwner(address)":"7065cb48","changeQuorum(uint256)":"d2cd96bd","getOwnerCount()":"ef18374a","getOwners()":"a0e67e2b","getQuorum()":"c26c12eb","initialize(address[],uint256)":"60b5bb3f","isOwner(address)":"2f54bf6e","owners(uint256)":"025e7c27","quorum()":"1703a018","removeOwner(address)":"173825d9","verifyOwner(address)":"8c85cd85"}},"storageLayout":{"storage":[{"astId":417,"contract":"contracts/MultiSigAdministration.sol:MultiSigAdministration","label":"isOwner","offset":0,"slot":"0","type":"t_mapping(t_address,t_bool)"},{"astId":420,"contract":"contracts/MultiSigAdministration.sol:MultiSigAdministration","label":"owners","offset":0,"slot":"1","type":"t_array(t_address)dyn_storage"},{"astId":422,"contract":"contracts/MultiSigAdministration.sol:MultiSigAdministration","label":"quorum","offset":0,"slot":"2","type":"t_uint256"}],"types":{"t_address":{"encoding":"inplace","label":"address","numberOfBytes":"20"},"t_array(t_address)dyn_storage":{"base":"t_address","encoding":"dynamic_array","label":"address[]","numberOfBytes":"32"},"t_bool":{"encoding":"inplace","label":"bool","numberOfBytes":"1"},"t_mapping(t_address,t_bool)":{"encoding":"mapping","key":"t_address","label":"mapping(address => bool)","numberOfBytes":"32","value":"t_bool"},"t_uint256":{"encoding":"inplace","label":"uint256","numberOfBytes":"32"}}},"userdoc":{"kind":"user","methods":{},"notice":"This contract provides functionality to add or remove owners and change          quorum requirements for a multi-signature contract.","version":1}}}}