{"contracts/Factory.sol":{"Factory":{"abi":[{"anonymous":false,"inputs":[{"indexed":false,"internalType":"address","name":"sender","type":"address"},{"indexed":false,"internalType":"address","name":"instantiation","type":"address"}],"name":"ContractInstantiation","type":"event"},{"inputs":[{"internalType":"address","name":"creator","type":"address"}],"name":"getInstantiationCount","outputs":[{"internalType":"uint256","name":"","type":"uint256"}],"stateMutability":"view","type":"function"},{"inputs":[{"internalType":"address","name":"","type":"address"},{"internalType":"uint256","name":"","type":"uint256"}],"name":"instantiations","outputs":[{"internalType":"address","name":"","type":"address"}],"stateMutability":"view","type":"function"},{"inputs":[{"internalType":"address","name":"","type":"address"}],"name":"isInstantiated","outputs":[{"internalType":"bool","name":"","type":"bool"}],"stateMutability":"view","type":"function"}],"devdoc":{"details":"Factory pattern implementation for creating and keeping track of contract instances.","events":{"ContractInstantiation(address,address)":{"details":"Emitted when a new contract instance is registered in the factory.","params":{"instantiation":"The address of the newly created contract instance.","sender":"The address that created and registered the contract instance."}}},"kind":"dev","methods":{"getInstantiationCount(address)":{"details":"Retrieves the count of contract instances created by a specific address.","params":{"creator":"The address of the creator whose instantiations are being counted."},"returns":{"_0":"The number of contract instances created by the specified creator."}}},"title":"Contract Factory","version":1},"evm":{"bytecode":{"linkReferences":{},"object":"608060405234801561001057600080fd5b506101b6806100206000396000f3fe608060405234801561001057600080fd5b50600436106100415760003560e01c8063482af6891461004657806357183c821461007e5780638f838478146100a9575b600080fd5b610069610054366004610134565b60006020819052908152604090205460ff1681565b60405190151581526020015b60405180910390f35b61009161008c366004610156565b6100e0565b6040516001600160a01b039091168152602001610075565b6100d26100b7366004610134565b6001600160a01b031660009081526001602052604090205490565b604051908152602001610075565b600160205281600052604060002081815481106100fc57600080fd5b6000918252602090912001546001600160a01b03169150829050565b80356001600160a01b038116811461012f57600080fd5b919050565b60006020828403121561014657600080fd5b61014f82610118565b9392505050565b6000806040838503121561016957600080fd5b61017283610118565b94602093909301359350505056fea2646970667358221220c7c522e693ab9bf055807229fd222a28c0f65a2906e8f383cb3973f53674f7cf64736f6c63430008140033","opcodes":"PUSH1 0x80 PUSH1 0x40 MSTORE CALLVALUE DUP1 ISZERO PUSH2 0x10 JUMPI PUSH1 0x0 DUP1 REVERT JUMPDEST POP PUSH2 0x1B6 DUP1 PUSH2 0x20 PUSH1 0x0 CODECOPY PUSH1 0x0 RETURN INVALID PUSH1 0x80 PUSH1 0x40 MSTORE CALLVALUE DUP1 ISZERO PUSH2 0x10 JUMPI PUSH1 0x0 DUP1 REVERT JUMPDEST POP PUSH1 0x4 CALLDATASIZE LT PUSH2 0x41 JUMPI PUSH1 0x0 CALLDATALOAD PUSH1 0xE0 SHR DUP1 PUSH4 0x482AF689 EQ PUSH2 0x46 JUMPI DUP1 PUSH4 0x57183C82 EQ PUSH2 0x7E JUMPI DUP1 PUSH4 0x8F838478 EQ PUSH2 0xA9 JUMPI JUMPDEST PUSH1 0x0 DUP1 REVERT JUMPDEST PUSH2 0x69 PUSH2 0x54 CALLDATASIZE PUSH1 0x4 PUSH2 0x134 JUMP JUMPDEST PUSH1 0x0 PUSH1 0x20 DUP2 SWAP1 MSTORE SWAP1 DUP2 MSTORE PUSH1 0x40 SWAP1 KECCAK256 SLOAD PUSH1 0xFF AND DUP2 JUMP JUMPDEST PUSH1 0x40 MLOAD SWAP1 ISZERO ISZERO DUP2 MSTORE PUSH1 0x20 ADD JUMPDEST PUSH1 0x40 MLOAD DUP1 SWAP2 SUB SWAP1 RETURN JUMPDEST PUSH2 0x91 PUSH2 0x8C CALLDATASIZE PUSH1 0x4 PUSH2 0x156 JUMP JUMPDEST PUSH2 0xE0 JUMP JUMPDEST PUSH1 0x40 MLOAD PUSH1 0x1 PUSH1 0x1 PUSH1 0xA0 SHL SUB SWAP1 SWAP2 AND DUP2 MSTORE PUSH1 0x20 ADD PUSH2 0x75 JUMP JUMPDEST PUSH2 0xD2 PUSH2 0xB7 CALLDATASIZE PUSH1 0x4 PUSH2 0x134 JUMP JUMPDEST PUSH1 0x1 PUSH1 0x1 PUSH1 0xA0 SHL SUB AND PUSH1 0x0 SWAP1 DUP2 MSTORE PUSH1 0x1 PUSH1 0x20 MSTORE PUSH1 0x40 SWAP1 KECCAK256 SLOAD SWAP1 JUMP JUMPDEST PUSH1 0x40 MLOAD SWAP1 DUP2 MSTORE PUSH1 0x20 ADD PUSH2 0x75 JUMP JUMPDEST PUSH1 0x1 PUSH1 0x20 MSTORE DUP2 PUSH1 0x0 MSTORE PUSH1 0x40 PUSH1 0x0 KECCAK256 DUP2 DUP2 SLOAD DUP2 LT PUSH2 0xFC JUMPI PUSH1 0x0 DUP1 REVERT JUMPDEST PUSH1 0x0 SWAP2 DUP3 MSTORE PUSH1 0x20 SWAP1 SWAP2 KECCAK256 ADD SLOAD PUSH1 0x1 PUSH1 0x1 PUSH1 0xA0 SHL SUB AND SWAP2 POP DUP3 SWAP1 POP JUMP JUMPDEST DUP1 CALLDATALOAD PUSH1 0x1 PUSH1 0x1 PUSH1 0xA0 SHL SUB DUP2 AND DUP2 EQ PUSH2 0x12F JUMPI PUSH1 0x0 DUP1 REVERT JUMPDEST SWAP2 SWAP1 POP JUMP JUMPDEST PUSH1 0x0 PUSH1 0x20 DUP3 DUP5 SUB SLT ISZERO PUSH2 0x146 JUMPI PUSH1 0x0 DUP1 REVERT JUMPDEST PUSH2 0x14F DUP3 PUSH2 0x118 JUMP JUMPDEST SWAP4 SWAP3 POP POP POP JUMP JUMPDEST PUSH1 0x0 DUP1 PUSH1 0x40 DUP4 DUP6 SUB SLT ISZERO PUSH2 0x169 JUMPI PUSH1 0x0 DUP1 REVERT JUMPDEST PUSH2 0x172 DUP4 PUSH2 0x118 JUMP JUMPDEST SWAP5 PUSH1 0x20 SWAP4 SWAP1 SWAP4 ADD CALLDATALOAD SWAP4 POP POP POP JUMP INVALID LOG2 PUSH5 0x6970667358 0x22 SLT KECCAK256 0xC7 0xC5 0x22 0xE6 SWAP4 0xAB SWAP12 CREATE SSTORE DUP1 PUSH19 0x29FD222A28C0F65A2906E8F383CB3973F53674 0xF7 0xCF PUSH5 0x736F6C6343 STOP ADDMOD EQ STOP CALLER "},"gasEstimates":{"creation":{"codeDepositCost":"87600","executionCost":"135","totalCost":"87735"},"external":{"getInstantiationCount(address)":"2559","instantiations(address,uint256)":"4784","isInstantiated(address)":"2501"},"internal":{"register(address)":"infinite"}},"methodIdentifiers":{"getInstantiationCount(address)":"8f838478","instantiations(address,uint256)":"57183c82","isInstantiated(address)":"482af689"}},"storageLayout":{"storage":[{"astId":91,"contract":"contracts/Factory.sol:Factory","label":"isInstantiated","offset":0,"slot":"0","type":"t_mapping(t_address,t_bool)"},{"astId":96,"contract":"contracts/Factory.sol:Factory","label":"instantiations","offset":0,"slot":"1","type":"t_mapping(t_address,t_array(t_address)dyn_storage)"}],"types":{"t_address":{"encoding":"inplace","label":"address","numberOfBytes":"20"},"t_array(t_address)dyn_storage":{"base":"t_address","encoding":"dynamic_array","label":"address[]","numberOfBytes":"32"},"t_bool":{"encoding":"inplace","label":"bool","numberOfBytes":"1"},"t_mapping(t_address,t_array(t_address)dyn_storage)":{"encoding":"mapping","key":"t_address","label":"mapping(address => address[])","numberOfBytes":"32","value":"t_array(t_address)dyn_storage"},"t_mapping(t_address,t_bool)":{"encoding":"mapping","key":"t_address","label":"mapping(address => bool)","numberOfBytes":"32","value":"t_bool"}}},"userdoc":{"kind":"user","methods":{},"notice":"This contract serves as a registry for contract instances, providing functionalities to register and query instances.","version":1}}}}